:020000040000FA
:100000003004002081080000470800006103000060
:1000100000000000000000000000000000000000E0
:10002000000000000000000000000000E3080000E5
:100030000000000000000000EF08000009090000B7
:10004000710300007B030000850300008F030000A4
:100050009903000011040000A3030000AD03000099
:10006000B7030000C1030000CB030000D50300006C
:10007000DF030000E9030000F3030000FD030000BC
:10008000070400001B040000250400002F040000EA
:1000900039040000430400004D0400005704000030
:1000A000610400006B040000750400007F04000080
:1000B00089040000930400009D040000A7040000D0
:1000C000F0B591B0040009A86FA1202200F0FCF85F
:1000D00001A800BF74A1202200F0F6F80020012C36
:1000E00001D009A900E001A9FF226B461A70820025
:1000F0005C4B5D4C6F4605E05C4D25605C4D2560BA
:100100008D589D509D588E58B54207D06D462D781C
:100110006E1E3E70002DEFD1002003E0401C082829
:10012000E2D3012011B0F0BDF3B482B01500FF207E
:1001300001900298410A03234E484F4C26688E4294
:100140003AD021604E02FF210091494A47490BE015
:10015000009C671E0097002C2ED0C160C26004680E
:100160009C4302272743076004681C40022CEFD100
:10017000C160C2600024E443046100243460FF26AF
:1001800000960668F706FF0F04D0009E771E0097C2
:10019000002EF6D1C160C26004610DE001994A1ED3
:1001A0000192002924D03149C1603149C160016800
:1001B000994301220A430260016819400129EDD1E7
:1001C0002A49C1602A4AC2600023DB430361002D33
:1001D00014D0029B039C26781E70FF2601960668A9
:1001E000F706FF0F06D0019E771E0197002EF6D16D
:1001F000002008E0641C5B1C6D1EECD1C160C26075
:1002000000210161012004B0F0BC7047002A05D034
:1002100003780B70401C491C521EF9D170470178BD
:100220000A02411C097811430A02811C0978114312
:100230000902C01C00780843704780B501000A68B5
:100240000E4B9A420CD30E4B9A4209D2001D006805
:100250000C4A10605060086880F308885068804736
:10026000002002BD000002402C0002405A5A00004B
:10027000A5A5000020000240180000200100002079
:100280000120002010000020B10000007F000000CD
:1002900095000000D484010038D00B0085000000D8
:1002A0002F0500009A150000200000001700000034
:1002B0001B00000050460000E02202001800000071
:1002C000F0000000E803000070B4103A03D378C9CE
:1002D000103A78C0FBD2530701D318C918C001D512
:1002E00008C908C0D20704D30B880380891C801C6E
:1002F000002A01D50B78037070BC704770B40123DD
:10030000C406E40EA340114C2360C4001825254008
:10031000FF26AE40F4438907090EA940002804D502
:100320000B4D0007000F083800E00A4D80088000E0
:10033000281805682C4021430160012A01D1064894
:1003400000E00648036070BC7047000080E200E0F7
:100350001CED00E000E400E000E100E080E100E0EE
:1003600081B00020009000980028FCD001B07047B8
:1003700080B50020C046C04601BD80B50120C04602
:10038000C04601BD80B50220C046C04601BD80B553
:100390000320C046C04601BD80B50020C046C0460F
:1003A00001BD80B50020C046C04601BD80B501201A
:1003B000C046C04601BD80B50020C046C04601BD54
:1003C00080B50120C046C04601BD80B50020C046B2
:1003D000C04601BD80B50120C046C04601BD80B504
:1003E0000020C046C04601BD80B50120C046C046C1
:1003F00001BD80B50020C046C04601BD80B50120CA
:10040000C046C04601BD80B50220C046C04601BD01
:1004100080B50020C046C04601BD80B50020C04662
:10042000C04601BD80B50420C046C04601BD80B5B0
:100430000520C046C04601BD80B50620C046C04666
:1004400001BD80B50020C046C04601BD80B500207A
:1004500000F05BF801BD80B50020C046C04601BD7C
:1004600080B50020C046C04601BD80B50020C04612
:10047000C04601BD80B50020C046C04601BD80B564
:100480000120C046C04601BD80B50020C046C04620
:1004900001BD80B50020C046C04601BD80B500202A
:1004A00000F04CF801BD80B50020C046C04601BD3B
:1004B00010B51F490A680F239A4303781B071B0FC7
:1004C00013430B6042681B4B1A600A6820239A434F
:1004D00043785B012024234013430B6040780028BD
:1004E00004D0012203211620FFF708FF002010BDD1
:1004F00011481E210160E1210160002070470E4873
:100500001E210160E121016070470B4841680A0625
:10051000D20F00D1704780B51E210160E12101603A
:1005200004480068010000D0804701BD00000000C1
:10053000840F004028000020800F0040034800681E
:10054000010000D1704780B5804701BD1C0000202C
:1005500080B50120FFF7B4FD01BDF8B500270026E6
:10056000040058482018FFF75AFE05005648201886
:10057000FFF755FE0090002D21D0F020C0018542EC
:100580001DD2AD085148076012D001272000FFF7A7
:1005900046FE3E4201D04E4900E04E4941404B48A4
:1005A0000068401849490860241D761CAE42EDD30E
:1005B000464800680099884201D10120F2BD002020
:1005C000F2BDF0B5A1B0444C842000022060C020F0
:1005D00000016060F020C001A0604048FFF71FFEEE
:1005E000E06051276D46002600E0E660A068002824
:1005F00033D0802269462068FFF708FEA068802873
:1006000010D174202F549A2075216854E42076214B
:100610006854932077216854802269462068FFF748
:1006200083FD06E0E068002803D18021684600F0E1
:1006300089F8802269466068FFF776FDA0688038F7
:10064000A060606880306060206880302060E06872
:100650008028CAD38038E060C8E721B0F0BD10B56B
:100660001F4C2048FFF7DBFD206020681E498842B0
:1006700007D184200002FFF770FF002801D0FFF7A8
:10068000A0FF10BD10B5C02424012000FFF765FFB6
:10069000002812D11348FFF7C2FD144988420ED139
:1006A00084200002FFF759FF002808D0FFF789FFD8
:1006B0002000FFF752FF002801D0012010BD0020CC
:1006C00010BD0000FC770000F8770000200000203B
:1006D000C353B482762EEA3900000020FCFB0000F0
:1006E00024000020F4FB0000A4F5AB6293E49A51CF
:1006F00080B5C0200001FFF7A0FD01BD094205D073
:10070000830705D00270401C491EF9D170470000D4
:10071000130030B414001500103902D310393CC056
:10072000FCD2490700D30CC000D504C0890002D315
:100730000280801C002900D5027030BC7047000088
:100740000022DBE70022E3E710B5124C20780028F6
:1007500005D002280BD006D3032811D017E0FFF7ED
:10076000F7FE012014E0FFF77AFF022010E0FFF708
:1007700089FF002802D0FFF7BBFF10BD032007E070
:100780006078032805DA401C6070012000E000203A
:10079000207010BD2C000020704700B583B00121EF
:1007A0000F2000F019F80821684600F025F8684687
:1007B0000B21017000214170044801906846FFF749
:1007C00077FEFFF795FE03B000BD0000990700001B
:1007D00080B5FFF794FE01BD012282400548002943
:1007E000016802D00A43026001E0914301600020E9
:1007F0007047000020200040002800D1704780B5DD
:10080000002901D0FFF79CFF01BD70B40121002237
:1008100013E00468001D0C4202D04D466D1E6419A1
:100820002260241D1B1F042BFAD225009E0701D530
:100830002280AD1C0B4000D02A700368001D002BE5
:10084000E7D170BC7047FEE710B50749794418310D
:10085000064C7C44163404E0081D0A688918884751
:100860000100A142F8D110BD0800000014000000F2
:100870009BFFFFFF30000000000000200000000090
:1008800004480022874500D9024403480260034817
:10089000004700000000002008ED00E0FD08000017
:1008A0000120C046002801D0FFF7CEFF0020C0463F
:1008B000C04600F002F800F008F880B500F009F832
:1008C00000F00BF8FFF740FFFAE780B500F00AF8F8
:1008D00001BD80B5FFF761FF01BD80B5FFF778FF6F
:1008E00001BDFEE70746384600F002F8FBE7FEE7E9
:1008F0002021090326311820ABBEF9E7C046C046C7
:10090000C046C046FFF7CCFFFEE700000000000035
:1009100000000000000000000000000000000000D7
:1009200000000000000000000000000000000000C7
:1009300000000000000000000000000000000000B7
:1009400000000000000000000000000000000000A7
:100C0000100600203569000033370000354500002C
:100C100000000000000000000000000000000000D4
:100C20000000000000000000000000009F3B0000EA
:100C300000000000000000007B4600005D33000063
:100C4000454500004F450000594500006345000040
:100C50006D450000DB450000914100007745000034
:100C6000814500008B450000954500009F45000030
:100C7000A9450000B3450000BD450000C745000080
:100C8000D1450000E5450000EF450000F9450000B2
:100C9000034600000D4600001746000021460000F4
:100CA0002B460000354600003F4600004946000044
:100CB000534600005D460000674600007146000094
:100CC000F2B505000024280001D5012445422DB2CB
:100CD000F9208000854200DB451E4A4E2800642131
:100CE00000F012FC00B2375C009807702800642105
:100CF00000F00AFC08000A2100B200F005FC00B276
:100D0000305C0099487028000A2100F0FDFB09B210
:100D1000705C00998870002C01D0402002E03F2FC9
:100D200002D1002000990870F1BD80B500F08EFC62
:100D3000827BD1070BD501213348792202705022E2
:100D40004270304A5118491E0978817001BD022154
:100D50000A42F1D12C490022805EFFF7B1FF012148
:100D6000252000F0D1FF0121212000F0CDFF01213D
:100D7000202000F0C9FF01BDD0B582B000F066FCB4
:100D80000400A07E062805D0A079800638D5E07B37
:100D9000022835D1607C312832DA68461BA10A88E6
:100DA000028001211D2000F0AFFF01216846227C56
:100DB000805C00F0A9FFE07B002802D1A079400709
:100DC0001ED4104E607C40080A2100F09DFB305C70
:100DD0000D4FF8703F2801D10020F870607C40086A
:100DE0000A2100F091FB705C3871607CC00701D56E
:100DF0006D2000E03F2078710121142000F084FF75
:100E0000D3BD00003C12000064090020010A10B5A7
:100E100000F01CFC04000121172000F075FF0121E7
:100E20000B2000F071FFA079C00702D501210C2032
:100E30000AE0607F800705D5A07C022802D101214D
:100E4000032001E00121162000F05EFF01211F2098
:100E500000F05AFF10BD10B500F0F8FB0400A079B7
:100E6000C00702D5012118200CE000F0ABFF0028DC
:100E70000AD0A079400707D50121182000F044FFCF
:100E800001211A2000F040FF607F800709D5A07C77
:100E9000022806D1A079400703D501210F2000F0D8
:100EA00033FF10BD70B500F0D1FB040001211B2001
:100EB00000F02AFFA0794007C60FE57E012112202D
:100EC00000F022FF022D05D1002E03D000211220B8
:100ED00000F01AFF0121242000F016FF607D002899
:100EE00002D10121112001E00121082000F00CFFB6
:100EF00070BD70B500F0AAFB0400FFF716FFFFF706
:100F00003BFF01F067FA0500A0794007C60F0121F9
:100F10000E2000F0F9FE042D05D0002E03D0002194
:100F20000E2000F0F1FEA079800609D401210120F5
:100F300000F0EAFEBE483F21C1707121017141718C
:100F400070BD000070B500F081FB0400FFF7EDFEFE
:100F5000A079800610D4BE490220205EFFF7B0FEC3
:100F60000121142000F0D0FE0121092000F0CCFE68
:100F70000121152000F0C8FEFFF7FEFEFFF747FF36
:100F8000FFF790FFFFF767FF01F024FA0500A07953
:100F90004007C60F01210E2000F0B6FE042D05D03B
:100FA000002E03D000210E2000F0AEFE012105200E
:100FB00000F0AAFEA07D002806D0A079000703D586
:100FC0000121042000F0A0FE70BD000070B584B0C7
:100FD00000F03CFB0400207A0190622815DA451CE1
:100FE00028000A2100F090FAC0B2009028000A21DF
:100FF00000F08AFA8E4D00BF90A60098002801D01C
:10100000305CE870C9B2705C28710121262000F0C4
:101010007BFE0025207A0B282AD802A1095C490012
:101020008F4400BF0640464C526482888E9494E7F9
:101030000121002000F068FE3220205CE1790029C7
:1010400018D02034012800D1A41C79490020205E4A
:10105000FFF736FE0121252000F056FE0121212058
:1010600000F052FE002D03D00121202000F04CFEA4
:1010700004B070BDA17B012803D1022001420FD032
:1010800002E0C8070CD50120694D79212970502153
:10109000697000BF69A10818401E0078A870E7E7D2
:1010A0000125D2E70121022000F02EFE2434CCE7F6
:1010B00001211E2000F028FE2634C6E701211C2055
:1010C00000F022FE2834C0E70121232000F01CFE9E
:1010D0000121012000F018FE607FC00700D482E0EB
:1010E000534D3F20287037206870C1E70121192037
:1010F00000F00AFE684600BF4EA10A6802606D4615
:101100000121287800F000FE0121687800F0FCFD44
:101110000121A87800F0F8FDA0794007A8D50021AA
:101120003220205C285CA1E701211A2000F0ECFDB0
:1011300030348AE70121112000F0E6FD2A3484E7EB
:101140000121082000F0E0FD2C347EE702A800BF5A
:1011500039A10A8802800121222000F0D5FD012159
:10116000032000F0D1FD0198092800DA80E7012171
:1011700002A8019A80180938007800F0C5FD200007
:101180002E300090607F80072DD501980A2802D16B
:101190000098401C009000980078F12800DB67E779
:1011A00026A6234D642100F0AFF9305C287000982A
:1011B0000078642100F0A8F908000A2100F0A4F9E1
:1011C000345C6C70009800780A2100F09DF9705C26
:1011D000A87028783F2800D04AE7002028703F2CCC
:1011E00000D045E780E7124D3F20287071206870DD
:1011F00054E70121132000F087FD607A010007D138
:10120000A079400700D433E74020094908702FE750
:101210000128F9D0022803D14020054D287063E74A
:10122000032800D024E74020014D2870687035E77E
:101230006409002007101A00060F00003F065B4FEC
:10124000666D7D077F6F00406138377700000000D2
:101250006709002080B5012000F06AFD00212620EA
:1012600000F052FD0021002000F04EFD0021022080
:1012700000F04AFD00211E2000F046FD00211C2048
:1012800000F042FD0021232000F03EFD002101205E
:1012900000F03AFD0021192000F036FD0021072062
:1012A00000F032FD0021102000F02EFD00211A2058
:1012B00000F02AFD0021222000F026FD002106205A
:1012C00000F022FD00210F2000F01EFD0021132060
:1012D00000F01AFD00211D2000F016FD00210A205B
:1012E00000F012FD01BD000030B587B000F0AEF98E
:1012F000817A0A000DD1724939200870092048709E
:101300000F2088700420C8705E2008713820487152
:1013100023E0012910D16A4939220A7009224A7052
:101320000F228A708079400717D55E20C870792017
:1013300008713820487110E0042913D16049002257
:101340000A703F224A7037228A703823CB700423F8
:101350000B714A71407B00286AD001210E2000F0F9
:10136000D3FC65E0022912D103A900BF55A238CAF7
:1013700038C1694656A238CA38C1C17A03AA525C3C
:101380004F4B6C46615C5918491E0A7008E00329EE
:1013900006D14B4971220A7077224A7038228A702E
:1013A0008079400703D501210E2000F0ADFC01F04B
:1013B00011F800280CD0012811D0022816D00328DB
:1013C0001BD0042820D0052824D0FF2829D02FE0C6
:1013D0003B496D20C87077200871502027E03849BC
:1013E0007720C87073200871002020E0344937202E
:1013F000C8703F200871312019E031493920C87088
:101400003F200871792012E02D493920C8703F2211
:101410000A710CE02A493820C8703F2008717320F7
:1014200005E027493E20C8707020087137204871B8
:1014300007B030BD38B500F009F9050000F060FCD8
:10144000A87981073AD5FD210140A9711C4C0721DB
:10145000200001F08DF8002000F06AFCA87E06282C
:1014600027D801A1095C8F44443E38201A14060095
:101470000121152000F048FCFFF77EFC19E0FFF782
:1014800033FF16E0FFF7E6FE13E04F2020707D20CB
:1014900060700420A0700620E0703F21217160710F
:1014A00007E0FFF793FD04E0FFF74CFD01E0FFF7D5
:1014B00020FD200000F06AFB00F040FB31BD000081
:1014C000640900200101010204080808102000003E
:1014D000010203030303020101010000F446002896
:1014E00004D4494200F013F84042604740420029CA
:1014F00005D45FD000F00BF84042494260474942B2
:1015000000F005F84942604703460B43E6D4002249
:10151000030A8B420BD203098B4219D243088B4238
:101520002ED2411A00D20146524110467047FF2286
:1015300009023FD012068B4205D3121209028B42D8
:1015400001D31212090203098B4219D300E0090AE0
:10155000C3098B4201D3CB01C01A524183098B428C
:1015600001D38B01C01A524143098B4201D34B0175
:10157000C01A524103098B4201D30B01C01A5241D8
:10158000C3088B4201D3CB00C01A524183088B425F
:1015900001D38B00C01A524143088B4201D34B0048
:1015A000C01A5241884200D3401A5241CFD201465C
:1015B0001046704708B5C046C04608BD30B4994AC9
:1015C0001300153300205979072900DB5871187072
:1015D000587098700121D97102211C7AFE2525408E
:1015E0000D431D721E32DC231380AF246400D480AF
:1015F000642414810A2454819381A025D5815A251D
:1016000015745474D2246400548211755075C0202E
:10161000C000D082C820108389025183962494830D
:10162000A64DD5831484E2355584AA259584882552
:101630006D01D5841385A64B53859485D18510867D
:10164000B82040015086948630BC7047754870477A
:10165000A04870477348C17E427FD20704D4827E7F
:10166000130001D0022A02D1002181760AE09A4AB1
:1016700000231370FA239B005380042282760229F0
:1016800000D10121C1767047F0B504000020205E32
:10169000924D0021695E0E00814210DA871B3FB235
:1016A00038000A21FFF730FF09B2781A042904DB59
:1016B000092901DB0A3000E0401D361812E088429B
:1016C00010DA371A3FB238000A21FFF71DFF09B2BE
:1016D000781A00B2361A042904DB092901DB0A3E14
:1016E00000E0761F2E8028882080F0BD38B50020CD
:1016F00000F084FF0400012000F080FF050000F0EE
:101700007AFF010047483222825C002A03D0022A75
:1017100016D00AD32CE0C90702D50121817308E055
:10172000018C61180180002121E00222114202D0C7
:101730008273A14929E0418C69180180002116E0DB
:10174000032902D19C4A028009E0CA0701D59A4ABE
:101750000BE08A0705D5028CA2180280964A828087
:1017600005E0002903D1028CA218028085808173D4
:101770000021415EF9239B00994201DB591E04E0E0
:101780005E23DB43994200DA19460180FFF77CFFB4
:1017900031BD10B501F07EF8884C2188401A80B226
:1017A000322804DB01F076F8208000F030FF10BD15
:1017B0000023D35E984203DB1800884200DA080059
:1017C0001080704738B5174CA07D002802D0012842
:1017D00002D007E0E08B04E001F02EF98000201831
:1017E000C08E6080A21C2620215E2420205EFFF790
:1017F000DFFF2620205E2421615E0B002A25655F25
:10180000AB4203DB2B00834200DA030063852C220A
:10181000A25E914203DB1100814200DA0100A18542
:1018200031BD00000000002010B501F033F8A24CDB
:101830006188401A80B2FA214900884226DB01F013
:1018400029F860809D48817912220A438271C17A09
:10185000491CC9B20A2900DB0021C1722178491C48
:10186000C9B2022908DB0021130702D5F723134070
:1018700001E0082313438371217081794A0702D55F
:10188000FB220A4001E004220A43827110BD10B518
:101890008A488179CA0607D5EF220A408271FFF78C
:1018A00025FFFFF78FFF10BD827E984B1C78944276
:1018B00003D01A7012220A43827110BD1E0B000061
:1018C000934A800010180022027041807047000087
:1018D0001E1600001A000020E0080020F40100207D
:1018E00038B5764C8A4D2878002805D0002028701D
:1018F000217A002900D0A0762879002815D0002070
:101900002871607F400710D4207A00280DD1207EF6
:10191000401C2076C0B20A2805DB607F0421014309
:101920006177FFF74BFE7B48E880287A002810D0CB
:1019300000202872217A0A0001D1E07131BD0B2903
:1019400007D1607A032804DA401C6072FA20400054
:10195000688131BD38B5594C6D4D287800280BD0C1
:1019600000202870A07A022804D16B4868800320E8
:10197000A07213E00120A076A07A01280AD100F01D
:1019800029FD042816D00220A0720020287061488A
:10199000688031BD022801D003280BD100F01AFD68
:1019A000042807D1002028705C4868800420A072B9
:1019B0000120607331BD0000E303000086090020B0
:1019C0003E48817E491E052900D9704780B501A295
:1019D000525C974404686E7E969C4D490A7C002AAE
:1019E00006D000220A74C27E022A01D10122C276E8
:1019F000C27B022A0CD10A7B002A0DD000220A7376
:101A0000474ACA818279930603D42023134302E014
:101A10008279DF2313408371827C002A4BD00A7DB8
:101A2000002A48D000220A75037D002B02D00275DF
:101A30003C4802E0012202753948C88201BDFFF727
:101A40004FFF01BD32490A78002A34D000220A70C3
:101A5000012109E02E490A78002A2CD000220A70C0
:101A6000FA2292004A800321817601BDFFF772FFBE
:101A700001BD27490A78002A14D000220A70437C4D
:101A8000002B04D00223C3730A73254BCB81037C44
:101A9000002B02D10122827604E082768279202313
:101AA000134383710A7B002A05D000220A73C17B8D
:101AB000012900D1C27301BD72090020000000207D
:101AC00038B500F0E7FE124A918B884201DB411ADB
:101AD00001E0431E591A89B2002914D09083901C4A
:101AE00007220123048825000AD08C4204DB641AF3
:101AF0000480240404D101E000240480841E2370A7
:101B0000001D521EEED1FFF75BFF31BDA209002080
:101B1000E008002060EA000030750000B80B00000B
:101B20008813000050C3000080B5FFF732FEFFF7B6
:101B3000AEFEFFF7C5FFFFF777FE01BD80B51021B0
:101B40008B4801F089F801BD10B4049C20706170CD
:101B5000A270E37001982071029860710398A071DF
:101B600010BC7047E0B4002301259D40284206D0F8
:101B70007F4D0E78AD192E78177837432F705B1C88
:101B8000521C491C072BEFDBE0BC7047F1B588B055
:101B900004A80390072002900B20019007200090DA
:101BA000032303220B210F20FFF7CEFF06A803908B
:101BB000102002900820019000900823102210218C
:101BC000FFF7C2FF06AA04A908980078FFF7CAFF2A
:101BD00004A80390072002900B200190072000909A
:101BE000032303220B210F20FFF7AEFF06A803906B
:101BF000402002902020019000902023402240218C
:101C0000FFF7A2FF06AA04A908984078FFF7AAFFE9
:101C100004A80390062002900B200190072000905A
:101C2000032302220A210F20FFF78EFF06A803904C
:101C30000120029080200190009080230122012148
:101C4000FFF782FF06AA04A908988078FFF78AFFA9
:101C500004A803900A200290062001900A20009018
:101C60000E230E2206210220FFF76EFF202006AC75
:101C7000207040216170A170E07020716071A171CD
:101C800006AA04A90898C078FFF76CFF022604ADE5
:101C90002E70052068700D20A8700E20E8700A20B4
:101CA0002871062068710920A87180202070012702
:101CB0006770A770E07020716071A77106AA04A90F
:101CC00008980079FFF74EFF2F70052068700D20EF
:101CD000A870E87009202871052068710920A87192
:101CE000267004206070A070E67026716671A07185
:101CF00006AA04A908984079FFF734FF09B0F0BD9F
:101D000080B500F06BFF01BD1AA240001018184A00
:101D10000378D318002905D00178515C4078084336
:101D200018707047197843789943007811547047B8
:101D300030B40100002400200D4A0D0000D0FF2027
:101D40001070641C0D0000D0FF205070641C0D004A
:101D500000D0FF209070641C0D0000D0FF20D070D8
:101D6000641C121DE4B2102CE7DB30BC704700008D
:101D700048090020091009080A100A080A040A0282
:101D80000B040B020B0105100508061006080604DB
:101D900006020704070207010110010401010240C5
:101DA0000208020402020304030203010D100D08DD
:101DB0000E100E080E040E010F040F020F010F404B
:101DC0000F10000062480078704780B5FFF73EFCB6
:101DD000011D8A78D20717D53222805C022813D1E0
:101DE000887A002810D12C20085E00228A5E824268
:101DF00007DB0120564A10708878FE2202408A7064
:101E000001BD1E38904202DB00205149087001BD1F
:101E100070B5FFF71BFC0400607F800733D5A07905
:101E2000C00730D54B4EA07C00280AD1E0740125B4
:101E3000A57400F02FFD308047490520FFF740FDD5
:101E400028E000F027FD3188401A80B243498842DB
:101E500021DB00F01FFD3080E07C401CE07421009D
:101E60002E31A27C022A00D1491C0978C0B28842D6
:101E700011D30020E074022A02D00220A0740DE0E9
:101E80000120A07470BD0025E574A57400F002FD6A
:101E9000304908802575A07C022803D1A079FE2155
:101EA0000140A17170BD10B500F0F4FC00F040FFDE
:101EB0002B4C2078010004D100F0ECFC6080012064
:101EC0000AE001280AD100F0E5FC6188401A80B2DE
:101ED0002449884239DB0220207010BDFFF7B6FB91
:101EE0000400FFF7B3FB817E0A0006D0022904D06C
:101EF000062915D1007C012815D1A079FE210140C9
:101F0000A171FFF785FFA079C00716D51421002025
:101F100000F0E2FE96218900012000F0DDFE10BDF8
:101F2000807B0028E9D100F023FFA179FE220A403E
:101F30001043A071FFF749FFE3E70021002000F004
:101F4000E0FE0021012000F0DCFE10BD00000000DA
:101F5000A4090020980900208813000060EA00000E
:101F600076090020B90B0000F0B400220270427024
:101F7000AC4A931C2524FD259E1E3678083E0F2E64
:101F80006ED801A7BF5DBF440E1A26323E4A566284
:101F90006E7A86929EAAB6C21E88360A86701E88FF
:101FA000C6705AE01E88360A06711E88467154E0D3
:101FB0001E88360A86711E88C6714EE01E88360A53
:101FC00006721E88467248E01E88360A86721E888F
:101FD000C67242E01E88360A06731E8846733CE0CD
:101FE0001E88360A86731E88C67336E01E88360A37
:101FF00006741E88467430E01E88360A86741E8871
:10200000C6742AE01E88360A06751E88467524E0C6
:102010001E88360A86751E88C6751EE01E88360A1A
:1020200006761E88467618E01E88360A86761E8852
:10203000C67612E01E88360A06771E8846770CE0C0
:102040001E88360A86771E88C67706E01E88360AFE
:102050002027C6551E882127C6559E782E409E7083
:102060009B1D641E00D087E74800401840001018F0
:10207000017902220A4302712220F0BC704770B439
:10208000684A931C2524FD259E1E3678292E09D0EA
:102090002ED32B2E12D00BD32D2E1BD014D32E2E9D
:1020A0001ED025E01E88360A06701E8846701CE089
:1020B0001E88360A86701E88C67016E01E88360A8C
:1020C00006711E88467110E01E88360A86711E88C9
:1020D000C6710AE01E88360A06721E88467204E03F
:1020E0001E88360A86721E88C6729E782E409E70A2
:1020F0009B1D641EC8D1480040184000101801798B
:1021000002220A4302710C2070BC7047B0B58CB03B
:102110000025BA4CFD27A07880077CD50020A11EA1
:102120000978491E22D0491E24D0491E26D0491EB6
:1021300028D0491E2AD0491E2CD0491E2ED0491E17
:102140000F292ED9103934D0083936D0491E38D04D
:10215000491E3AD0891E3BD0891E3ED0491E40D030
:10216000491E44D0491E032947D94FE02188C9B2EE
:10217000012039E02188C9B202203BE0218809B260
:10218000102027E0218809B2182023E02188C9B255
:1021900024202FE02188C9B26B2025E0218813205C
:1021A00018E0E9B203A8FFF7DFFE020003A926202A
:1021B0002AE02188C9B21F201CE02188C9B22B2047
:1021C00018E02188C9B2692014E021886A2001E062
:1021D0002188682000F097FE18E02188C9B22820E5
:1021E00002E02188C9B2082000F06DFE0EE02188CF
:1021F000C9B2192000F0CCFE08E0E9B26846FFF74A
:102200003EFF02006946662000F03FFE012802D131
:10221000A0783840A0706D1CA41D252D00DA7AE747
:102220000CB0B0BD6000002030B583B0B94CA07ACE
:1022300000280ED003E06846007900F0D1FE01A826
:1022400000F056FF0028F6D100F0E6FEFFF75EFF33
:1022500016E00120A07200F031FF00F04DFF0F21C9
:1022600020000C3000F068FB03212000143000F047
:1022700063FB032120001C3000F05EFB0020207077
:1022800000F0F4FD227A824209D02072042806D19F
:1022900001206072022120001C3000F04DFB200064
:1022A0000C3000F0FAFA20000C3000F04CFB002853
:1022B00009D000F035FF00F027FF962149002000EB
:1022C0000C3000F039FB2000143000F0E6FA20005A
:1022D000143000F038FB00280BD0207A042801D0FD
:1022E000022100E00A212000143000F025FB00F05C
:1022F000C6FD20001C3000F0D0FA20001C3000F099
:1023000022FB002806D0282120001C3000F014FBFE
:1023100000F0AFFD2000243000F0BFFA2000243090
:1023200000F011FB002813D00025657278212000F1
:10233000243000F001FB00F0EBFE0095764802E04F
:102340000099491C009100998142F9D300F0E4FE04
:1023500003B030BD10B50400200000F0D1FE00280D
:10236000FAD010BD80B500F0DBFE00F0CDFE962166
:1023700049006A4800F0E0FA01BDD0B506000F0040
:10238000644C78212000243000F0D6FAC0C4083C08
:1023900001206072207A042802D10020E072D0BDB2
:1023A000E07A401CE072C0B20A2807D0142805D099
:1023B0001E2803D0362806D11838E07200212000EC
:1023C000243000F0B9FAD0BD80B55249052200F0A2
:1023D000B5FE01BD4F48007A704710B5040000F00B
:1023E00038FD601E8041C043C00F4A4A107202216E
:1023F0001000143000F0A0FA10BD000062000020B0
:10240000E0B40200FD23464D2E78B04205D169802C
:1024100028791840012606432E7101200A352F1F06
:102420003F78BA4206D1AE1E31802E781E40012779
:1024300037432F70401CAF78BA4205D1A980AE79DE
:102440001E4001273743AF71401C0C352528E6DBC1
:10245000E0BC704770B4FE22314B1D78A84205D114
:1024600059801C791440022525431D7101240A332B
:102470001E1F3678B04206D19D1E29801D7815405A
:1024800002262E431E70641C9E78B04205D19980AE
:102490009D79154002262E439E71641C0C33252C19
:1024A000E6DB70BC704730B400231D4A1479E407A2
:1024B00011D4012314000A342578ED070BD45B1CDA
:1024C000A579ED0707D45B1C257BED0703D45B1CC6
:1024D000A57CED070DD55C00E3185B00D2181378DE
:1024E0000370508808801079FE210140117101208D
:1024F00004E05B1C1834252BDEDB002030BC704769
:1025000001200849087070470649087800220A70BF
:102510007047000040010020C40900004C01002069
:1025200060000020A5090020094205D0830705D0DE
:102530000270401C491EF9D170470000130030B4EE
:1025400014001500103902D310393CC0FCD24907E1
:1025500000D30CC000D504C0890002D30280801CC7
:10256000002900D5027030BC704700000022DBE774
:102570000022E3E7F8B500270024012902D100BFBB
:102580007AA100E042A10A88824202D25E20C043C2
:102590002FE0DA23CB5A984201D23B4829E063006E
:1025A000CB5A984202D2641C6D2CF8DB002C1BD055
:1025B000620089188A1E12880988401A83001D1833
:1025C0006D00561A28003100FEF79EFF0700F00F3D
:1025D00080194010009028003100FEF795FF89B265
:1025E0000098884200DA7F1C0A3CA00000194000D5
:1025F000C01B00B2F2BD224880787047010002295A
:1026000004DA1F48490040180421405E704738B57D
:102610001B4C2078002802D0012805D031BD00F0E5
:10262000D4FD0120207031BD2000083000F033FEC1
:10263000002824D0A1782089124D02001E3AAA4217
:1026400004D301200843A070104805E0FE220A4090
:10265000A2700021FFF78EFFA080A17860890200A0
:102660001E3AAA4204D302200843A070074805E09E
:10267000FD220A40A2706178FFF77CFFE08031BD47
:1026800088010020B50F0000E3030000E70300000D
:10269000F20CD50CB70C990C7A0C5A0C3A0C1A0C9B
:1026A000F80BD70BB40B920B6F0B4B0B270B020BDA
:1026B000DD0AB80A920A6D0A460A200AF909D30906
:1026C000AC0985095E0937090F09E808C1089A08AD
:1026D00073084D0826080008D907B3078D07680757
:1026E00043071E07F906D506B2068E066B06470697
:1026F00027060506E405C305A3058305630545050F
:1027000027050905EB04CF04B30497047C04620495
:1027100048042E041504FD03E503CD03B6039F030F
:10272000890373035E034A03360322030F03FC028B
:10273000EA02D802C602B502A50295028502750218
:102740006602570249023B022E02200213020602D1
:10275000FA01EF01E301D701CC01C101B701AC01DE
:10276000A20199018F0185017D017401E90BBC0B68
:102770008E0B600B310B010BD00A9F0A6D0A3B0ACE
:10278000080AD509A2096F093C090809D508A20859
:102790006E083C080908D707A50773074207120708
:1027A000E206B306850657062A06FE05D305A805E8
:1027B0007E0555052D050605E004BB04960473044B
:1027C00050042E040D04ED03CE03B00393037603EF
:1027D0005A033F0325030C03F302DB02C402AE02DB
:1027E000980283026F025B0248023602240213023F
:1027F0000202F201E301D301C501B701A9019C0165
:102800008F01830177016C01600156014B01410189
:1028100038012E0125011C0114010C010401FC00EA
:10282000F500ED00E700E000D900D300CD00C700BF
:10283000C100BC00B700B200AD00A800A3009F001B
:102840009A00960092008E0070B500F069FD4E4926
:102850000A78821A08704B880C890025FA208000BB
:1028600013E0521E5B1C641CA4B284420DDB0024E6
:102870008E88761C8E804E78761C4E70F6B23C2E7A
:1028800003DB4D70CE88761CCE801606E9D10C8114
:102890004B8070BD3C4840887047F8B5040000F09C
:1028A0003FFD39490A78821A08704D880E89002048
:1028B000FA239B0013E0521E6D1C761CB6B29E429A
:1028C0000DDB00268F887F1C8F804F787F1C4F7018
:1028D000FFB23C2F03DB4870CF887F1CCF801706E8
:1028E000E9D10E814D802278100009D18988A08815
:1028F000081AA180110008D180B204280EDB09E07B
:10290000012A01D1C988F2E7FEE7012A06D180B287
:10291000032803DB002060800AE04018010409D08E
:102920006288110004D01949521862801204F4D14F
:102930000120F2BD0020F2BD38B505000C00FFF704
:10294000ACFF6C8031BD2FE010B50400FFF77CFFB9
:102950000D484188A088081AA18080B20C4988429D
:1029600003DB002060800AE04018010409D062887F
:10297000110004D00549521862801204F4D10120DC
:1029800010BD002010BD0000FE080020FFFF000069
:10299000D107000038B505000C00FFF7D5FF012076
:1029A00028706C8031BD00BF4188481E8041C00F37
:1029B000704780B500F0B7FC01BDF8B4016842185B
:1029C00043685908511800918168DB0701D54B46CF
:1029D000C918009B9A4202D10C30F2BC70471378A0
:1029E000521C032403261E4002D11678F61C521CEA
:1029F0001D090F2D07D115780F35521C03E01778EC
:102A0000521C0F70491C761EF9D1002DE1D01678AA
:102A1000521C9B081C40032C01D11478521C230229
:102A2000F3185C420B19AD1CD3D01C785B1C0C70E6
:102A3000491C6D1ECDD0F8E730480178072901DB2D
:102A40000721017000787047F0B4002314000FD004
:102A500005782D02467835430E7836024F783E438E
:102A6000B54203D35B1C091D9342F1DB002B01D15E
:102A7000501E00E0581EC0B2F0BC7047130000D1D9
:102A8000704710B5531E012B0CD883781C0003D05F
:102A9000062B07D1012A05D102221831FFF7D4FFF6
:102AA000801D02E00622FFF7CFFF1449087010BD19
:102AB00010B5FFF7EFFEFA21890088421BDBFEF715
:102AC000C5FD040000F002FDE27D21003431FFF776
:102AD000D5FFA07E09490A784B78934205D04A7009
:102AE000A27D022A01D10122A2758A78824202D0F7
:102AF00088700020A07510BD0000000006020020B4
:102B000080B50921002000F04DFD0A21002000F0D1
:102B100049FD0B21002000F045FD0C21002000F0B4
:102B200041FD0821002000F03DFD0921802000F03A
:102B300039FD0821802000F035FD0721802000F0BC
:102B400031FD0621802000F02DFD0F21402000F0F6
:102B500029FD0E21402000F025FD0D21402000F030
:102B600021FD0C21402000F01DFD0B21402000F034
:102B700019FD0A21402000F015FD0221402000F03F
:102B800011FD0121402000F00DFD0021402000F04A
:102B900009FD0521802000F005FD0421802000F0C2
:102BA00001FD0721002000F0FDFC0621002000F0BF
:102BB000F9FC0521002000F0F5FC0421002000F0C4
:102BC000F1FC0321002000F0EDFC1F49002000F083
:102BD00025FD1E49012000F021FD01BD00B583B097
:102BE0000821684600F09CFD0121022000F0A2FDB2
:102BF000002000F037FF0121162000F04DFF0121D9
:102C00001C2000F049FFFFF77BFF6846012141715E
:102C10000021817006220270817103214170C17010
:102C2000022101710A4801680A4A0A40C02189014B
:102C300011430160684600F003FD0121002000F00F
:102C4000D3FC03B000BD00000000E0FFFFF0FFFF79
:102C5000005C0040FF0FFFFF70B500248E08012EBE
:102C600015DB050001E0082C0CDA287800026978F1
:102C700001430802A97801430802E97801432000D2
:102C800000F0D4FC641C2D1DE4B2B442EBDB70BD3B
:102C900010B50400207A01280BD16089010002D010
:102CA000401E60810FE0607A00280CD020688047C9
:102CB00009E0002807D1A089010002D0401EA081B0
:102CC00001E060688047E089010002D0401EE08199
:102CD00010BD0120607210BD002802D0012808D06C
:102CE00070472248027A012A0AD0012202724181E9
:102CF00070471E48027E012A02D0012202764183DB
:102D00007047002802D0012809D070471748027A7E
:102D1000002A0CD00022C2810281818170471348B1
:102D2000027E002A03D00022C2830283818370477F
:102D300010B50E4C2021615C002902D0012906D07B
:102D400010BD00F00DFF01202021605410BD618CEA
:102D5000411A89B2642907DB60842000FFF798FFDD
:102D600020001030FFF794FF10BD000094010020F8
:102D700010B41F49087A0A884B88D21A12B2042369
:102D8000CB5E9A4204DB012000220A7310BC70471C
:102D90000623CC5E6342934204DB00209A42F3DBBD
:102DA0000122F2E7421E9241D20FEEE710B5FFF783
:102DB00071FD0F4CE189401A80B2FA214900884226
:102DC00013DBFFF767FDE081FEF740FC817E002901
:102DD00005D0018DA180018DE1804188218001888D
:102DE00061808079C107C90F217210BD0000000009
:102DF0003809002001000020002902D17047491C39
:102E0000401C0A78002AFAD1704730B4002801D05B
:102E1000002901D100201AE0814202D28C1884429C
:102E200009D2130013D003000C781C70491C5B1CE2
:102E3000521E0CD0F8E7774B07E08C18641E2478FC
:102E400085186D1E2C70D21892B2002AF5D130BCB4
:102E5000704780B500219E4A11700100002000F0EB
:102E60009FFEC1B2052000F0B7FE01BD9948007871
:102E7000704780B500211C2000F0AEFE01BD80B57A
:102E800000212B2000F0A8FE01BD38B50C00150074
:102E900091490978012914D00100002000F080FE3A
:102EA000002100F07DFE290A00F07AFEE9B200F070
:102EB00077FE2A00210000F079FE0100072000F0D3
:102EC0008BFE012032BD10B50C0083490978012921
:102ED00017D00100002000F063FE012100F060FE29
:102EE000002100F05DFE012100F05AFE002C01D10E
:102EF000002100E0012100F053FE0100072000F056
:102F00006BFE012010BD10B50C0073490978012932
:102F10001ED00100002000F043FE022100F040FE20
:102F2000002100F03DFE042100F03AFE210E00F0E9
:102F300037FE2102090E00F033FE2104090E00F0D5
:102F40002FFEE1B200F02CFE0100072000F044FE4D
:102F5000012010BD38B50C0015005F490978012922
:102F600014D00100002000F01BFE032100F018FE29
:102F7000290A00F015FEE9B200F012FE2A00210035
:102F800000F014FE0100072000F026FE012032BDF3
:102F900010B50C0050490978012913D00100002018
:102FA00000F0FEFD042100F0FBFD002100F0F8FD23
:102FB000012100F0F5FD210000F0F2FD01000720E5
:102FC00000F00AFE012010BD00BF0178090242781E
:102FD0000A43110282780A431102C07808437047FD
:102FE00030B43E490B683E4C2468E51A012D0CD0E4
:102FF0009C4202D21C1B872C07D23A4C25008735F5
:10300000AB4200D3230018705B1C0B6030BC7047D0
:1030100000000000FFFF0000F8B50024324D334FE0
:1030200005E03E88701C388000F0A9FFA85538885C
:10303000FF213431884203D200F098FF0028F0D1FC
:103040003888072802DAF1BD641CA4B239880A1B4B
:10305000072A2ADB28190378552BF5D14378AA2BA8
:10306000F2D18378002B01D0A41CEEE703791B0278
:1030700046799E19F61DB6B2FF233C339E4201D31A
:10308000E41CE2E7B24210DB711E89B200F099FD48
:10309000A1196918491E0978884201D0E41CD4E7B7
:1030A000200000F0BDFDA419CFE73A80100404D041
:1030B00092B229192800FFF7A8FEF1BD0948074977
:1030C000086007490860FF20024908707047000047
:1030D0004607002047070020440700205007002033
:1030E000540700205807002010060020A0090020E7
:1030F00080B501F000F802BD80B500F0F6FF01BD1B
:1031000080B501F024F802BD80B5C046C04601BDBF
:1031100080B500F06BFF01BD80B500F06DFF01BD13
:1031200001480068704700008809002080B5C0464B
:10313000C04601BD80B501F05BF801BD124207D069
:103140008B0706D00B78491C0370401C521EF7D821
:103150007047830706D00B78491C0370401C521E31
:10316000F9D1704770B4103A03D378C9103A78C0D7
:10317000FBD2530701D318C918C001D508C908C02C
:10318000D20704D30B880380891C801C002A01D538
:103190000B78037070BC704710B55D4C00212000A7
:1031A0000C3001F07DF9012120000E3001F078F99A
:1031B00002212000103001F073F9032120001230A9
:1031C00001F06EF90120207110BD10B58EB00521FF
:1031D000684600F0A5FA062102A800F0A1FA18211D
:1031E00008A800F09DFA06214A4800F099FA052146
:1031F00006A800F095FA052104A800F091FA012133
:103200001C2000F049FC0021802000F0CBF90121B6
:10321000802000F0C7F90121102000F03DFC0028BB
:1032200037D101F0D4F801243B4801682143016003
:103230006846047000214170022282700322C2702D
:10324000017101F07FF80A21002001F0F5F80B214F
:10325000012001F0F1F80A21022001F0EDF80B2124
:10326000032001F0E9F801220321182001F030F9D0
:1032700001F064F8684604722848089008A902A87A
:1032800001F02BF800220421684601F0A9F801F0B2
:103290009CF80EB010BDF0B583B0002100241C4A8C
:1032A0001379012B30D1117113000C336D46C0CB53
:1032B000C0C56B46958A1E889F88F619AD19958200
:1032C000D58A5E88AD19DB88EB1815786D1C1570F2
:1032D000EDB2082D15DB1470958A0F240F262E40B1
:1032E0002D09082E00DB6D1C95821D042D0D1C4040
:1032F000082C00DB6D1C938A03804580918200239B
:103300000124D38201F061F8200003B0F0BD000079
:1033100020090020240900200024004099310000E9
:1033200011480078704780B500F081FAFA218900D1
:10333000FEF7EDF8401E8021490488420DD20B496A
:1033400048600B4802681202120AC0231B0613438E
:103350000360002088600720086001BD02480178F2
:10336000491C017070470000A609002010E000E031
:1033700020ED00E010B5FFF78DFA554CE188401ABA
:1033800080B2FA21890088421FDBFFF783FAE080D0
:10339000E078401CE070C0B23C2816DB0020E070F2
:1033A0006178491C6170C9B23C290EDB60702178DC
:1033B000491C2170C9B2182907DB2070A178491C6B
:1033C000A170C9B2072900DBA07010BD1CB5FFF7C2
:1033D00061FA3F4C2189401A80B23E4988421FDB86
:1033E000FFF758FA20816079801C6071C0B21E28F6
:1033F00016DBFEF7EFFF042812D16846FEF7E4FF64
:103400006846007801280BD168460079E07068466C
:10341000807820706846407860706846C078A070F8
:1034200013BD1CB52A4C2079002805D0022824D0D1
:1034300008D303283CD013BDFEF7CCFF04283CD1B1
:10344000012015E06846FEF7BFFF684600780128B6
:103450000DD168460079E070684680782070684633
:10346000407860706846C078A070022000E00020BC
:103470002071FFF70FFA608113BD6846FEF7A4FFC5
:1034800068460078012808D1684680782178814212
:103490000BD16178814210D007E0FFF7FBF9618919
:1034A000401A80B20B49884207DB0320207113BD0C
:1034B000FFF760FF2000FFF789FF13BD0448007984
:1034C000032801D101207047002070470048704751
:1034D0005400002060EA000070B4374BC518012387
:1034E0008B40DC432E6826402E6000258900411861
:1034F000324E89190D60324941181578012D0D6839
:1035000001D11D4300E025400D602E49411855783A
:10351000002D0D6801D1254000E01D430D602A49B2
:1035200041182A4D45199678012E02D12E681E4366
:1035300008E0022E2E6804D126402E600D681D433F
:1035400003E026402E600D6825400D60204940189C
:10355000D1780029016802D10C40046001E00B43DE
:1035600003601C4801681C4B0B401179C903802281
:103570001202114019430160002070BC7047174AC5
:10358000FFE780180268CA40D007C00F7047144A8E
:1035900000E0144A8018026801238B401343036043
:1035A00000207047044AF5E7890040180349401895
:1035B00002600020704700000C0D0240000C024029
:1035C000000D02401C0D0240240D0240200D02405F
:1035D0002C0D0240080F0240FF7FFFFF040D024048
:1035E000100D0240140D0240002802D001280AD01C
:1035F00012E04548026801239A43CB07DB0F1343CF
:103600000360002070474048426840239A43890184
:10361000194011434160F4E7042070473E4A0028F6
:1036200001D1116000E0516000207047102801DBDB
:1036300004207047FFE7394A80001150002070478E
:1036400010B502783049022A03D9131F01D09B1EFE
:1036500008D10B682D4C1C405202E0231B01134083
:1036600023430B604278032A03D9531F01D09B1ECA
:1036700008D10B68264C1C409201E0235B001340EC
:1036800023430B608278012A06D80B682024A343C9
:10369000520122401A430A60C278032A06D80B68F6
:1036A0001824A343D20014401C430C600279032A5F
:1036B00006D80B680624A343520014401C430C6038
:1036C0004279012A07D84B68124C1C4012028B0D1C
:1036D0001A4022434A604A6880239A438379DB0177
:1036E0008024234013434B60C079002805D04868EC
:1036F0004A0D02434A60012200E0002203211D20FE
:1037000000F0E6FE002010BD005C0040FFF1FFFF6E
:103710003FFEFFFFFFFEFFFF0C5C0040405C0040EF
:10372000002800D1704780B5002901D0FEF71EFFA8
:1037300001BDFEE770B4020000207A4B7A4C9C6019
:103740007A4C9C600C0000D00121002A06D0022A8D
:1037500026D00FD3042A48D030D354E01A6801246D
:10376000A2430A431A6000294ED0D968C90A2140F1
:103770004AD1FAE76E4C0122256C15432564256C6D
:1037800002262E4326641C680225AC434D002543C7
:103790001D60002938D019698909114034D1FAE730
:1037A0001A680424A2438C0014431C6001220029DF
:1037B0002AD05969090B114026D1FAE75C4C2268DE
:1037C0001D0C154325602268DD0B154325601A6822
:1037D0000824A243CC0014431C600122002913D00A
:1037E0009969890911400FD1FAE71A681024A24398
:1037F0000C0114431C600122002905D0D96B890CEF
:10380000114001D1FAE7042070BC704780B54549EA
:10381000454A8A60454A8A600A68E0239A43400123
:10382000034013430B6000F029FF002002BDF8B4F1
:103830000020854D29886A88AB88EC886E462D8CDF
:103840003580384E376807257F092F4006D0022F74
:1038500024D021D3042F2DD02AD353E0F068400583
:10386000400D884201D179484CE0F0684005400D98
:10387000904201D1764845E0F0684005400D9842FD
:1038800001D174483EE0F0684005400DA04201D1EE
:10389000714837E0714835E0714833E06846008888
:1038A00071698905890D884202D19620000229E0BC
:1038B000F00B27E0F06B8007800F03281DD1F06824
:1038C0004005400D814201D1604817E0F068400595
:1038D000400D824201D15E4810E0F0684005400D85
:1038E000834201D15B4809E0F0684005400D844205
:1038F00001D1594802E0594800E05948F16BC90527
:10390000090F48433168090A0D40E840F2BC70478E
:1039100080B5FFF78CFF5F490968C904890FC8406B
:1039200002BD0000002000405A5A0000A5A500007A
:103930008C0D0240F8B50700002069460870387801
:1039400000282ED002280ED003D3042820D011D373
:1039500025E0504C20690321014321612069302179
:10396000014321611DE04B4C6069C0210901014305
:10397000616116E0474CA0690C210143A161A06977
:1039800003210143A161A06930210143A16108E045
:10399000404CE06BE02189020143E16301E0042037
:1039A000087001213878FFF7C5FE3978394C414D50
:1039B000A560414EA6602068E022904349010A407C
:1039C0000243226000F05AFE7978A560A660226862
:1039D0003A4810400902E022D2000A400243226025
:1039E000B878A560A6602168354A0A40C002C021A7
:1039F000490101401143216068460078F2BD000092
:103A000001000020002906D002290AD006D304298B
:103A10000DD009D316E00C490A890AE00A49CA8880
:103A200007E009498A8804E007494A8801E0064915
:103A30000A8824490B68DB0ADB025205520D1A433F
:103A40000A60704704207047000C100000366E01B9
:103A5000408651010024F40000127A0000093D0064
:103A60000048E80101000020002902D0012903D00C
:103A70000DE015494A8801E013490A8813490B688B
:103A80009B0A9B029205920D1A430A60704704201C
:103A90007047000000200040012282400C480029AD
:103AA000016802D00A43026001E0914301600020F6
:103AB000704700005A5A0000A5A50000FFF8FFFF5C
:103AC000FFE7FFFF0C200040200C100014200040F6
:103AD0002020004000B583B001211C20FFF7DCFF4F
:103AE000002069460860012008710A218020FFF744
:103AF00050FD6A460A218020FFF7EEFC0A2114E0FF
:103B000000B583B001211C20FFF7C6FF00206946E5
:103B10000860012008710B218020FFF73AFD6A46FA
:103B20000B218020FFF7D8FC0B218020FFF731FD0F
:103B300003B000BD00B583B001211C20FFF7ACFF2E
:103B4000002069460860012008716A460F210020A4
:103B5000FFF7C2FC0F210020FFF719FD03B000BDE5
:103B600080B5FFF7E7FFFFF7B5FF0A218020FFF7D9
:103B700010FDFFF7C5FF0B2107E080B50A2180206B
:103B8000FFF705FD01BD80B50A218020FFF701FD8B
:103B900001BD80B50B21F2E780B50B21F5E7FEE70B
:103BA0001E4A12189171401C80B2704738B504004B
:103BB00015001A480019801DFFF727F9601980B217
:103BC00032BD020000200B0005D01378C018C0B22F
:103BD000521C491EF9D1704738B5104D55222A7034
:103BE000AA226A700322AA70E870080A2871697113
:103BF000CC1D611E89B22800FFF7E3FFA4B229198A
:103C0000491E0870200007D0FEF7ACFB287800F0B2
:103C10004DFD6D1C641EF9D131BD0000600800200F
:103C2000F1B586B0D04D6846008B2C18E07800289E
:103C300023D0012830D0022800D17BE0032800D116
:103C4000A1E0042800D1A8E0052800D1ABE00628B7
:103C500000D1AEE0082800D1FDE00A2800D1FDE047
:103C60000B2800D110E10E2800D172E11C2800D1F0
:103C70006BE12B2800D171E173E19A2040002D18EF
:103C8000C84C01202979002902D1A171287100E0D6
:103C9000A071012100207DE0C7A52800FFF7AAF848
:103CA0000600C04CB2B22900A01DFFF7AEF800BF5D
:103CB000C3A52800FFF79EF882B22900F0B2FFF7F3
:103CC00075FF0600C3A52800FFF794F882B229000B
:103CD000F0B2FFF76BFF0600C0A52800FFF78AF8D7
:103CE00082B22900F0B2FFF761FF0600BDA52800EF
:103CF000FFF780F882B22900F0B2FFF757FF060005
:103D0000A9A52800FFF776F882B22900F0B2FFF7E4
:103D10004DFF0600A5A73800FFF76CF80500F6B2C6
:103D2000AAB23900A019801DFFF76FF87119C9B246
:103D300001202FE09B4C55202070AA2060700320AA
:103D4000A0700220E0700026267166710621200016
:103D5000FFF737FFA071FEF705FB207800F0A6FC07
:103D6000607800F0A3FCA07800F0A0FCE07800F000
:103D70009DFC207900F09AFC607900F097FCA07916
:103D800000F094FCEDE0A0799A2149006918C87010
:103D900000210320FFF720FFE3E001209A214900E2
:103DA00069184870DDE001209A214900691888707F
:103DB000D7E0207900026179401880B20490002693
:103DC000039621E0491C921CC9B20800059B984249
:103DD00004DA13786F463F78BB42F3D169464978DD
:103DE000734A400010184078814207D168464288E3
:103DF0000298011D6846007800F0E0FC03980199E4
:103E00004018001D80B2039003980499884200DB9B
:103E1000A7E06846008B039940182818017A090228
:103E2000407A0818019003982018801D02900078AD
:103E300069460870029840784870029880780002BD
:103E40000299C9784018694648801420C0460590F8
:103E50000021574AB8E700F02DFC82E09A2040008C
:103E60002D183438E880A079E179227A00020143E4
:103E7000080202431002617A0143A960002000F0A9
:103E800070FC0A2068716CE09A2040002D18687957
:103E90000A2866D101202870207900026179401833
:103EA00080B20490A079E179227A000201430802ED
:103EB00002431002617A0143019120000A30049903
:103EC000042909D10199AA68914205D1002200F084
:103ED00052FC0021697108E0E988049A121F91429E
:103EE00030DB92B2019900F046FC012827D12D4C1D
:103EF00055202070AA2060700320A0700B20E07075
:103F000000262671667106212000FFF75AFEA07177
:103F1000FEF728FA207800F0C9FB607800F0C6FBB5
:103F2000A07800F0C3FBE07800F0C0FB207900F03F
:103F3000BDFB607900F0BAFBA07900F0B7FB002070
:103F400028700EE000206871F9E7A01D00F0EBFB7F
:103F500007E0A079E179C046C04602E0A079C046FA
:103F6000C04607B0F0BD00001006002011480168EF
:103F70004068814201D001207047002070470D4900
:103F80004A680B689A420AD008008F30824202D3F6
:103F90000800083048604A681078521C4A60C0B275
:103FA0007047000060080020300000007D00000025
:103FB00060690000500700207B2270223A22000036
:103FC0006563306872796130716270343877687116
:103FD00000000000222C2276223A2200312E302EC0
:103FE00031000000222C226D223A000080B507210A
:103FF0004020FFF7CCFA01BD80B507214020FFF734
:10400000C8FA01BD00B583B001211C20FFF744FDB3
:1040100005216846FFF784FB0020694608706A4660
:1040200008214020FFF758FA072208214020FFF717
:10403000BBFA0120694608706A4609214020FFF753
:104040004BFA072209214020FFF7AEFA03B000BD6A
:1040500070B58AB00C2101A8FFF762FB142104A8F7
:10406000FFF75EFB03216846FFF75AFB01210020A2
:10407000FFF712FD012401AD2C720122032106205D
:1040800000F026FA2C70002068706946087000F075
:104090004CFD01A9002000F0BAFEFFF739FC040036
:1040A0002D784D4E0C213000FFF73AFB0121002006
:1040B00000F082FD3460357196208001B0603100DF
:1040C000002000F0A1FD0100002000F0C2FD012150
:1040D000002000F028FE0121002000F099FC0121C1
:1040E000002000F0BEFD0AB070BD80B5FFF78AFF6A
:1040F000FFF7AEFF01BD39494A780B7893420AD0E9
:10410000374B9B5C0370521CD2B2202A00DB00228A
:104110004A70012070470020704780B531484178CF
:10412000027891420ED001782F4A515C8022D2054C
:1041300011600178491C01700178402906DB0021DB
:10414000017001BD0621002000F09CFC01BD80B57E
:1041500024490A784B785B1CDBB2402B00DB002340
:10416000934201D1002002BD4B781F4AD0545B1C02
:10417000DBB2402B00DB00234B701C480068C105FC
:10418000C90F03D10621002000F042FC012002BD2E
:1041900080B50621002000F095FD002801D0FFF732
:1041A000BCFF0121002000F08DFD002812D001216C
:1041B000002000F0B8FD002000F0DDFD0749084AAE
:1041C0000B78D0540878401C08700878202801DB50
:1041D0000020087001BD0000580900209C09002043
:1041E000C00800209E090020E007002004000040D5
:1041F00080B5002000F038FE0020FFF701FC002011
:104200006946088088706846FFF794FB0020FFF736
:1042100029FC01210220FFF78DFA0220FFF7F6FAB0
:104220000420FFF7EDFB0020FFF7F0FA0021022049
:10423000FFF780FAFFF7FBFA0149086001BD0000B3
:104240008809002070B55C4C01255C4E3068C008C0
:10425000284007D0A068010000D08047706808217E
:104260008843706030688008284007D0E06801000B
:1042700000D080477068042188437060306840082F
:10428000284007D02069010000D0804770680221D3
:10429000884370603068284006D06069010000D013
:1042A00080477068A843706030680009284007D0D4
:1042B0006068010000D080477068102188437060FA
:1042C00030684009054007D02068010000D08047D1
:1042D000706820218843706070BD4279012A04D142
:1042E0004A69130001D0344B5A610278012A04D183
:1042F0000A68130001D0304B1A604278012A04D1B9
:104300004A68130001D02C4B5A608278012A04D1EC
:104310008A68130001D0284B9A60C278012A04D120
:10432000CA68130001D0244BDA600079012804D157
:104330000869010001D020490861704725480168DB
:10434000C20B3FE010B4002801D1042032E04278D3
:1043500020490B680C24A343920014401C430C60BA
:1043600082780B68314C1C401203C0239B01134020
:1043700023430B60C2780B682D4C1C405202C023B3
:10438000DB00134023430B6000790A68294B13407C
:10439000C002CA0C10401843086048680E4A024028
:1043A0004A6048680D4A02404A6048681E4A024016
:1043B0004A60002010BC704708090020B02400406B
:1043C000016801220A43026070473348F8E7014858
:1043D000F6E7000004240040FFBFFFFFFFDFFFFF00
:1043E00030B4002801D104201CE003782948046877
:1043F0002A4D25409B02040D23402B430360036894
:104400000C4C1C40D202C30C1A4022430260426C86
:10441000294B1340491E0905C02292030A401A4342
:104420004264002030BC7047FFEFFFFFFFCFFFFF6B
:10443000FFF9FFFFFFF7FFFF002805D0022814D087
:104440000BD3032819D022E01F4802681F239A4388
:10445000C906C90E1143016019E01B480268174BD9
:1044600013404901F82292000EE017480268144BED
:1044700013408902F822D20106E013480268114B6A
:104480001340C903F82212030A401A4302600020B5
:104490007047000008240040C8240040FFFBFFFFD5
:1044A000002801D0042901DB04207047074A890055
:1044B0005158018000207047FFFFCFFF1FFCFFFF16
:1044C000FF83FFFFFF7FF0FF4C240040902400405B
:1044D00070B40123C406E40EA340114C2360C40051
:1044E00018252540FF26AE40F4438907090EA94050
:1044F000002804D50B4D0007000F083800E00A4DD6
:1045000080088000281805682C4021430160012A9A
:1045100001D1064800E00648036070BC7047000007
:1045200080E200E01CED00E000E400E000E100E0DB
:1045300080E100E081B00020009000980028FCD0CD
:1045400001B0704780B50020C046C04601BD80B5AF
:104550000120C046C04601BD80B50220C046C0460D
:1045600001BD80B50320C046C04601BD80B5002016
:10457000C046C04601BD80B5012000F007FC01BD6A
:1045800080B50020C046C04601BD80B50120C046B0
:10459000C04601BD80B50020C046C04601BD80B503
:1045A0000120C046C04601BD80B50020C046C046BF
:1045B00001BD80B50120C046C04601BD80B50020C8
:1045C000C046C04601BD80B50120C046C04601BD01
:1045D00080B50220C046C04601BD80B50020C0465F
:1045E000C04601BD80B50020C046C04601BD80B5B3
:1045F0000420C046C04601BD80B50520C046C04667
:1046000001BD80B50620C046C04601BD80B5002072
:10461000C046C04601BD80B5002000F053FC01BD7E
:1046200080B50020C046C04601BD80B50020FFF720
:1046300009FE01BD80B50020C046C04601BD80B561
:104640000020C046C04601BD80B50120C046C0461E
:1046500001BD80B50020C046C04601BD80B5002028
:10466000C046C04601BD80B5002000F0F3FB01BD8F
:1046700080B50020C046C04601BDFEE780B50AE017
:1046800080B50748008807490A68D20AD202400567
:10469000400D10430860FFF7CAF80349086001BDE8
:1046A000080C10000C200040B801002080B5FDF778
:1046B00051FE01BD80B5FDF723FF01BDF8B5070030
:1046C0000E000020022E00DA0226B11ECA0F511879
:1046D000C905090E112910DB1021364A8300D218B2
:1046E0004300FB189C78146014682402146014685A
:1046F000DB7823431360401CC0B28842EDDB082402
:104700002C4D296889B2E0B2FDF77AFE641C2D1D9C
:10471000182CF6DB320039002620FEF7B6FB012804
:1047200000D00020F2BD00B583B0017801290FD17F
:104730006A4611704179517001799170C179D170D7
:1047400080791071072906DB00206946C87002E0F5
:10475000002069460870684603C8FDF70EFE03B0E6
:1047600000BD80B501000020FFF71AFA01000A2001
:10477000FFF732FA01BD38B504000F4D100013D019
:104780002878012801D10020287080204000824232
:1047900005D1200000F041FC2000803002E0802A9A
:1047A00002D1200000F039FC2878401C287001203C
:1047B00032BD000020080020A8090020F0B587B015
:1047C0000C001500012825D002282FD008283BD046
:1047D000102845D0132851D01F285DD0262869D035
:1047E00028286DD02B2877D0652800D182E0662854
:1047F00000D182E0672800D1B9E0682800D1B9E093
:10480000692800D1BFE06A2800D1CAE06B2800D136
:10481000D5E0E6E0290020000078C0460400210031
:104820000120FDF7EDFD21000120D3E0290020004B
:104830000078C046040021000220FDF7E1FD2100C0
:104840000220FEF7A5FBC7E0290020000078C04643
:10485000040021002720FDF7D3FD21000820B9E046
:1048600029002000FEF7B0FB0400A1B20320FDF7F1
:10487000C7FD21001020FEF746FBADE02900200017
:10488000FEF7A2FB0400A1B20720FDF7B9FD21004D
:104890001320FEF738FB9FE0290020000078C04677
:1048A000040021001820FDF7ABFD21001F20FEF7BA
:1048B0006FFB91E029002000FFF700FF060090E069
:1048C000290020000078C046040021002620FDF7C2
:1048D00097FD210028207DE0290020000078C046B7
:1048E000040021002020FDF78BFD21002B20FEF786
:1048F0004FFB71E0FEF7C9FA6EE000260020E905E3
:10490000090E07290BDB06214200A21813781B02AF
:1049100052781A436F468300FA50401CC0B2884256
:10492000F2DB009989B22920FDF76AFD019989B26D
:104930002A20FDF765FD029989B22B20FDF760FD65
:10494000039989B22C20FDF75BFD049989B22D20D3
:10495000FDF756FD059989B22E20FDF751FD2A007D
:1049600021006620FEF791FA01283AD136E0FEF7E1
:10497000F1FA31E029002000FEF726FB0100682053
:10498000FEF7C1FA28E0290020000078C0460400A4
:1049900021002120FDF734FD21006920FEF7F8FAFF
:1049A0001AE029002000FEF70FFB0400A1B222202C
:1049B000FDF726FD21006A20FEF7A5FA0CE029008C
:1049C00020000078C046040021000620FDF718FDF5
:1049D00021006B20FEF777FA012801D1012600E0C3
:1049E0000026F0B207B0F0BD10B401000020002294
:1049F000804B1C68A14204D1D000801A8000181896
:104A000003E00122DC69A142F6D010BC704700002F
:104A100010B40022774B1C68A04203D00122DC694D
:104A2000A0422DD1D000801A80001A18062927D85C
:104A300001A0405C874400BF081848202A343E008B
:104A40005068416802220A434260002010BC70474F
:104A5000506841680122F6E750684168802292035D
:104A6000F1E75068416880225203ECE750684168E2
:104A700080229201E7E75068416880225200E2E715
:104A80000420E3E710B400225A4B1C68A04203D074
:104A90000122DC69A0422BD1D000801A80001A18B4
:104AA000062925D801A0405C874400BF081844208F
:104AB0002C343C0050684168022291434160002040
:104AC00010BC7047506841680122F6E750684168A1
:104AD000494A0A404260F2E750684168474AF8E7AD
:104AE00050684168464AF4E750684168454AF0E733
:104AF0000420E5E710B400223E4B1C68A04203D01E
:104B00000122DC69A0420DD1D000801A80001A1861
:104B100050684268C0239A4389010B4013434360A5
:104B2000002000E0042010BC704710B40022314B7C
:104B30001C68A04203D00122DC69A04219D1D00038
:104B4000801A80001A18002910D05068426820236B
:104B50009A430B785B0120242340134343600A7877
:104B6000012A03D14A7882608978C160002010BC94
:104B700070470420FBE730B4042300241D4A156865
:104B8000A84203D00124D569A84204D1E000001B4B
:104B900080001018031D02290BD818684268474B83
:104BA00013408903C02212020A401A4342600020C7
:104BB00000E0042030BC704730B4042300240D4AC8
:104BC0001568A84203D00124D569A84204D1E000A9
:104BD000001B80001018031D18684268384B1340F2
:104BE000490280229200114019434160002030BCEC
:104BF00070470000BC010020FFFFDFFFFFFFEFFF59
:104C0000FFDFFFFFFFFEFFFF10B50C00FFF7ECFE1C
:104C1000406840688005C10F2079020001D1002062
:104C200010BD012801D0032809D1002901D110218C
:104C300000E008212068A2684A43110005E000292D
:104C400001D1202100E010212068FCF760FC80B237
:104C500010BD10B50C00FFF7C7FE4068846100204E
:104C600010BD10B50C00FFF7BFFE002823D0012CAB
:104C700006D9E41E0BD0641E0ED0641E11D01AE0BB
:104C80004068416810220A434260002010BD40681D
:104C9000416880229202F6E7406841688022520211
:104CA000F1E740684168802212030A43426041688C
:104CB0008022D202E7E7042010BD0000FF3FFFFF83
:104CC000FFFDFFFF38B50C000025FFF78DFE002823
:104CD00001D1042032BD062C23D801A1095D8F44E7
:104CE000060E18202830380040680069400617E09A
:104CF00040680069C507ED0F13E040680069800750
:104D00000EE040680069C0060AE04068006940079C
:104D100006E040680069800602E04068006900071C
:104D2000C50F280032BD10B50C00FFF75DFE00284E
:104D300001D1042010BD002C06D0022C0CD007D3CA
:104D4000042C11D00CD314E04068416920220EE0FD
:104D50004068416901220AE040684169022206E098
:104D600040684169102202E0406841690422914391
:104D70004161002010BD80B5FFF736FE002801D14B
:104D8000042002BD40680068C0B202BD70B50600D4
:104D9000FFF72AFE040039D06068012501698908FF
:104DA000294005D004213000FFF7BDFFE0682AE06C
:104DB00001690909294005D003213000FFF7B3FF3D
:104DC000A06920E000694009284006D03000FFF7C4
:104DD000AAFF6069010000D0804760680069284030
:104DE00007D001213000FFF79EFF2069010000D0AD
:104DF0008047606800694008054007D00221300004
:104E0000FFF791FFA068010000D0804770BD70B52A
:104E100006000C00FFF7E8FD050001D0002C01D1D1
:104E2000042070BD21783000FFF764FE6178300007
:104E3000FFF7A1FE6068002809D04168E960816839
:104E400029610168A960C16869610069A8610020E1
:104E500070BD000003480068010000D1704780B5B4
:104E6000804701BD9009002012490A6880231B0673
:104E700013430B600E490C4ACA600C4ACA600C22EC
:104E8000D243030003D1086802400A6009E0012808
:104E9000086802D10240042001E0024008201043CB
:104EA00008600020704700005A5A0000A5A50000C5
:104EB00020000240202000400C481E210160E1211A
:104EC00001607047094841680A06D20F00D1704757
:104ED00080B51E210160E1210160034800680100E6
:104EE00000D0804701BD000094090020800F0040E1
:104EF00010B5B94C20001830FDF726FD20002030F9
:104F0000FDF7CBFC207B012804D010D3032817D059
:104F10000ED310BDC82120001830FDF73BFD200046
:104F20002030FDF710FD002801D00020207310BDB7
:104F300020001830FDF737FD0028F8D00320F5E7F2
:104F4000FEE70000F1B484B002A800BFA7A218CA0F
:104F500018C080295EDB0020009002A805E080399F
:104F6000C9B2009A803AD2B20092002952D0892266
:104F700002708E2242703C2282707222C270A7227E
:104F8000027119224271F42282715D22C271049A67
:104F9000009BD2181023147805786540157054785A
:104FA0004578654055709478857865409570D478DB
:104FB000C5786540D57014790579654015715479C7
:104FC0004579654055719479857965409571D479B5
:104FD000C5796540D5710478E4096D462C710024CB
:104FE00002AD2E7876002E706F783F0602D501272D
:104FF00037432F70641C6D1C072CF2DB04192578D5
:105000006D006E4636792E43267008325B1EC2D183
:105010008029A4DA05B0F0BC7047F0B5A3B0050054
:105020006D4C142120002030FDF786FC03A82021C0
:105030002A7802706A784270AA788270EA78C27020
:105040002D1D001D491EF3D1207B002803D001280F
:1050500000D196E0BDE003AD7C20285C00027D21FC
:10506000695C014308027E21695C014308027F21DB
:105070006F5C07437820285C00027921695C01435A
:1050800008027A21695C014308027B216E5C0643B9
:105090007C2103A800F062F9874200D099E000204B
:1050A000E0812082012E27D1012323734B486C23FA
:1050B000EB5C1B026D26AE5D1E4333026E26AE5DB9
:1050C0001E4333026F26AE5D1E4331007023EB5C3E
:1050D0001B027126AE5D1E4333027226AE5D1E4377
:1050E00033027326AD5D1D432A0000F08EF9E809F6
:1050F000A082A08A60826CE0022E6AD10121217315
:10510000364900914C21695C09024D22AA5C0A4390
:1051100011024E22AA5C0A4311024F22AA5C0A43E2
:1051200001927021695C09027122AA5C0A43110292
:105130007222AA5C0A4312027321695C1143502255
:10514000AA5C12025123EB5C13431A025223EB5C5C
:1051500013431B025322AA5C1A43214B994237D2B4
:10516000204B9A4234D2C809D309C318A3820291B2
:1051700020820292A08A6082684607C800F045F942
:1051800027E0E089228A90420DD3618A88420AD2C0
:10519000802103A8FFF7D6FE03A9E089228A801A9E
:1051A00080B200F0CEF8E089401CE081218A80B214
:1051B00081420ED2200000F0F0F8E089A18A8842F6
:1051C00007D30948206007CC0C3C00F01EF90220F0
:1051D000207323B0F0BD000098080020751A738D6D
:1051E000817B000081770000A4F5AB62898E3C7260
:1051F000A719F45D80B5A0490870012000F04AF9B4
:1052000001BDF8B507000E0000249B4D2A78921CC2
:10521000D2B2FC21090200F015FA39002878801C6E
:10522000C0B200F045FA002800D101242A78921C6F
:10523000D2B2FE210902300000F004FA31002878D1
:10524000801CC0B200F034FA002802D120000224F1
:1052500004432000F2BD10B5C0B00400694620A888
:10526000FFF7CFFF8107890F032901D1012010E04B
:105270000021C20701D5684606E020A804E04218D4
:1052800052786254491CC9B27B4A12789142F6DBCB
:10529000002040B010BDF0B5E1B0060000240125AB
:1052A00021A941A8FFF7ADFF81070DD0C10704D5A3
:1052B00021A80478641C651C0CE080070AD521A88D
:1052C00005786D1C6C1C05E041A80478A41C21A87D
:1052D0000578AD1C320068480178E0B200F0DCF9D6
:1052E00069460870320064480178E8B200F0D4F9E9
:1052F000070061480278100008D001A8401C110086
:1053000033780370761C401C491EF9D101AE34700D
:1053100068460078B1184870921CD2B2FC2109028C
:1053200001A800F079F9357053480278B018477039
:10533000921CD2B2FE21090201A800F06DF961B001
:10534000F0BD10B5842252008318FC246400A342EF
:1053500003DA801880B200F009F910BD02000020C5
:105360000023890800D17047F0B4454C434D1678AE
:105370003602577837433E02977837433F02D67854
:105380003E43DF0701D56E4000E0664080195B1C9C
:10539000121D491EEBD1F0BC704710B584B004005B
:1053A0000422384902A800F04DF902A80178090248
:1053B00042780A43110282780A431102C0780843F6
:1053C00020600422304901A800F03CF901A80178CE
:1053D000090242780A43110282780A431102C07816
:1053E0000843606004222949684600F02BF96846AA
:1053F0000178090242780A43110282780A431102B5
:10540000C0780843A06004B010BD17B5A1B0204C0F
:1054100080222100684600F015F968462199090E9E
:10542000742281542199090C752281542199090A09
:105430007622815421997722815422990A0E782369
:10544000C2540A0C7923C2540A0A7A23C2547B221A
:10545000815423990A0E7C23C2540A0C7D23C25422
:105460000A0A7E23C2547F2281548022210000F048
:10547000CDF824B010BD0000A7090020C353B482AA
:10548000762EEA39F4FB0000F8FB0000FCFB00007C
:1054900080FB0000F0B591B0040009A86EA12022A5
:1054A000FDF760FE01A800BF73A12022FDF75AFEA0
:1054B0000020012C01D009A900E001A9FF226B46C0
:1054C0001A7082004B4B4C4C6F4605E04B4D2560EB
:1054D0004B4D25608D589D509D588E58B54207D034
:1054E0006D462D786E1E3E70002DEFD1002003E03A
:1054F000401C0828E2D3012011B0F0BDF8B4C1056A
:1055000016D1FF2100913E4A3C4B03243D4D06E05D
:10551000EB60EA602E68A643022737432F602E68AF
:105520002640022E06D0009E771E0097002EEFD157
:10553000002019E0EB60EA600024E4432C610024C1
:1055400004600091012029680909014009D00099EF
:105550004E1E00960029F6D1EB60EA602C61002017
:1055600002E0EB60EA602C61F2BC7047F8B50D0018
:10557000FF210091C401600A234A136898420ED0AB
:1055800010604002FFF7BAFF09E01C49C1601C49E6
:10559000C16001680322914301220A430260194855
:1055A00001688907890F012905D000994A1E0092D8
:1055B0000029EAD1F1BD1149C160114AC26000233E
:1055C000DB43036180232E782670FF260096066851
:1055D000F706FF0F05D0009E771E0097002EF6D12C
:1055E000F1BD6D1C641C5B1EEDD1C160C260002169
:1055F0000161F1BD000002402C0002405A5A000037
:10560000A5A50000200002408C0900200B00812A83
:1056100000DB704710B504E00B00812A00DB704707
:1056200010B5A0B0110006D0694604780C70401C7B
:10563000491C521EF9D169465802000CFFF796FF2B
:1056400020B010BD130005D00B780370491C401C1E
:10565000521EF9D170470000B10000007F00000029
:1056600095000000D484010038D00B0085000000B4
:105670002F0500009A150000200000001700000010
:105680001B00000050460000E0220200180000004D
:10569000F0000000E80300000300080005D01078C7
:1056A0001B18DBB2521C491EF9D1452058407047E7
:1056B00030B4421E0023140607D00C00D2B2257865
:1056C0005B19DBB2641C521EF9D145225A400818FE
:1056D000401E0078824201D1012000E0002030BC51
:1056E000704700003CB404001800049D059B002C8A
:1056F00006D0834202DB002909D005E0981806E0B5
:105700009D4203DB002902D1280000E0981A00B274
:1057100036BC704738B5FBF799FF0400864D2A0068
:105720002900042000F060FCC0070AD50420A07600
:10573000FA2189000020FCF7C3F8E07B022839D168
:1057400032E02A007D49012000F04EFCC0070BD555
:105750000620A0760120207479490020FCF7B0F8DB
:105760000020E073607431BD2A002900102000F091
:105770003BFC800708D5002060752A21615E6180AE
:10578000E1830121A17610E02A002900022000F027
:105790002BFCC00706D42A002900082000F024FCB6
:1057A000C00707D50120A0760020E073A079DF2193
:1057B0000140A17131BDF0B583B0FBF747FF040094
:1057C0005D4A1146042000F00FFCC00707D50025F4
:1057D000A576E573A079DF210140A171A9E0052537
:1057E000C8225849022000F0FFFB28420AD00120BD
:1057F000A1798A0600D486E0DF200840A0714F49D5
:10580000032067E0C8224F49082000F0EDFB284242
:1058100001D00020ECE7484A4A49012000F0E4FBAF
:105820000621084221D0022809D1A176002525743D
:1058300043490020FCF744F8E573657479E00428D7
:1058400077D1FDF73BFE00280BD0A07D012801DBBE
:10585000002000E0401CA075E07D002801D101205F
:10586000E075012000F01EFB63E00227324A11467A
:10587000102000F0B9FB384219D0607D012801DB0F
:10588000002000E0401C607520002A30617D012965
:1058900001D120002C300021405E6080E083002593
:1058A000E573A079DF210140A171A57541E00426CF
:1058B000214A2449F00100F097FB30420DD0A57633
:1058C00000252573E5720120A072207BFCF785FD81
:1058D000AF490020FBF7F4FF2BE0174A17493002CD
:1058E00000F082FB304224D0A77600252572E571B6
:1058F0006572A8490020FBF7E3FFA5490120FBF7EB
:10590000DFFF257615E00221615E01912621615EAF
:1059100000912421635E05220021FFF7E3FE6080F1
:10592000A17D0A0001D1E08303E0012901D1022019
:10593000A07503B0F0BD0000FFFF00008813000059
:1059400010270000B80B00007CB50400FBF77EFEBA
:10595000C51D6B7819000B2900D917E101A2490078
:10596000525A97441600520074009400BA00EE0098
:1059700012013C016A01A001A0010C022978002952
:1059800015D00600203601002431897B012901D180
:10599000060022360020305E01905E20C043009059
:1059A0006423052200212000FFF79CFE30800120A7
:1059B0002870AA490220E7E0050024350020285E6F
:1059C00001900220285E0090E1239B000522002127
:1059D0002000FFF787FE288073BD050024350220D4
:1059E000285E01903220009000202B5E05220021CD
:1059F0002000FFF777FE688073BD05002435042082
:105A0000285E002C05D0642801DB642006E0401DE0
:105A100004E0062801DA052000E0401FA88073BDDD
:105A2000A87DC107C90F002C03D001290CDA491C3D
:105A300002E0012906DB491E0AB2521E9241D243FE
:105A4000D20F02E0012200E00022FE2101400A43C1
:105A5000AA7573BD05002435A87B002C05D002284B
:105A600001DB002006E0401C04E0012801DA0220EE
:105A700000E0401EA87373BD050024350C20285E8D
:105A8000002C07D096218900884201DB080006E03F
:105A90000A3004E0A12801DAA02000E00A38A88139
:105AA00073BD0500243506216A5E002C07D0AF21A6
:105AB00049008A4201DB0A0006E0521D04E0332A55
:105AC00001DA322200E0521FEA8002002A3213E09B
:105AD0000500243508216A5E002C05D0AF2149005D
:105AE0008A4206DA511D04E0332A01DA322100E04D
:105AF000511F298102002C320220295E0020285EDD
:105B0000FBF756FE73BD01002E3102002F320A2B27
:105B100003D101002F3102002E32A87D83071FD54B
:105B20000B78052B0BD1260009D1FD230340AB7563
:105B3000052010700B78062B09DA052308E0002CED
:105B4000F9D0F02B01DBF02302E05B1D00E05B1FCE
:105B50000B7099480078002818D00878107073BD31
:105B6000002C13D002210143A9750120924908702D
:105B700073BD0020A870FA2149000220FBF7A0FEA7
:105B8000FBF71CFD35490020FBF79AFE73BD0000B2
:105B900060EA000030750000F8B5FBF757FD04001F
:105BA0000126A5490020FBF78BFEA4490120FBF745
:105BB00087FE00252576A24A1146042000F014FA3B
:105BC000C00701D5A576F1BD9D4A1146012000F020
:105BD0000BFAC0070AD5207A401CC0B20C2800DBA3
:105BE00000202072744805706572F1BDC822954985
:105BF000022000F0F9F9052738420DD0217A0B294F
:105C000006D1012807D1607A010001D0032802D112
:105C10003000FFF799FEF1BDC8228B49082000F043
:105C2000E3F938420BD0217A0B2906D10128F2D1B1
:105C3000607A010001D00328EDD10026E8E7804A10
:105C40001146102000F0D0F9C007E4D565752A2070
:105C5000205E6080E083A676E5733DE08813000057
:105C6000F8B5FBF7F3FC0400754D2A002900042069
:105C700000F0BAF9C00702D50020A076F1BDFA27DE
:105C8000FF0004262A003900022000F0ADF930425E
:105C900009D0002020730020E0720120A072207B38
:105CA000FCF79BFBF1BD2A003900082000F09CF9AD
:105CB000304201D00120EDE72A002900102000F039
:105CC00093F98007EED5002060752A21615E61801E
:105CD000E1830121A176E073A079DF210140A17168
:105CE000F1BDF8B5FBF7B2FC040001250126544ACA
:105CF0001146042000F078F9C0071FD5607C002809
:105D000002D00220E07304E0E073A079DF210140BB
:105D1000A171207C002808D1A576E07B022849D11A
:105D20004A490320FBF7CCFDF1BD0020A076E07BC3
:105D300002283FD1A0792021014331E00527C82264
:105D40004149022000F050F9384207D1C8223E49AB
:105D5000082000F049F9384210D00026E5733C498C
:105D60000020FBF7ADFD38490320FBF7A9FD607C5F
:105D7000002E19D0302815DB00201AE0304A1146D9
:105D8000102000F031F9800714D5002060752A2119
