:020000040000FA
:100000003004002081080000470800006103000060
:1000100000000000000000000000000000000000E0
:10002000000000000000000000000000E3080000E5
:100030000000000000000000EF08000009090000B7
:10004000710300007B030000850300008F030000A4
:100050009903000011040000A3030000AD03000099
:10006000B7030000C1030000CB030000D50300006C
:10007000DF030000E9030000F3030000FD030000BC
:10008000070400001B040000250400002F040000EA
:1000900039040000430400004D0400005704000030
:1000A000610400006B040000750400007F04000080
:1000B00089040000930400009D040000A7040000D0
:1000C000F0B591B0040009A86FA1202200F0FCF85F
:1000D00001A800BF74A1202200F0F6F80020012C36
:1000E00001D009A900E001A9FF226B461A70820025
:1000F0005C4B5D4C6F4605E05C4D25605C4D2560BA
:100100008D589D509D588E58B54207D06D462D781C
:100110006E1E3E70002DEFD1002003E0401C082829
:10012000E2D3012011B0F0BDF3B482B01500FF207E
:1001300001900298410A03234E484F4C26688E4294
:100140003AD021604E02FF210091494A47490BE015
:10015000009C671E0097002C2ED0C160C26004680E
:100160009C4302272743076004681C40022CEFD100
:10017000C160C2600024E443046100243460FF26AF
:1001800000960668F706FF0F04D0009E771E0097C2
:10019000002EF6D1C160C26004610DE001994A1ED3
:1001A0000192002924D03149C1603149C160016800
:1001B000994301220A430260016819400129EDD1E7
:1001C0002A49C1602A4AC2600023DB430361002D33
:1001D00014D0029B039C26781E70FF2601960668A9
:1001E000F706FF0F06D0019E771E0197002EF6D16D
:1001F000002008E0641C5B1C6D1EECD1C160C26075
:1002000000210161012004B0F0BC7047002A05D034
:1002100003780B70401C491C521EF9D170470178BD
:100220000A02411C097811430A02811C0978114312
:100230000902C01C00780843704780B501000A68B5
:100240000E4B9A420CD30E4B9A4209D2001D006805
:100250000C4A10605060086880F308885068804736
:10026000002002BD000002402C0002405A5A00004B
:10027000A5A5000020000240180000200100002079
:100280000120002010000020B10000007F000000CD
:1002900095000000D484010038D00B0085000000D8
:1002A0002F0500009A150000200000001700000034
:1002B0001B00000050460000E02202001800000071
:1002C000F0000000E803000070B4103A03D378C9CE
:1002D000103A78C0FBD2530701D318C918C001D512
:1002E00008C908C0D20704D30B880380891C801C6E
:1002F000002A01D50B78037070BC704770B40123DD
:10030000C406E40EA340114C2360C4001825254008
:10031000FF26AE40F4438907090EA940002804D502
:100320000B4D0007000F083800E00A4D80088000E0
:10033000281805682C4021430160012A01D1064894
:1003400000E00648036070BC7047000080E200E0F7
:100350001CED00E000E400E000E100E080E100E0EE
:1003600081B00020009000980028FCD001B07047B8
:1003700080B50020C046C04601BD80B50120C04602
:10038000C04601BD80B50220C046C04601BD80B553
:100390000320C046C04601BD80B50020C046C0460F
:1003A00001BD80B50020C046C04601BD80B501201A
:1003B000C046C04601BD80B50020C046C04601BD54
:1003C00080B50120C046C04601BD80B50020C046B2
:1003D000C04601BD80B50120C046C04601BD80B504
:1003E0000020C046C04601BD80B50120C046C046C1
:1003F00001BD80B50020C046C04601BD80B50120CA
:10040000C046C04601BD80B50220C046C04601BD01
:1004100080B50020C046C04601BD80B50020C04662
:10042000C04601BD80B50420C046C04601BD80B5B0
:100430000520C046C04601BD80B50620C046C04666
:1004400001BD80B50020C046C04601BD80B500207A
:1004500000F05BF801BD80B50020C046C04601BD7C
:1004600080B50020C046C04601BD80B50020C04612
:10047000C04601BD80B50020C046C04601BD80B564
:100480000120C046C04601BD80B50020C046C04620
:1004900001BD80B50020C046C04601BD80B500202A
:1004A00000F04CF801BD80B50020C046C04601BD3B
:1004B00010B51F490A680F239A4303781B071B0FC7
:1004C00013430B6042681B4B1A600A6820239A434F
:1004D00043785B012024234013430B6040780028BD
:1004E00004D0012203211620FFF708FF002010BDD1
:1004F00011481E210160E1210160002070470E4873
:100500001E210160E121016070470B4841680A0625
:10051000D20F00D1704780B51E210160E12101603A
:1005200004480068010000D0804701BD00000000C1
:10053000840F004028000020800F0040034800681E
:10054000010000D1704780B5804701BD1C0000202C
:1005500080B50120FFF7B4FD01BDF8B500270026E6
:10056000040058482018FFF75AFE05005648201886
:10057000FFF755FE0090002D21D0F020C0018542EC
:100580001DD2AD085148076012D001272000FFF7A7
:1005900046FE3E4201D04E4900E04E4941404B48A4
:1005A0000068401849490860241D761CAE42EDD30E
:1005B000464800680099884201D10120F2BD002020
:1005C000F2BDF0B5A1B0444C842000022060C020F0
:1005D00000016060F020C001A0604048FFF71FFEEE
:1005E000E06051276D46002600E0E660A068002824
:1005F00033D0802269462068FFF708FEA068802873
:1006000010D174202F549A2075216854E42076214B
:100610006854932077216854802269462068FFF748
:1006200083FD06E0E068002803D18021684600F0E1
:1006300089F8802269466068FFF776FDA0688038F7
:10064000A060606880306060206880302060E06872
:100650008028CAD38038E060C8E721B0F0BD10B56B
:100660001F4C2048FFF7DBFD206020681E498842B0
:1006700007D184200002FFF770FF002801D0FFF7A8
:10068000A0FF10BD10B5C02424012000FFF765FFB6
:10069000002812D11348FFF7C2FD144988420ED139
:1006A00084200002FFF759FF002808D0FFF789FFD8
:1006B0002000FFF752FF002801D0012010BD0020CC
:1006C00010BD0000FC770000F8770000200000203B
:1006D000C353B482762EEA3900000020FCFB0000F0
:1006E00024000020F4FB0000A4F5AB6293E49A51CF
:1006F00080B5C0200001FFF7A0FD01BD094205D073
:10070000830705D00270401C491EF9D170470000D4
:10071000130030B414001500103902D310393CC056
:10072000FCD2490700D30CC000D504C0890002D315
:100730000280801C002900D5027030BC7047000088
:100740000022DBE70022E3E710B5124C20780028F6
:1007500005D002280BD006D3032811D017E0FFF7ED
:10076000F7FE012014E0FFF77AFF022010E0FFF708
:1007700089FF002802D0FFF7BBFF10BD032007E070
:100780006078032805DA401C6070012000E000203A
:10079000207010BD2C000020704700B583B00121EF
:1007A0000F2000F019F80821684600F025F8684687
:1007B0000B21017000214170044801906846FFF749
:1007C00077FEFFF795FE03B000BD0000990700001B
:1007D00080B5FFF794FE01BD012282400548002943
:1007E000016802D00A43026001E0914301600020E9
:1007F0007047000020200040002800D1704780B5DD
:10080000002901D0FFF79CFF01BD70B40121002237
:1008100013E00468001D0C4202D04D466D1E6419A1
:100820002260241D1B1F042BFAD225009E0701D530
:100830002280AD1C0B4000D02A700368001D002BE5
:10084000E7D170BC7047FEE710B50749794418310D
:10085000064C7C44163404E0081D0A688918884751
:100860000100A142F8D110BD0800000014000000F2
:100870009BFFFFFF30000000000000200000000090
:1008800004480022874500D9024403480260034817
:10089000004700000000002008ED00E0FD08000017
:1008A0000120C046002801D0FFF7CEFF0020C0463F
:1008B000C04600F002F800F008F880B500F009F832
:1008C00000F00BF8FFF740FFFAE780B500F00AF8F8
:1008D00001BD80B5FFF761FF01BD80B5FFF778FF6F
:1008E00001BDFEE70746384600F002F8FBE7FEE7E9
:1008F0002021090326311820ABBEF9E7C046C046C7
:10090000C046C046FFF7CCFFFEE700000000000035
:1009100000000000000000000000000000000000D7
:1009200000000000000000000000000000000000C7
:1009300000000000000000000000000000000000B7
:1009400000000000000000000000000000000000A7
:100C0000C00500200D690000072A0000D141000046
:100C100000000000000000000000000000000000D4
:100C20000000000000000000000000009B340000F5
:100C300000000000000000001743000029320000FF
:100C4000E1410000EB410000F5410000FF410000E0
:100C500009420000774200002D3E000013420000D0
:100C60001D42000027420000314200003B420000CC
:100C7000454200004F42000059420000634200001C
:100C80006D420000814200008B420000954200004E
:100C90009F420000A9420000B3420000BD42000094
:100CA000C7420000D1420000DB420000E5420000E4
:100CB000EF420000F9420000034300000D43000032
:100CC000F2B505000024280001D5012445422DB2CB
:100CD000F9208000854200DB451E544E2800642127
:100CE00000F090FC00B2375C009807702800642187
:100CF00000F088FC08000A2100B200F083FC00B27A
:100D0000305C0099487028000A2100F07BFC09B291
:100D1000705C00998870002C01D0402002E03F2FC9
:100D200002D1002000990870F1BD000080B500F0EC
:100D300011FD817BCA071DD501223D4979230B7026
:100D400050234B70394B9B185B1E1B788B7080793E
:100D500040070ED5684600BF10A10B880380012113
:100D60008018401E007801F087F80121262001F04C
:100D700083F801BD02221142DFD12D490022805E9D
:100D8000FFF79EFF0121222001F076F801211F20AC
:100D900001F072F801211E20E9E7000007100000B1
:100DA000D0B582B000F0D6FC0400A07E062805D0A5
:100DB000A07C002838D0E07B022835D1607C312827
:100DC00032DA68461BA10A88028001211C2001F04A
:100DD00053F801216846227C805C01F04DF8E07BED
:100DE000002802D1A07940071ED4104E607C400834
:100DF0000A2100F007FC305C0D4FF8703F2801D14C
:100E00000020F870607C40080A2100F0FBFB705C59
:100E10003871607CC00701D56D2000E03F207871FB
:100E20000121152001F028F8D3BD000000130000B7
:100E300054090020010A10B500F08CFC04000121C7
:100E40000B2001F019F8A079C00702D501210C2070
:100E50000AE0607F800705D5E07C022802D10121ED
:100E6000032001E00121172001F006F810BD10B5A4
:100E700000F070FC0400A079C00703D50121182000
:100E800000F0FAFF607F800709D5E07C022806D1D8
:100E9000A079400703D501210F2000F0EDFF10BD20
:100EA00070B500F057FC040001211A2000F0E4FFA7
:100EB000A0794007C60FE57E0121132000F0DCFF7A
:100EC000022D05D1002E03D00021132000F0D4FF05
:100ED0000121242000F0D0FF0121252000F0CCFFCB
:100EE000A07D002802D10121122001E0012108206B
:100EF00000F0C2FF70BD10B500F02CFC04003220E1
:100F0000205E2E280CDB01210D2000F0B5FFA0791A
:100F1000C10705D5400703D500210D2000F0ACFF27
:100F200010BD70B500F016FC0400FFF7FFFEFFF7E0
:100F300037FFFFF7E0FF01F019FA0500A07940073D
:100F4000C60F01210E2000F097FF042D05D0002EC2
:100F500003D000210E2000F08FFFA07C002809D1D3
:100F60000121012000F088FF25483F21C170712137
:100F70000171417170BD000070B500F0EBFB040021
:100F8000FFF7D4FEA07C002810D11E490220205E6D
:100F9000FFF796FE0121152000F06EFF01210920C8
:100FA00000F06AFF0121162000F066FFFFF7F8FE4F
:100FB000FFF741FFFFF774FFFFF759FF01F0D6F984
:100FC0000500A0794007C60F01210E2000F054FF54
:100FD000042D05D0002E03D000210E2000F04CFF80
:100FE0000121052000F048FFE07D002806D0A0790F
:100FF000000703D50121042000F03EFF70BD000072
:101000005409002057090020B0B584B000F0A2FBBD
:101010000400207A0190622814DA451C28000A2175
:1010200000F0F0FAC0B2009028000A2100F0EAFABD
:10103000B84DB94F0098002801D0385CE870C9B2AB
:10104000785C28710121232000F016FF0025207A0A
:101050000D2832D801A14000095A8F441A00A4007B
:10106000B200C000CE00F2004201580166017401D6
:1010700074011002320260020121002000F0FCFE27
:101080003420205CE179C90723D5220020320128D1
:1010900000D1921C9F490020105EFFF711FE012134
:1010A000222000F0E9FE01211F2000F0E5FE002DC6
:1010B00003D001211E2000F0DFFEA079400706D5F5
:1010C000E079800703D50121252000F0D5FE04B08A
:1010D000B0BDA17B012803D1022001420ED002E065
:1010E000C8070BD501208B4D7921297050216970DB
:1010F00083A10818401E0078A870DEE722000125B1
:10110000C8E70121022000F0B7FE22002432C1E727
:1011100001211D2000F0B0FE22002632BAE7012195
:101120001B2000F0A9FE22002832B3E70121212074
:1011300000F0A2FE0121012000F09EFE607FC007AA
:1011400000D49CE0734D3F20287037206870B4E7CE
:101150000121112000F090FE0121072000F08CFEFB
:101160000121102000F088FE0121192000F084FEEA
:10117000A0794007ABD53420205C002803D002289A
:1011800007D003D399E70021072094E7002110201E
:1011900091E70021072000F06FFE002119208AE767
:1011A0000121192000F068FE0121272000F064FED3
:1011B000220030326EE70121122000F05DFE220095
:1011C0002A3267E70121082000F056FE22002C3267
:1011D00060E702A849A10A8802800121202000F0CE
:1011E0004BFE0121032000F047FE0198092800DA98
:1011F00063E7012102A8019A80180938007800F0FD
:101200003BFE20002E300090607F800737D501988C
:101210000A2802D10098401C009000980078F1281C
:1012200000DB4AE736A73B4D642100F0EBF9385C60
:10123000287000980078642100F0E4F908000A2181
:1012400000F0E0F9385C6870009800780A2100F03E
:10125000D9F9785CA87028783F2800D02DE70020C5
:10126000287068783F2800D027E700206EE701212A
:101270000D2000F001FE3220205E2D2805D1254DE5
:101280003F2028707120687036E72200323201E773
:101290000121282000F0F0FD1E4D00BF18A72000FE
:1012A000343080780A2100F0ADF9385C28702000D5
:1012B000343080780A2100F0A5F9785C46E70121F6
:1012C000142000F0D9FD607A010007D1A079400711
:1012D00000D4FCE640200F490870EEE60128F9D062
:1012E000022803D140200B4D28702FE7032800D09F
:1012F000E3E64020074D28706870FDE6060F000009
:101300003F065B4F666D7D077F6F00406138377722
:1013100000000000540900200013000010B500F088
:1013200019FA0400012000F0BDFD607F400757D589
:101330000021232000F0A0FD0021002000F09CFDF2
:101340000021022000F098FD00211D2000F094FDF6
:1013500000211B2000F090FD0021212000F08CFDD9
:101360000021012000F088FD0021112000F084FD03
:101370000021072000F080FD0021102000F07CFDFE
:101380000021192000F078FD0021202000F074FDDC
:101390000021062000F070FD00210F2000F06CFD00
:1013A0000021142000F068FD00211C2000F064FDE5
:1013B00000210A2000F060FD0021272000F05CFDE4
:1013C0000021282000F058FD0021262000F054FDC7
:1013D00000210D2000F050FD0021162000F04CFDF2
:1013E00010BD000030B587B000F0B4F9817A0A0072
:1013F0000DD1724939200870092048700F2088707B
:101400000420C8705E2008713820487123E001294B
:1014100010D16A4939220A7009224A700F228A7053
:101420008079400717D55E20C87079200871382070
:10143000487110E0042913D1604900220A703F224C
:101440004A7037228A703823CB7004230B714A719B
:10145000407B00286AD001210E2000F00DFD65E0E0
:10146000022912D103A900BF55A238CA38C1694662
:1014700056A238CA38C1C17A03AA525C4F4B6C4697
:10148000615C5918491E0A7008E0032906D14B49CE
:1014900071220A7077224A7038228A708079400758
:1014A00003D501210E2000F0E7FC00F05FFF0028CB
:1014B0000CD0012811D0022816D003281BD00428F4
:1014C00020D0052824D0FF2829D02FE03B496D20CB
:1014D000C87077200871502027E038497720C870FD
:1014E00073200871002020E034493720C8703F2065
:1014F0000871312019E031493920C8703F20087146
:10150000792012E02D493920C8703F220A710CE081
:101510002A493820C8703F200871732005E0274908
:101520003E20C870702008713720487107B030BD68
:1015300038B500F00FF9050000F09AFCA879810792
:101540003BD5FD210140A9711C4C0721200000F072
:10155000D3FF002000F0A6FCA87E062828D801A111
:10156000095C8F4446403A201A14060001211620D7
:1015700000F082FCFFF714FC1AE0FFF733FF17E0DE
:10158000FFF7CCFE14E05B2020704F206070042039
:10159000A0700620E0703F2020716620607107E097
:1015A000FFF732FD04E0FFF7E7FC01E0FFF7B9FCCD
:1015B000200000F0ADFB00F083FB31BD540900209A
:1015C00001010102040808081020000001020303C1
:1015D0000303020101010000F446002804D449423B
:1015E00000F013F8404260474042002905D45FD024
:1015F00000F00BF8404249426047494200F005F8CC
:101600004942604703460B43E6D40022030A8B425B
:101610000BD203098B4219D243088B422ED2411AB6
:1016200000D20146524110467047FF2209023FD0C6
:1016300012068B4205D3121209028B4201D31212F9
:10164000090203098B4219D300E0090AC3098B423E
:1016500001D3CB01C01A524183098B4201D38B01C4
:10166000C01A524143098B4201D34B01C01A524167
:1016700003098B4201D30B01C01A5241C3088B42AC
:1016800001D3CB00C01A524183088B4201D38B0097
:10169000C01A524143088B4201D34B00C01A524139
:1016A000884200D3401A5241CFD2014610467047BB
:1016B00008B5C046C04608BDF0B49E4A13001633B4
:1016C00000201979072900DB187118800121997110
:1016D000D979FC240C40DC71DC211981AF24640031
:1016E000DC8164241C820A245C829982A024DC822E
:1016F00005241C765C76D22464005C832D249C83B4
:10170000D883363210700223537006239370D07042
:10171000C823938008249471D071962515810B26D7
:1017200096721E26D67295810C279773D073AA27BE
:10173000178211279774D074918216219175D675EE
:1017400015839476D076938317219177D07715847B
:10175000F0BC7047A1487047A14870477548C17EEA
:10176000427FD20704D4827E130001D0022A02D124
:10177000002181760AE09B4A00231370FA239B0024
:10178000538004228276022900D10121C17670475C
:10179000F0B504000020205E934D04E0F0B5040095
:1017A0000020205E914D0021695E0E00814210DA1A
:1017B000871B3FB238000A21FFF724FF09B2781ACD
:1017C000042904DB092901DB0A3000E0401D36183A
:1017D00012E0884210DA371A3FB238000A21FFF7C8
:1017E00011FF09B2781A00B2361A042904DB09295C
:1017F00001DB0A3E00E0761F2E8028882080F0BDA5
:1018000070B5002000F0BEFE0400012000F0BAFE1A
:10181000060000F0B4FE474D3421695C002903D076
:1018200002291BD00DD332E09349C00702D5012015
:101830000A0002E0288C22180020A8732A80A980C0
:1018400025E00221084201D08B4802E0688C301864
:101850000021A97328802888A88018E0032802D1D5
:101860008549298011E0C10701D583490AE0810734
:1018700004D5298C611829807F4906E0002805D10C
:10188000298C61182980698C7118A980A87300209F
:10189000285E0100F9229200904201DB511E04E013
:1018A0005E22D243904200DA114629802800FFF7D9
:1018B0006FFF281DFFF772FF70BD0023D35E9842B3
:1018C00003DB1800884200DA08001080704738B542
:1018D000424CE07D002802D0012802D007E0E08BD6
:1018E00004E000F075FF80002018408F6080262003
:1018F000205E2421615E0B000225655FAB4203DBA5
:101900002B00834200DA030063800B002A25655F09
:10191000AB4203DB2B00834200DA030063852C22F9
:10192000A25E914203DB1100814200DA0100A18531
:1019300031BD00000000002010B500F0D1FF724C56
:101940006188401A80B2FA214900884226DB00F003
:10195000C7FF60802148817912220A438271C17ACF
:10196000491CC9B20A2900DB0021C1722178491C37
:10197000C9B2022908DB0021130702D5F72313405F
:1019800001E0082313438371217081794A0702D54E
:10199000FB220A4001E004220A43827110BD10B507
:1019A0000E488179CA0607D5EF220A408271FFF7F7
:1019B00027FFFFF78CFF10BD827EA34B1C7894425B
:1019C00003D01A7012220A43827110BDA84A800007
:1019D00010180022027041807047000000000020B3
:1019E0001A00002030080020A4010020A6010020D9
:1019F00070B500249F4D9E4E3078002804D034707E
:101A0000287A002800D0AC763079002814D03471C0
:101A1000687F400710D4287A00280DD1287E401C0A
:101A20002876C0B20A2805DB687F04210143697764
:101A3000FFF742FE9C48F080307A002812D03472C2
:101A4000287A010004D1E879FE210140E97109E01A
:101A50000D2807D1687A032804DA401C6872FA203E
:101A600040007081307F002804D03477E87902216B
:101A70000143E97170BD0000E303000070B500246C
:101A80007C4D7B4E3078002812D03470A87A022822
:101A900004D1864870800320A87205E0012805D192
:101AA0000220A8728048708074841BE00120A87610
:101AB000A87A012811D1348400F058FC04280AD0F7
:101AC000708C401C708480B20B281CDB0220A87232
:101AD000347075487080748470BD7484022801D09D
:101AE000032810D1308C401C308480B20B280ADBD4
:101AF00000F03CFC042806D134706D48708004204E
:101B0000A8720120687370BD680900205948817E61
:101B1000491E052900D9704710B501A2525C9744AF
:101B200004646A7A929852490A7C002A06D00022FC
:101B30000A74C27E022A01D10122C276C27B022A25
:101B40000CD10A7B002A0BD000220A73594ACA81A1
:101B5000827C531E9B41DB0F837401E00022827460
:101B6000C27C002A48D00A7D002A45D000220A758E
:101B7000437D002B02D042754F4802E0012242759E
:101B80004C48C88210BDFFF733FF10BD38490A78B2
:101B9000002A31D000220A70012109E034490A7874
:101BA000002A29D000220A70FA2292004A800321DA
:101BB000817610BDFFF762FF10BD2D490A78002A1B
:101BC00011D000220A70437C002B04D00223C3737F
:101BD0000A73384BCB810123047C002C01D183761E
:101BE00001E0827683740A7B002A05D000220A7302
:101BF000C17B012900D1C27310BD38B500F070FE61
:101C00001B4A918C884201DB411A01E0431E591A9C
:101C100089B2002914D09084901C082201230488E2
:101C200025000AD08C4204DB641A0480240404D109
:101C300001E000240480841E2370001D521EEED19A
:101C4000FFF764FF31BD00008E0900200948817E46
:101C5000002904D1C17E002901D00021C176C17BB9
:101C6000002904D1817C002901D0002181747047B2
:101C7000300800200000002010B500F031FE0F4CAD
:101C80002188401A608080B2322804DB00F028FEF0
:101C9000208000F080FCFFF782FEFFF7AEFFFFF729
:101CA0004BFEFFF7D3FF10BD60EA00003075000067
:101CB000B80B00008813000050C300006409002026
:101CC00080B51021874800F04BFF01BD10B4049C83
:101CD00020706170A270E3700198207102986071A9
:101CE0000398A07110BC7047E0B4002301259D400B
:101CF000284206D07B4D0E78AD192E7817783743E1
:101D00002F705B1C521C491C072BEFDBE0BC70479B
:101D1000F0B589B0070004A80390072002900B20BB
:101D2000019007200090032303220B210F20FFF7CF
:101D3000CDFF06A80390102002900820019000908B
:101D4000082310221021FFF7C1FF06AA04A9387842
:101D5000FFF7CAFF04A80390072002900B20019010
:101D600007200090032303220B210F20FFF7AEFF73
:101D700006A803904020029020200190009020238C
:101D800040224021FFF7A2FF06AA04A97878FFF7B6
:101D9000ABFF04A80390062002900B2001900720BF
:101DA0000090032302220A210F20FFF78FFF06A8CD
:101DB0000390012002908020019000908023012256
:101DC0000121FFF783FF06AA04A9B878FFF78CFF6B
:101DD00004A803900A200290062001900A20009097
:101DE0000E230E2206210220FFF770FF102006AC02
:101DF000207020216170A170E07020716071A1716C
:101E000006AA04A9F878FFF76FFF022604AD2E702A
:101E1000062068700E21A970E9700A212971687185
:101E2000A9714020207080216170A170E070207144
:101E30006071A17106AA04A93879FFF755FF012046
:101E40002870052169700D22AA70EA7009222A7192
:101E50006971AA7120706670A670E070207160715F
:101E6000A67106AA04A97879FFF73EFF09B0F0BD74
:101E700080B500F037FE01BD292812DA1AA2400011
:101E80001018184A0378D318002905D00178515C3E
:101E90004078084318707047197843789943007860
:101EA0001154704730B40100002400200D4A0D0089
:101EB00000D0FF201070641C0D0000D0FF20507077
:101EC000641C0D0000D0FF209070641C0D0000D039
:101ED000FF20D070641C121DE4B2102CE7DB30BC74
:101EE000704700002409002009080D080A080608A8
:101EF0000E040A02030405100B0109040D10060468
:101F0000020802200602070405080B02070103026B
:101F1000010402800102020402020B040F010910F5
:101F20000D040E080F100E01011001080F400E02E3
:101F3000070203010F020F0405040000302806D039
:101F400048D3322825D013D3332833D07047080024
:101F500006D0914813780370521C401C491EF9D1D9
:101F60008E480178FE220A40022111430170704719
:101F7000080006D08A4813780370521C401C491E82
:101F8000F9D186488179FE220A40022111438171EC
:101F90007047080006D0834813780370521C401C19
:101FA000491EF9D17D48017BFE220A4002211143DE
:101FB00001737047080006D07B4813780370521CE9
:101FC000401C491EF9D17548817CFE220A4002213D
:101FD00011438174704710B4002330286E4C0DD02B
:101FE0003FD332286F4C25D06D4C15D333286E4C1F
:101FF0002ED036E0D05CE0545B1CDBB28B42F9DBC8
:1020000066480178FD220A4001211143017028E051
:10201000D05CE0545B1CDBB28B42F9DB5F4881791A
:10202000FD220A400121114381711AE0D05CE05485
:102030005B1CDBB28B42F9DB5848017BFD220A4076
:102040000121114301730CE0D05CE0545B1CDBB256
:102050008B42F9DB5148817CFD220A40012111436A
:10206000817410BC704703000020303B012B04D961
:102070009B1E12D05B1E20D07047474800D14848B5
:102080000B2203780B7043784B7083788B70C01CE5
:10209000C91C521EF5D12120704742480622037800
:1020A0000B7043784B7083788B70C378CB70001DB6
:1020B000091D521EF3D1182070473B4806220378B1
:1020C0000B7043784B7083788B70C01CC91C521EF8
:1020D000F5D1122070470000F0B583B0AD4C172544
:1020E00032A700BF33A62079800750D50020217881
:1020F00003290ED91039072916D91039052921D9F4
:1021000010392DD0491E2FD0491E31D0491E33D051
:1021100037E002A829A10A6802606188C9B2227862
:10212000805C00F0A2FD2CE0684606CF06C0083FA8
:10213000618809B26846227880181038007800F06B
:10214000B4FD1EE0684606CE06C0083E6188C9B2EE
:102150006846227880182038007800F0CDFD10E025
:1021600021220D496A200AE021220D496B2006E058
:1021700018220C496C2002E012220B496D2000F05D
:1021800056FD012803D12079FD2101402171A41DB4
:102190006D1EA8D103B0F0BD60080020D40000205F
:1021A00084080020E0080020100900201013181AED
:1021B0001B65666902031F242B4000000127676826
:1021C00030B583B0B54CA07A00280ED003E0684645
:1021D000007900F0B9FD01A800F03EFE0028F6D11C
:1021E00000F0CEFDFFF778FF16E00120A07200F0AE
:1021F00019FE00F035FE0F2120000C3000F0C2FB6C
:1022000003212000143000F0BDFB032120001C300E
:1022100000F0B8FB0020207000F0FAFC227A824225
:1022200009D02072042806D101206072022120000A
:102230001C3000F0A7FB20000C3000F054FB200005
:102240000C3000F0A6FB002809D000F01DFE00F0C5
:102250000FFE9621490020000C3000F093FB200077
:10226000143000F040FB2000143000F092FB0028F6
:102270000BD0207A042801D0022100E00A2120009E
:10228000143000F07FFB00F0CCFC20001C3000F08C
:102290002AFB20001C3000F07CFB002806D02821FF
:1022A00020001C3000F06EFB00F0B5FC2000243054
:1022B00000F019FB2000243000F06BFB002813D045
:1022C0000025657278212000243000F05BFB00F0CF
:1022D000D3FD0095724802E00099491C00910099D5
:1022E0008142F9D300F0CCFD03B030BD10B504003D
:1022F000200000F0B9FD0028FAD010BD80B500F034
:10230000C3FD00F0B5FD96214900664800F03AFB98
:1023100001BDD0B506000F00604C782120002430AC
:1023200000F030FBC0C4083C01206072207A042811
:1023300002D10020E072D0BDE07A401CE072C0B251
:102340000A2807D0142805D01E2803D0362806D125
:102350001838E07200212000243000F013FBD0BDBB
:1023600080B54E49052200F09DFD01BD4B48007A25
:10237000704710B5040000F03EFC601E8041C04371
:10238000C00F464A107202211000143000F0FAFA11
:1023900010BD000064000020E0B40200FD23424DA7
:1023A0002E78B04205D1698028791840012606436D
:1023B0002E7101200A352F1F3F78BA4206D1AE1E7A
:1023C00031802E781E40012737432F70401CAF7894
:1023D000BA4205D1A980AE791E4001273743AF71BB
:1023E000401C0C351728E6DBE0BC704770B4FE22B9
:1023F0002D4B1D78A84205D159801C791440022527
:1024000025431D7101240A331E1F3678B04206D1C0
:102410009D1E29801D78154002262E431E70641CC7
:102420009E78B04205D199809D79154002262E43B1
:102430009E71641C0C33172CE6DB70BC704730B403
:102440000023194A1479E40709D4012314000A343B
:102450002578ED0703D45B1CA579ED070DD55C004D
:10246000E3185B00D2181378037050880880107945
:10247000FE2101401171012004E05B1C0C34172B7C
:10248000E6DB002030BC7047012008490870704727
:102490000649087800220A7070470000F00000200A
:1024A000C4090000FC000020640000209109002005
:1024B000094205D0830705D00270401C491EF9D19E
:1024C00070470000130030B414001500103902D317
:1024D00010393CC0FCD2490700D30CC000D504C061
:1024E000890002D30280801C002900D5027030BC14
:1024F000704700000022DBE70022E3E7F8B5002781
:102500000024012902D100BF7AA100E042A10A887B
:10251000824202D25E20C0432FE0DA23CB5A984297
:1025200001D23B4829E06300CB5A984202D2641C96
:102530006D2CF8DB002C1BD0620089188A1E1288D3
:102540000988401A83001D186D00561A28003100B2
:10255000FFF758F80700F00F80194010009028008E
:102560003100FFF74FF889B20098884200DA7F1CEB
:102570000A3CA00000194000C01B00B2F2BD224876
:10258000807870470100022904DA1F48490040188A
:102590000421405E704738B51B4C2078002802D0DB
:1025A000012805D031BD00F0C4FC0120207031BDF0
:1025B0002000083000F023FD002824D0A1782089D5
:1025C000124D02001E3AAA4204D301200843A07013
:1025D000104805E0FE220A40A2700021FFF78EFF9E
:1025E000A080A178608902001E3AAA4204D302208A
:1025F0000843A070074805E0FD220A40A2706178F8
:10260000FFF77CFFE08031BD38010020B50F0000EE
:10261000E3030000E7030000F20CD50CB70C990CA3
:102620007A0C5A0C3A0C1A0CF80BD70BB40B920B11
:102630006F0B4B0B270B020BDD0AB80A920A6D0ACF
:10264000460A200AF909D309AC0985095E09370948
:102650000F09E808C1089A0873084D082608000801
:10266000D907B3078D07680743071E07F906D50684
:10267000B2068E066B06470627060506E405C30567
:10268000A30583056305450527050905EB04CF046C
:10269000B30497047C04620448042E041504FD036B
:1026A000E503CD03B6039F03890373035E034A0367
:1026B000360322030F03FC02EA02D802C602B50267
:1026C000A5029502850275026602570249023B0285
:1026D0002E02200213020602FA01EF01E301D701E4
:1026E000CC01C101B701AC01A20199018F018501A3
:1026F0007D017401E90BBC0B8E0B600B310B010BE0
:10270000D00A9F0A6D0A3B0A080AD509A2096F0977
:102710003C090809D508A2086E083C080908D70733
:10272000A507730742071207E206B3068506570698
:102730002A06FE05D305A8057E0555052D050605C7
:10274000E004BB049604730450042E040D04ED034E
:10275000CE03B003930376035A033F0325030C0310
:10276000F302DB02C402AE02980283026F025B0234
:1027700048023602240213020202F201E301D301ED
:10278000C501B701A9019C018F01830177016C018B
:10279000600156014B01410138012E0125011C0148
:1027A00014010C010401FC00F500ED00E700E0005D
:1027B000D900D300CD00C700C100BC00B700B200F3
:1027C000AD00A800A3009F009A00960092008E0022
:1027D0002F480178072901DB072101700078704735
:1027E000F0B4002314000FD005782D02467835434D
:1027F0000E7836024F783E43B54203D35B1C091D69
:102800009342F1DB002B01D1501E00E0581EC0B2F4
:10281000F0BC704710B5012A0CD883781C0003D097
:10282000062B07D1002A05D102221831FFF7D8FF65
:10283000801D02E00622FFF7D3FF1549087010BD86
:1028400010B500F04DF8FA21890088421EDBFEF732
:1028500081FF040000F0C4FC3721625C21003831A4
:10286000FFF7D8FF20001730C178094A1378547851
:102870009C4205D053700378022B01D101230370D1
:1028800093788B4202D091700021017010BD00003E
:10289000BA01002070B500F0A9FC4E490A78821AEE
:1028A00008704B880C890025FA20800013E0521E26
:1028B0005B1C641CA4B284420DDB00248E88761C51
:1028C0008E804E78761C4E70F6B23C2E03DB4D7037
:1028D000CE88761CCE801606E9D10C814B8070BD67
:1028E0003C4840887047F8B5040000F07FFC394947
:1028F0000A78821A08704D880E890020FA239B00FE
:1029000013E0521E6D1C761CB6B29E420DDB0026F3
:102910008F887F1C8F804F787F1C4F70FFB23C2FB9
:1029200003DB4870CF887F1CCF801706E9D10E816A
:102930004D802278100009D18988A088081AA180CA
:10294000110008D180B204280EDB09E0012A01D170
:10295000C988F2E7FEE7012A06D180B2032803DB2B
:10296000002060800AE04018010409D0628811004C
:1029700004D01949521862801204F4D10120F2BD2A
:102980000020F2BD38B505000C00FFF7ACFF6C80ED
:1029900031BD2FE010B50400FFF77CFF0D484188E2
:1029A000A088081AA18080B20C49884203DB00206D
:1029B00060800AE04018010409D06288110004D048
:1029C0000549521862801204F4D1012010BD002084
:1029D00010BD000056080020FFFF0000D1070000D6
:1029E00038B505000C00FFF7D5FF012028706C807A
:1029F00031BD00BF4188481E8041C00F704780B57F
:102A000000F0F7FB01BDFEE780B50921002000F0D2
:102A10007DFC0A21002000F079FC0B21002000F051
:102A200075FC0C21002000F071FC0821002000F052
:102A30006DFC0921802000F069FC0821802000F055
:102A400065FC0721802000F061FC0621802000F059
:102A50005DFC0F21402000F059FC0E21402000F0C9
:102A600055FC0D21402000F051FC0C21402000F0CD
:102A70004DFC0B21402000F049FC0A21402000F0D1
:102A800045FC0221402000F041FC0121402000F0E3
:102A90003DFC0021402000F039FC0521802000F0A1
:102AA00035FC0421802000F031FC0721002000F0DB
:102AB0002DFC0621002000F029FC0521002000F05B
:102AC00025FC0421002000F021FC0321002000F05F
:102AD0001DFC1F49002000F055FC1E49012000F09C
:102AE00051FC01BD00B583B00821684600F0CCFC64
:102AF0000121022000F0D2FC002000F067FE01213D
:102B0000162000F07DFE01211C2000F079FEFFF769
:102B10007BFF68460121417100218170062202700D
:102B2000817103214170C170022101710A4801685D
:102B30000A4A0A40C021890111430160684600F039
:102B400033FC0121002000F003FC03B000BD0000B5
:102B50000000E0FFFFF0FFFF005C0040FF0FFFFF01
:102B600070B500248E08012E15DB050001E0082C4D
:102B70000CDA28780002697801430802A978014339
:102B80000802E9780143200000F004FC641C2D1DBC
:102B9000E4B2B442EBDB70BD01000020002902D199
:102BA0007047491C401C0A78002AFAD1704730B49B
:102BB000002801D0002901D100201AE0814202D270
:102BC0008C18844209D2130013D003000C781C70B7
:102BD000491C5B1C521E0CD0F8E7684B07E08C18B0
:102BE000641E247885186D1E2C70D21892B2002AAB
:102BF000F5D130BC704780B500218F4A11700100BB
:102C0000002000F01BFEC1B2052000F033FE01BD24
:102C10008A480078704780B500211C2000F02AFE09
:102C200001BD80B500212B2000F024FE01BD38B588
:102C30000C00150082490978012914D001000020F8
:102C400000F0FCFD002100F0F9FD290A00F0F6FD7E
:102C5000E9B200F0F3FD2A00210000F0F5FD0100CB
:102C6000072000F007FE012032BD10B50C007449AA
:102C70000978012917D00100002000F0DFFD0121B3
:102C800000F0DCFD002100F0D9FD012100F0D6FDAF
:102C9000002C01D1002100E0012100F0CFFD010056
:102CA000072000F0E7FD012010BD10B50C006449BD
:102CB000097801291ED00100002000F0BFFD02218B
:102CC00000F0BCFD002100F0B9FD042100F0B6FDCC
:102CD000210E00F0B3FD2102090E00F0AFFD21042A
:102CE000090E00F0ABFDE1B200F0A8FD01000720E5
:102CF00000F0C0FD012010BD10B50C00504909784E
:102D0000012913D00100002000F098FD042100F0FB
:102D100095FD002100F092FD012100F08FFD2100C2
:102D200000F08CFD0100072000F0A4FD012010BD83
:102D300000BF0178090242780A43110282780A43EF
:102D40001102C0780843704730B43E490B683E4CCE
:102D50002468E51A012D0CD09C4202D21C1B872C42
:102D600007D23A4C25008735AB4200D323001870B8
:102D70005B1C0B6030BC704700000000FFFF0000D0
:102D8000F8B50024324D334F05E03E88701C388082
:102D900000F043FFA8553888FF213431884203D220
:102DA00000F032FF0028F0D13888072802DAF1BDA0
:102DB000641CA4B239880A1B072A2ADB2819037865
:102DC000552BF5D14378AA2BF2D18378002B01D073
:102DD000A41CEEE703791B0246799E19F61DB6B2D4
:102DE000FF233C339E4201D3E41CE2E7B24210DBF6
:102DF000711E89B200F033FDA1196918491E0978C6
:102E0000884201D0E41CD4E7200000F057FDA4194B
:102E1000CFE73A80100404D092B229192800FFF7B6
:102E2000C6FEF1BD09480749086007490860FF2050
:102E30000249087070470000F6060020F7060020DF
:102E4000F4060020000700200407002008070020E7
:102E5000C00500208C09002080B500F09AFF02BD5B
:102E600080B500F090FF01BD80B500F0BEFF02BD4F
:102E700080B5C046C04601BD80B500F005FF01BD6C
:102E800080B500F007FF01BD0148006870470000F1
:102E90007809002080B5C046C04601BD80B500F06D
:102EA000F5FF01BD124207D08B0706D00B78491CF5
:102EB0000370401C521EF7D87047830706D00B786A
:102EC000491C0370401C521EF9D1704770B4103A6F
:102ED00003D378C9103A78C0FBD2530701D318C97D
:102EE00018C001D508C908C0D20704D30B880380D5
:102EF000891C801C002A01D50B78037070BC7047B8
:102F000010B55D4C002120000C3001F017F90121B3
:102F100020000E3001F012F902212000103001F0E3
:102F20000DF903212000123001F008F90120207171
:102F300010BD10B58EB00521684600F0A5FA062137
:102F400002A800F0A1FA182108A800F09DFA0621B5
:102F50004A4800F099FA052106A800F095FA0521E3
:102F600004A800F091FA01211C2000F049FC002186
:102F7000802000F0CBF90121802000F0C7F9012169
:102F8000102000F03DFC002837D101F06EF801243C
:102F90003B4801682143016068460470002141708C
:102FA000022282700322C270017101F019F80A2115
:102FB000002001F08FF80B21012001F08BF80A218D
:102FC000022001F087F80B21032001F083F8012291
:102FD0000321182001F0CAF800F0FEFF68460472D1
:102FE0002848089008A902A800F0C5FF0022042183
:102FF000684601F043F801F036F80EB010BDF0B5A8
:1030000083B0002100241C4A1379012B30D11171A7
:1030100013000C336D46C0CBC0C56B46958A1E8825
:103020009F88F619AD199582D58A5E88AD19DB881F
:10303000EB1815786D1C1570EDB2082D15DB1470AA
:10304000958A0F240F262E402D09082E00DB6D1CBB
:1030500095821D042D0D1C40082C00DB6D1C938AED
:1030600003804580918200230124D38200F0FBFF7E
:10307000200003B0F0BD0000F8080020FC0800208C
:1030800000240040012F000010B5FFF729FC554C2B
:10309000E188401A80B2FA21890088421FDBFFF7DD
:1030A0001FFCE080E078401CE070C0B23C2816DBDA
:1030B0000020E0706178491C6170C9B23C290EDBC8
:1030C00060702178491C2170C9B2182907DB207073
:1030D000A178491CA170C9B2072900DBA07010BDFE
:1030E0001CB5FFF7FDFB3F4C2189401A80B23E49D9
:1030F00088421FDBFFF7F4FB20816079801C607140
:10310000C0B21E2816DBFFF731F9042812D1684639
:10311000FFF726F96846007801280BD16846007948
:10312000E070684680782070684640786070684635
:10313000C078A07013BD1CB52A4C2079002805D09A
:10314000022824D008D303283CD013BDFFF70EF982
:1031500004283CD1012015E06846FFF701F96846D4
:10316000007801280DD168460079E07068468078C3
:1031700020706846407860706846C078A070022071
:1031800000E000202071FFF7ABFB608113BD6846B3
:10319000FFF7E6F868460078012808D1684680788D
:1031A000217881420BD16178814210D007E0FFF78E
:1031B00097FB6189401A80B20B49884207DB0320E4
:1031C000207113BDFFF760FF2000FFF789FF13BDDB
:1031D00004480079032801D101207047002070477E
:1031E000004870475800002060EA0000114800784D
:1031F000704780B500F0CFF9FA218900FEF705FA93
:10320000401E8021490488420DD20B4948600B487A
:1032100002681202120AC0231B0613430360002037
:1032200088600720086001BD02480178491C0170D0
:10323000704700009209002010E000E020ED00E05F
:1032400070B4374BC51801238B40DC432E682640F1
:103250002E60002589004118324E89190D603249CF
:1032600041181578012D0D6801D11D4300E025405E
:103270000D602E4941185578002D0D6801D125406B
:1032800000E01D430D602A4941182A4D45199678E2
:10329000012E02D12E681E4308E0022E2E6804D1B2
:1032A00026402E600D681D4303E026402E600D6809
:1032B00025400D6020494018D1780029016802D1CD
:1032C0000C40046001E00B4303601C4801681C4B88
:1032D0000B401179C9038022120211401943016089
:1032E000002070BC7047174AFFE780180268CA4088
:1032F000D007C00F7047144A00E0144A80180268D3
:1033000001238B401343036000207047044AF5E714
:1033100089004018034940180260002070470000EF
:103320000C0D0240000C0240000D02401C0D02403A
:10333000240D0240200D02402C0D0240080F0240D7
:10334000FF7FFFFF040D0240100D0240140D0240EC
:10335000002802D001280AD012E045480268012363
:103360009A43CB07DB0F13430360002070474048AC
:10337000426840239A438901194011434160F4E7B0
:10338000042070473E4A002801D1116000E05160DE
:1033900000207047102801DB04207047FFE7394AFE
:1033A000800011500020704710B502783049022A81
:1033B00003D9131F01D09B1E08D10B682D4C1C4054
:1033C0005202E0231B01134023430B604278032A7F
:1033D00003D9531F01D09B1E08D10B68264C1C40FB
:1033E0009201E0235B00134023430B608278012AA3
:1033F00006D80B682024A343520122401A430A60D6
:10340000C278032A06D80B681824A343D2001440BC
:103410001C430C600279032A06D80B680624A343D8
:10342000520014401C430C604279012A07D84B68B3
:10343000124C1C4012028B0D1A4022434A604A680B
:1034400080239A438379DB018024234013434B601C
:10345000C079002805D048684A0D02434A6001221D
:1034600000E0002203211D2000F080FE002010BD9E
:10347000005C0040FFF1FFFF3FFEFFFFFFFEFFFF8C
:103480000C5C0040405C0040002800D1704780B5D3
:10349000002901D0FFF72EF801BDFEE770B402004D
:1034A00000207A4B7A4C9C607A4C9C600C0000D0D7
:1034B0000121002A06D0022A26D00FD3042A48D0A0
:1034C00030D354E01A680124A2430A431A60002949
:1034D0004ED0D968C90A21404AD1FAE76E4C012280
:1034E000256C15432564256C02262E4326641C6832
:1034F0000225AC434D0025431D60002938D01969D1
:103500008909114034D1FAE71A680424A2438C00D7
:1035100014431C60012200292AD05969090B11406B
:1035200026D1FAE75C4C22681D0C15432560226801
:10353000DD0B154325601A680824A243CC00144310
:103540001C600122002913D09969890911400FD10B
:10355000FAE71A681024A2430C0114431C600122EC
:10356000002905D0D96B890C114001D1FAE704205C
:1035700070BC704780B54549454A8A60454A8A60B3
:103580000A68E0239A434001034013430B6000F0B4
:10359000C3FE002002BDF8B40020854D29886A884A
:1035A000AB88EC886E462D8C3580384E3768072501
:1035B0007F092F4006D0022F24D021D3042F2DD0F5
:1035C0002AD353E0F0684005400D884201D1794884
:1035D0004CE0F0684005400D904201D1764845E04E
:1035E000F0684005400D984201D174483EE0F06813
:1035F0004005400DA04201D1714837E0714835E0E7
:10360000714833E06846008871698905890D8842F0
:1036100002D19620000229E0F00B27E0F06B800732
:10362000800F03281DD1F0684005400D814201D173
:10363000604817E0F0684005400D824201D15E48C5
:1036400010E0F0684005400D834201D15B4809E07D
:10365000F0684005400D844201D1594802E05948C4
:1036600000E05948F16BC905090F48433168090A60
:103670000D40E840F2BC704780B5FFF78CFF5F4912
:103680000968C904890FC84002BD0000002000403D
:103690005A5A0000A5A500008C0D0240F8B507009D
:1036A000002069460870387800282ED002280ED0F5
:1036B00003D3042820D011D325E0504C20690321E6
:1036C0000143216120693021014321611DE04B4C00
:1036D0006069C02109010143616116E0474CA0699E
:1036E0000C210143A161A06903210143A161A069EB
:1036F00030210143A16108E0404CE06BE0218902E8
:103700000143E16301E00420087001213878FFF7EC
:10371000C5FE3978394C414DA560414EA660206800
:10372000E022904349010A400243226000F0F4FD88
:103730007978A560A66022683A4810400902E02224
:10374000D2000A4002432260B878A560A6602168D2
:10375000354A0A40C002C02149010140114321609D
:1037600068460078F2BD000001000020002906D064
:1037700002290AD006D304290DD009D316E00C493A
:103780000A890AE00A49CA8807E009498A8804E0E8
:1037900007494A8801E006490A8824490B68DB0A80
:1037A000DB025205520D1A430A607047042070472D
:1037B000000C100000366E01408651010024F40018
:1037C00000127A0000093D000048E80101000020D5
:1037D000002902D0012903D00DE015494A8801E0F3
:1037E00013490A8813490B689B0A9B029205920DA4
:1037F0001A430A6070470420704700000020004010
:10380000012282400C480029016802D00A4302606C
:1038100001E0914301600020704700005A5A000007
:10382000A5A50000FFF8FFFFFFE7FFFF0C20004009
:10383000200C100014200040202000401E4A1218C6
:103840009171401C80B2704738B5040015001A48C9
:103850000019801DFFF7ABF9601980B232BD02007C
:1038600000200B0005D01378C018C0B2521C491EAE
:10387000F9D1704738B5104D55222A70AA226A70C6
:103880000322AA70E870080A28716971CC1D611EB4
:1038900089B22800FFF7E3FFA4B22919491E087076
:1038A000200007D0FEF72AFD287800F04DFD6D1CA2
:1038B000641EF9D131BD0000D0070020F1B586B0FB
:1038C000D04D6846008B2C18E078002823D00128C2
:1038D00030D0022800D17BE0032800D1A1E00428E9
:1038E00000D1A8E0052800D1ABE0062800D1AEE069
:1038F000082800D1FDE00A2800D1FDE00B2800D106
:1039000010E10E2800D172E11C2800D16BE12B28B8
:1039100000D171E173E19A2040002D18C84C0120BC
:103920002979002902D1A171287100E0A07101213B
:1039300000207DE0C7A52800FFF72EF90600C04C47
:10394000B2B22900A01DFFF732F900BFC3A52800BD
:10395000FFF722F982B22900F0B2FFF775FF0600E7
:10396000C3A52800FFF718F982B22900F0B2FFF7CB
:103970006BFF0600C0A52800FFF70EF982B22900F0
:10398000F0B2FFF761FF0600BDA52800FFF704F9BC
:1039900082B22900F0B2FFF757FF0600A9A5280060
:1039A000FFF7FAF882B22900F0B2FFF74DFF0600E8
:1039B000A5A73800FFF7F0F80500F6B2AAB2390063
:1039C000A019801DFFF7F3F87119C9B201202FE08B
:1039D0009B4C55202070AA2060700320A07002200C
:1039E000E07000262671667106212000FFF737FF80
:1039F000A071FEF783FC207800F0A6FC607800F050
:103A0000A3FCA07800F0A0FCE07800F09DFC2079F9
:103A100000F09AFC607900F097FCA07900F094FC2B
:103A2000EDE0A0799A2149006918C87000210320AF
:103A3000FFF720FFE3E001209A2149006918487050
:103A4000DDE001209A21490069188870D7E02079CB
:103A500000026179401880B204900026039621E0AC
:103A6000491C921CC9B20800059B984204DA1378DD
:103A70006F463F78BB42F3D169464978734A4000AC
:103A800010184078814207D1684642880298011D8B
:103A90006846007800F0A8FC039801994018001DC2
:103AA00080B2039003980499884200DBA7E068463F
:103AB000008B039940182818017A0902407A0818E7
:103AC000019003982018801D0290007869460870C4
:103AD0000298407848700298807800020299C9786C
:103AE0004018694648801720C04605900021574A73
:103AF000B8E700F02DFC82E09A2040002D18343801
:103B0000E880A079E179227A0002014308020243A9
:103B10001002617A0143A960002000F03BFC0A20FA
:103B200068716CE09A2040002D1868790A2866D1E7
:103B300001202870207900026179401880B2049039
:103B4000A079E179227A00020143080202431002BF
:103B5000617A0143019120000A300499042909D1B6
:103B60000199AA68914205D1002200F01DFC0021B4
:103B7000697108E0E988049A121F914230DB92B221
:103B8000019900F011FC012827D12D4C55202070FF
:103B9000AA2060700320A0700B20E0700026267120
:103BA000667106212000FFF75AFEA071FEF7A6FB02
:103BB000207800F0C9FB607800F0C6FBA07800F028
:103BC000C3FBE07800F0C0FB207900F0BDFB60791A
:103BD00000F0BAFBA07900F0B7FB002028700EE0DF
:103BE00000206871F9E7A01D00F0B6FB07E0A0799E
:103BF000E179C046C04602E0A079C046C04607B0A1
:103C0000F0BD0000C00500201148016840688142F5
:103C100001D001207047002070470D494A680B68A9
:103C20009A420AD008008F30824202D3080008303E
:103C300048604A681078521C4A60C0B27047000061
:103C4000D0070020300000007D000000DC6800008C
:103C5000000700207B2270223A2200003368786B34
:103C6000316471776C786768647871670000000070
:103C7000222C2276223A2200312E302E34000000EF
:103C8000222C226D223A000080B507214020FFF748
:103C900032FB01BD80B507214020FFF72EFB01BD9F
:103CA00000B583B001211C20FFF7AAFD052168465D
:103CB000FFF7EAFB0020694608706A4608214020A9
:103CC000FFF7BEFA072208214020FFF721FB012061
:103CD000694608706A4609214020FFF7B1FA0722B9
:103CE00009214020FFF714FB03B000BD70B58AB076
:103CF0000C2101A8FFF7C8FB142104A8FFF7C4FB9F
:103D000003216846FFF7C0FB01210020FFF778FD83
:103D1000012401AD2C7201220321062000F026FAB5
:103D20002C70002068706946087000F0A6FC01A99C
:103D3000002000F014FEFFF79FFC04002D784D4E8C
:103D40000C213000FFF7A0FB0121002000F0DCFC7B
:103D50003460357196208001B0603100002000F0A1
:103D6000FBFC0100002000F01CFD0121002000F000
:103D700082FD0121002000F0F3FB0121002000F072
:103D800018FD0AB070BD80B5FFF78AFFFFF7AEFFE0
:103D900001BD39494A780B7893420AD0374B9B5C76
:103DA0000370521CD2B2202A00DB00224A7001208C
:103DB00070470020704780B53148417802789142C1
:103DC0000ED001782F4A515C8022D2051160017813
:103DD000491C01700178402906DB0021017001BDFA
:103DE0000621002000F0F6FB01BD80B524490A78C9
:103DF0004B785B1CDBB2402B00DB0023934201D1EC
:103E0000002002BD4B781F4AD0545B1CDBB2402B14
:103E100000DB00234B701C480068C105C90F03D1AB
:103E20000621002000F09CFB012002BD80B5062188
:103E3000002000F0EFFC002801D0FFF7BCFF0121BB
:103E4000002000F0E7FC002812D00121002000F043
:103E500012FD002000F037FD0749084A0B78D054C6
:103E60000878401C08700878202801DB00200870C2
:103E700001BD00004809002088090020A808002092
:103E80008A090020900700200400004080B500202F
:103E900000F092FD0020FFF767FC002069460880D3
:103EA00088706846FFF7FAFB0020FFF78FFC0121BE
:103EB0000220FFF7F3FA0220FFF75CFB0420FFF774
:103EC00053FC0020FFF756FB00210220FFF7E6FA23
:103ED000FFF761FB0149086001BD0000780900207F
:103EE00070B55C4C01255C4E3068C008284007D096
:103EF000A068010000D08047706808218843706086
:103F000030688008284007D0E068010000D0804772
:103F1000706804218843706030684008284007D0EA
:103F20002069010000D080477068022188437060DA
:103F30003068284006D06069010000D08047706872
:103F4000A843706030680009284007D0606801000D
:103F500000D0804770681021884370603068400945
:103F6000054007D02068010000D0804770682021FC
:103F70008843706070BD4279012A04D14A691300F8
:103F800001D0344B5A610278012A04D10A68130027
:103F900001D0304B1A604278012A04D14A681300DC
:103FA00001D02C4B5A608278012A04D18A68130010
:103FB00001D0284B9A60C278012A04D1CA68130044
:103FC00001D0244BDA600079012804D1086901008E
:103FD00001D020490861704725480168C20B3FE0C5
:103FE00010B4002801D1042032E0427820490B6847
:103FF0000C24A343920014401C430C6082780B688D
:10400000314C1C401203C0239B01134023430B601F
:10401000C2780B682D4C1C405202C023DB001340B9
:1040200023430B6000790A68294B1340C002CA0C75
:1040300010401843086048680E4A02404A604868C9
:104040000D4A02404A6048681E4A02404A60002009
:1040500010BC7047C8080020B0240040016801224D
:104060000A43026070473348F8E70148F6E700006A
:1040700004240040FFBFFFFFFFDFFFFF30B4002834
:1040800001D104201CE00378294804682A4D25400A
:104090009B02040D23402B43036003680C4C1C401F
:1040A000D202C30C1A4022430260426C294B1340D7
:1040B000491E0905C02292030A401A4342640020A7
:1040C00030BC7047FFEFFFFFFFCFFFFFFFF9FFFF9F
:1040D000FFF7FFFF002805D0022814D00BD30328D8
:1040E00019D022E01F4802681F239A43C906C90E4F
:1040F0001143016019E01B480268174B1340490146
:10410000F82292000EE017480268144B134089020F
:10411000F822D20106E013480268114B1340C9038C
:10412000F82212030A401A43026000207047000080
:1041300008240040C8240040FFFBFFFF002801D0F6
:10414000042901DB04207047074A89005158018087
:1041500000207047FFFFCFFF1FFCFFFFFF83FFFF23
:10416000FF7FF0FF4C2400409024004070B40123F6
:10417000C406E40EA340114C2360C400182525405A
:10418000FF26AE40F4438907090EA940002804D554
:104190000B4D0007000F083800E00A4D8008800032
:1041A000281805682C4021430160012A01D10648E6
:1041B00000E00648036070BC7047000080E200E049
:1041C0001CED00E000E400E000E100E080E100E040
:1041D00081B00020009000980028FCD001B070470A
:1041E00080B50020C046C04601BD80B50120C04654
:1041F000C04601BD80B50220C046C04601BD80B5A5
:104200000320C046C04601BD80B50020C046C04660
:1042100001BD80B5012000F061FB01BD80B500202B
:10422000C046C04601BD80B50120C046C04601BDA4
:1042300080B50020C046C04601BD80B50120C04603
:10424000C04601BD80B50020C046C04601BD80B556
:104250000120C046C04601BD80B50020C046C04612
:1042600001BD80B50120C046C04601BD80B5022019
:10427000C046C04601BD80B50020C046C04601BD55
:1042800080B50020C046C04601BD80B50420C046B0
:10429000C04601BD80B50520C046C04601BD80B501
:1042A0000620C046C04601BD80B50020C046C046BD
:1042B00001BD80B5002000F0ADFB01BD80B5002040
:1042C000C046C04601BD80B50020FFF709FE01BD14
:1042D00080B50020C046C04601BD80B50020C04664
:1042E000C04601BD80B50120C046C04601BD80B5B5
:1042F0000020C046C04601BD80B50020C046C04673
:1043000001BD80B5002000F04DFB01BD80B500204F
:10431000C046C04601BDFEE780B50AE080B507484B
:10432000008807490A68D20AD2024005400D1043AE
:104330000860FFF730F90349086001BD080C100060
:104340000C2000406801002080B5FDF7CFFF01BDC3
:1043500080B5FEF799F801BD00B583B00178012959
:104360000FD16A4611704179517001799170C1790C
:10437000D17080791071072906DB00206946C8706A
:1043800002E0002069460870684603C8FDF7C1FFD7
:1043900003B000BD80B501000020FFF74FFA010017
:1043A0000A20FFF767FA01BD38B504000D4D100073
:1043B00013D02878012801D10020287080204000E7
:1043C000824205D1200000F0D0FB2000803002E0C6
:1043D000802A02D1200000F0C8FB2878401C2870F9
:1043E000012032BD9409002070B5A0B0040008007F
:1043F0001100012C2AD0022C2AD0032C35D0102CED
:1044000035D0132C40D01A2C40D01B2C40D01F2C60
:1044100040D0242C40D0272C40D02B2C40D02D2C09
:1044200068D0402C3ED0652C3ED0662C3ED0672C08
:104430003ED0682C3ED0692C3ED06A2C3ED06B2CEE
:104440005BD06C2C5BD06D2C5BD05CE0002566E013
:1044500020250078C04606003100E8B2FDF79CFF39
:1044600031002000FEF748FC43E02125F1E710254C
:10447000FEF75EFC0600B1B2E8B2FDF78DFF310039
:104480002000FEF712FC34E01125F1E71325EFE7D9
:104490001425EDE72225DCE72325DAE701253EE0B8
:1044A0002425D6E72525D4E71525E1E71625DFE7FE
:1044B000022534E0032532E01725D9E73025EBB299
:1044C00025000122CCB2802C14DA012C07DB6946CE
:1044D000220006780E70401C491C521EF9D16A4613
:1044E00021001800FDF777FD220069462800FEF73D
:1044F0009EFB0200D0B220B070BD3125DFE732252F
:10450000DDE73325DBE71E06F4D0DBB2012B06D056
:10451000F0D3032BACD09CD3042BD0D0EAE70078A7
:10452000C04606003100E8B2FDF736FF310020003A
:10453000FEF79BFBDDE7000010B401000020002225
:10454000804B1C68A14204D1D000801A800018184A
:1045500003E00122DC69A142F6D010BC70470000E4
:1045600010B40022774B1C68A04203D00122DC6902
:10457000A0422DD1D000801A80001A18062927D811
:1045800001A0405C874400BF081848202A343E0040
:104590005068416802220A434260002010BC704704
:1045A000506841680122F6E7506841688022920312
:1045B000F1E75068416880225203ECE75068416897
:1045C00080229201E7E75068416880225200E2E7CA
:1045D0000420E3E710B400225A4B1C68A04203D029
:1045E0000122DC69A0422BD1D000801A80001A1869
:1045F000062925D801A0405C874400BF0818442044
:104600002C343C00506841680222914341600020F4
:1046100010BC7047506841680122F6E75068416855
:10462000494A0A404260F2E750684168474AF8E761
:1046300050684168464AF4E750684168454AF0E7E7
:104640000420E5E710B400223E4B1C68A04203D0D2
:104650000122DC69A0420DD1D000801A80001A1816
:1046600050684268C0239A4389010B40134343605A
:10467000002000E0042010BC704710B40022314B31
:104680001C68A04203D00122DC69A04219D1D000ED
:10469000801A80001A18002910D050684268202320
:1046A0009A430B785B0120242340134343600A782C
:1046B000012A03D14A7882608978C160002010BC49
:1046C00070470420FBE730B4042300241D4A15681A
:1046D000A84203D00124D569A84204D1E000001B00
:1046E00080001018031D02290BD818684268474B38
:1046F00013408903C02212020A401A43426000207C
:1047000000E0042030BC704730B4042300240D4A7C
:104710001568A84203D00124D569A84204D1E0005D
:10472000001B80001018031D18684268384B1340A6
:10473000490280229200114019434160002030BCA0
:10474000704700006C010020FFFFDFFFFFFFEFFF5D
:10475000FFDFFFFFFFFEFFFF10B50C00FFF7ECFED1
:10476000406840688005C10F2079020001D1002017
:1047700010BD012801D0032809D1002901D1102141
:1047800000E008212068A2684A43110005E00029E2
:1047900001D1202100E010212068FCF736FF80B213
:1047A00010BD10B50C00FFF7C7FE40688461002003
:1047B00010BD10B50C00FFF7BFFE002823D0012C60
:1047C00006D9E41E0BD0641E0ED0641E11D01AE070
:1047D0004068416810220A434260002010BD4068D2
:1047E000416880229202F6E74068416880225202C6
:1047F000F1E740684168802212030A434260416841
:104800008022D202E7E7042010BD0000FF3FFFFF37
:10481000FFFDFFFF38B50C000025FFF78DFE0028D7
:1048200001D1042032BD062C23D801A1095D8F449B
:10483000060E18202830380040680069400617E04E
:1048400040680069C507ED0F13E040680069800704
:104850000EE040680069C0060AE040680069400751
:1048600006E040680069800602E0406800690007D1
:10487000C50F280032BD10B50C00FFF75DFE002803
:1048800001D1042010BD002C06D0022C0CD007D37F
:10489000042C11D00CD314E04068416920220EE0B2
:1048A0004068416901220AE040684169022206E04D
:1048B00040684169102202E0406841690422914346
:1048C0004161002010BD80B5FFF736FE002801D100
:1048D000042002BD40680068C0B202BD70B5060089
:1048E000FFF72AFE040039D06068012501698908B4
:1048F000294005D004213000FFF7BDFFE0682AE021
:1049000001690909294005D003213000FFF7B3FFF1
:10491000A06920E000694009284006D03000FFF778
:10492000AAFF6069010000D08047606800692840E4
:1049300007D001213000FFF79EFF2069010000D061
:104940008047606800694008054007D002213000B8
:10495000FFF791FFA068010000D0804770BD70B5DF
:1049600006000C00FFF7E8FD050001D0002C01D186
:10497000042070BD21783000FFF764FE61783000BC
:10498000FFF7A1FE6068002809D04168E9608168EE
:1049900029610168A960C16869610069A861002096
:1049A00070BD000003480068010000D1704780B569
:1049B000804701BD8009002012490A6880231B0638
:1049C00013430B600E490C4ACA600C4ACA600C22A1
:1049D000D243030003D1086802400A6009E00128BD
:1049E000086802D10240042001E002400820104380
:1049F00008600020704700005A5A0000A5A500007A
:104A000020000240202000400C481E210160E121CE
:104A100001607047094841680A06D20F00D170470B
:104A200080B51E210160E12101600348006801009A
:104A300000D0804701BD000084090020800F0040A5
:104A400010B5B94C20001830FDF7A4FF200020302D
:104A5000FDF749FF207B012804D010D3032817D08D
:104A60000ED310BDC82120001830FDF7B9FF20007B
:104A70002030FDF78EFF002801D00020207310BDEC
:104A800020001830FDF7B5FF0028F8D00320F5E727
:104A9000FEE70000F1B484B002A800BFA7A218CAC4
:104AA00018C080295EDB0020009002A805E0803954
:104AB000C9B2009A803AD2B20092002952D089221B
:104AC00002708E2242703C2282707222C270A72233
:104AD000027119224271F42282715D22C271049A1C
:104AE000009BD2181023147805786540157054780F
:104AF0004578654055709478857865409570D47890
:104B0000C5786540D570147905796540157154797B
:104B10004579654055719479857965409571D47969
:104B2000C5796540D5710478E4096D462C7100247F
:104B300002AD2E7876002E706F783F0602D50127E1
:104B400037432F70641C6D1C072CF2DB0419257889
:104B50006D006E4636792E43267008325B1EC2D138
:104B60008029A4DA05B0F0BC7047F0B5A3B0050009
:104B70006D4C142120002030FDF704FF03A82021F4
:104B80002A7802706A784270AA788270EA78C270D5
:104B90002D1D001D491EF3D1207B002803D00128C4
:104BA00000D196E0BDE003AD7C20285C00027D21B1
:104BB000695C014308027E21695C014308027F2190
:104BC0006F5C07437820285C00027921695C01430F
:104BD00008027A21695C014308027B216E5C06436E
:104BE0007C2103A800F062F9874200D099E0002000
:104BF000E0812082012E27D1012323734B486C23AF
:104C0000EB5C1B026D26AE5D1E4333026E26AE5D6D
:104C10001E4333026F26AE5D1E4331007023EB5CF2
:104C20001B027126AE5D1E4333027226AE5D1E432B
:104C300033027326AD5D1D432A0000F08EF9E809AA
:104C4000A082A08A60826CE0022E6AD101212173C9
:104C5000364900914C21695C09024D22AA5C0A4345
:104C600011024E22AA5C0A4311024F22AA5C0A4397
:104C700001927021695C09027122AA5C0A43110247
:104C80007222AA5C0A4312027321695C114350220A
:104C9000AA5C12025123EB5C13431A025223EB5C11
:104CA00013431B025322AA5C1A43214B994237D269
:104CB000204B9A4234D2C809D309C318A382029167
:104CC00020820292A08A6082684607C800F045F9F7
:104CD00027E0E089228A90420DD3618A88420AD275
:104CE000802103A8FFF7D6FE03A9E089228A801A53
:104CF00080B200F0CEF8E089401CE081218A80B2C9
:104D000081420ED2200000F0F0F8E089A18A8842AA
:104D100007D30948206007CC0C3C00F01EF90220A4
:104D2000207323B0F0BD000008080020751A738DB1
:104D3000817B000081770000A4F5AB62898E3C7214
:104D4000A719F45D80B5A0490870012000F04AF968
:104D500001BDF8B507000E0000249B4D2A78921C77
:104D6000D2B2FC21090200F015FA39002878801C23
:104D7000C0B200F045FA002800D101242A78921C24
:104D8000D2B2FE210902300000F004FA3100287886
:104D9000801CC0B200F034FA002802D120000224A6
:104DA00004432000F2BD10B5C0B00400694620A83D
:104DB000FFF7CFFF8107890F032901D1012010E000
:104DC0000021C20701D5684606E020A804E0421889
:104DD00052786254491CC9B27B4A12789142F6DB80
:104DE000002040B010BDF0B5E1B006000024012560
:104DF00021A941A8FFF7ADFF81070DD0C10704D558
:104E000021A80478641C651C0CE080070AD521A841
:104E100005786D1C6C1C05E041A80478A41C21A831
:104E20000578AD1C320068480178E0B200F0DCF98A
:104E300069460870320064480178E8B200F0D4F99D
:104E4000070061480278100008D001A8401C11003A
:104E500033780370761C401C491EF9D101AE3470C2
:104E600068460078B1184870921CD2B2FC21090241
:104E700001A800F079F9357053480278B0184770EE
:104E8000921CD2B2FE21090201A800F06DF961B0B6
:104E9000F0BD10B5842252008318FC246400A342A4
:104EA00003DA801880B200F009F910BD020000207A
:104EB0000023890800D17047F0B4454C434D167863
:104EC0003602577837433E02977837433F02D67809
:104ED0003E43DF0701D56E4000E0664080195B1C51
:104EE000121D491EEBD1F0BC704710B584B0040010
:104EF0000422384902A800F04DF902A801780902FD
:104F000042780A43110282780A431102C0780843AA
:104F100020600422304901A800F03CF901A8017882
:104F2000090242780A43110282780A431102C078CA
:104F30000843606004222949684600F02BF968465E
:104F40000178090242780A43110282780A43110269
:104F5000C0780843A06004B010BD17B5A1B0204CC4
:104F600080222100684600F015F968462199090E53
:104F7000742281542199090C752281542199090ABE
:104F80007622815421997722815422990A0E78231E
:104F9000C2540A0C7923C2540A0A7A23C2547B22CF
:104FA000815423990A0E7C23C2540A0C7D23C254D7
:104FB0000A0A7E23C2547F2281548022210000F0FD
:104FC000CDF824B010BD000093090020C353B48273
:104FD000762EEA39F4FB0000F8FB0000FCFB000031
:104FE00080FB0000F0B591B0040009A86EA120225A
:104FF000FDF76CFF01A800BF73A12022FDF766FF3B
:105000000020012C01D009A900E001A9FF226B4674
:105010001A7082004B4B4C4C6F4605E04B4D25609F
:105020004B4D25608D589D509D588E58B54207D0E8
:105030006D462D786E1E3E70002DEFD1002003E0EE
:10504000401C0828E2D3012011B0F0BDF8B4C1051E
:1050500016D1FF2100913E4A3C4B03243D4D06E012
:10506000EB60EA602E68A643022737432F602E6864
:105070002640022E06D0009E771E0097002EEFD10C
:10508000002019E0EB60EA600024E4432C61002476
:1050900004600091012029680909014009D00099A4
:1050A0004E1E00960029F6D1EB60EA602C610020CC
:1050B00002E0EB60EA602C61F2BC7047F8B50D00CD
:1050C000FF210091C401600A234A136898420ED060
:1050D00010604002FFF7BAFF09E01C49C1601C499B
:1050E000C16001680322914301220A43026019480A
:1050F00001688907890F012905D000994A1E00928D
:105100000029EAD1F1BD1149C160114AC2600023F2
:10511000DB43036180232E782670FF260096066805
:10512000F706FF0F05D0009E771E0097002EF6D1E0
:10513000F1BD6D1C641C5B1EEDD1C160C26000211D
:105140000161F1BD000002402C0002405A5A0000EB
:10515000A5A50000200002407C0900200B00812A48
:1051600000DB704710B504E00B00812A00DB7047BC
:1051700010B5A0B0110006D0694604780C70401C30
:10518000491C521EF9D169465802000CFFF796FFE0
:1051900020B010BD130005D00B780370491C401CD3
:1051A000521EF9D170470000B10000007F000000DE
:1051B00095000000D484010038D00B008500000069
:1051C0002F0500009A1500002000000017000000C5
:1051D0001B00000050460000E02202001800000002
:1051E000F0000000E80300000300080005D010787C
:1051F0001B18DBB2521C491EF9D14520584070479C
:1052000030B4421E0023140607D00C00D2B2257819
:105210005B19DBB2641C521EF9D145225A400818B2
:10522000401E0078824201D1012000E0002030BC05
:10523000704700003CB404001800049D059B002C3E
:1052400006D0834202DB002909D005E0981806E069
:105250009D4203DB002902D1280000E0981A00B229
:1052600036BC704738B5FCF775FA0400824D2A0049
:105270002900042000F064FCC0070AD50420A076B1
:10528000FA2189000020FCF7A1FBE07B022836D13F
:1052900032E02A007949012000F052FCC0070BD50A
:1052A0000620A0760120207475490020FCF78EFBB3
:1052B0000020E073607431BD2A002900102000F046
:1052C0003FFC800708D50020A0752A21615E61801F
:1052D000E1830121A17610E02A002900022000F0DC
:1052E0002FFCC00706D42A002900082000F028FC63
:1052F000C00704D50120A0760020E073A07431BD62
:10530000F0B583B0FCF726FA04005B4F3A00390091
:10531000042000F015FCC00704D50025A576E57330
:10532000A574A6E00525C8225649022000F008FC15
:10533000284209D00120A17C002900D183E000206F
:10534000A0744E4903205DE0C8224E49082000F0B9
:10535000F7FB284201D00020EDE73A00494901203F
:1053600000F0EEFB062108421CD0022809D1A176EC
:105370000025257442490020FCF728FBE57365747D
:1053800077E0042875D1FDF723FF002806D0E07DE3
:10539000012801DB002000E0401CE075012000F046
:1053A0002DFB66E03A003900102000F0C9FB8007B1
:1053B00015D5A07D012801DB002000E0401CA07570
:1053C00020002A30A17D012901D120002C300021AC
:1053D000405E6080E083E173A174E17549E00426DA
:1053E0003A002849F00100F0ABFB30420DD0A57621
:1053F00000252573E5720120A072207BFCF7B9FF20
:10540000B6490020FCF7E2FA33E03A001B493002CB
:1054100000F096FB30422CD00220A07600252572A9
:10542000E079FE210140E1716572AD490020FCF791
:10543000CDFAAA490120FCF7C9FA2576E0790221C4
:105440000143E17115E00221615E01912621615E57
:1054500000912421635E05220021FFF7EBFE6080AE
:10546000E17D0A0001D1E08303E0012901D102209E
:10547000E07503B0F0BD0000FFFF000088130000DE
:1054800010270000B80B00007CB50400FCF762F99F
:10549000C51D6B7819000D2900D91DE101A2490035
:1054A000525A97441A005A007C009C00C2003202F3
:1054B0003202F60024015A015A01C601EC01100221
:1054C0002978C90715D50600203601002431097C4A
:1054D000012901D1060022360020305E01905E20B5
:1054E000C04300906423052200212000FFF7A2FEA4
:1054F00030802878012101432970B4490220E9E075
:10550000050024350020285E01900220285E0090CE
:10551000E1239B00052200212000FFF78BFE28805D
:1055200073BD050024350220285E019032200090D2
:1055300000202B5E052200212000FFF77BFE688003
:1055400073BD050024350420285E002C05D0642896
:1055500001DB642006E0401D04E0062801DA052096
:1055600000E0401FA88073BDA87DC107C90F002CB3
:1055700003D001290CDA491C02E0012906DB491E8F
:105580000AB2521E9241D243D20F02E0012200E041
:105590000022FE2101400A43AA7573BD050024358F
:1055A00006216A5E002C07D0AF2149008A4201DB48
:1055B0000A0006E0521D04E0332A01DA322200E03C
:1055C000521FEA8002002A3213E005002435082128
:1055D0006A5E002C05D0AF2149008A4206DA511DCF
:1055E00004E0332A01DA322100E0511F2981020050
:1055F0002C320220295E0020285EFCF75EF973BD84
:1056000001002E3102002F320A2B03D101002F316D
:1056100002002E32A87D83071FD50B78052B0BD1F6
:10562000260009D1FD230340AB75052010700B78CF
:10563000062B09DA052308E0002CF9D0F02B01DB5A
:10564000F02302E05B1D00E05B1F0B70B0480078A8
:10565000002841D00878107073BD002C3CD0022186
:105660000143A9750120AA49087073BD05002435BE
:105670000E20285E002C05D0642801DB642006E0A3
:10568000401D04E02E2801DA2D2000E0401FE881B3
:1056900073BD05002435A87C002C05D0032801DB50
:1056A000032006E0401C04E0012801DA002000E0AD
:1056B000401EA87473BD0020A870FA214900022082
:1056C000FCF784F9A87D04210143A975FBF7F4FFD9
:1056D0003E490020FCF77AF973BD000060EA000043
:1056E00030750000F8B5FCF735F804000126A8492C
:1056F0000020FCF76BF9A7490120FCF767F90025AA
:105700002576A54A1146042000F01AFAC00701D5F3
:10571000A576F1BDA04A1146012000F011FAC0079C
:105720000FD5207A401CC0B20E2800DB002020726A
:10573000774805706572207A05281FD107202072EE
:10574000F1BDC8229549022000F0FAF90527384238
:1057500015D0217A0D2906D101280FD1607A0100D8
:1057600001D003280AD13000FFF78EFEE079FD2139
:105770000140E1718A490720FCF728F9F1BDC822F0
:105780008749082000F0DCF938420BD0217A0D2936
:1057900006D10128F2D1607A010001D00328EDD1B1
:1057A0000026E0E77C4A1146102000F0C9F9C00746
:1057B000E4D5A5752A20205E6080E083A676E57397
:1057C000A574102000F01AF9F1BD00008813000044
:1057D000F8B5FBF7BFFF04006F4D2A002900042035
:1057E00000F0AEF9C00702D50020A076F1BDFA277F
:1057F000FF0004262A003900022000F0A1F93042FF
:1058000009D0002020730020E0720120A072207BCC
:10581000FCF7AFFDF1BD2A003900082000F090F937
:10582000304201D00120EDE72A002900102000F0CD
:1058300087F98007EED50020A0752A21615E61807E
:10584000E1830121A176E073A074F1BDF8B5FBF707
:1058500081FF0400012501264F4A1146042000F073
:105860006FF9C00719D5607C002801D0022000E044
:10587000A074E073207C002808D1A576E07B022884
:1058800044D148490320FCF7A1F8F1BD0020A076DF
:10589000E07B02283AD1A574F1BD0527C822404912
:1058A000022000F04DF9384207D1C8223C490820B7
:1058B00000F046F9384210D00026E5733A4900203E
:1058C000FCF784F836490320FCF780F8607C002E52
:1058D00016D0302812DB002017E02F4A1146102086
:1058E00000F02EF9800711D50020A0752A21615EF5
:1058F0006180E183A576E073A074F1BD401C04E0F3
:10590000012801DA302000E0401E6074F1BD000083
:105910008F09002080B5002808D0012809D002286E
:105920000AD005280BD006280CD001BDFFF79AFC41
:1059300001BDFFF7E5FC01BDFFF7D4FE01BDFFF798
:1059400047FF01BDFFF782FF01BD10B5FBF702FF66
:105950000400E07E012805D10220E07610490420F1
:10596000FCF734F80C4A0F498020400000F0E8F8BA
:1059700040070BD5A07E012808D1E07E022801D186
:10598000002002E0002801D10120E07610BD0000D7
:105990003075000060EA0000FFFF0000DC05000039
:1059A000B80B0000881300001027000010B5FCF7AA
:1059B00097FF00F090F800F017F8002812D0FBF7DE
:1059C000C9FE0400A07902210143A17100F038F959
:1059D00000F03EF9FFF7B9FFE07E002802D1A07E7B
:1059E000FFF798FF10BD000070480178002903D030
:1059F0000021017001207047002070476B494A8ADE
:105A000010434882704770B500260024300000F033
:105A10007FF9002804D020000124B4400443A4B23C
:105A2000761C082EF2DB200060498A88944209D156
:105A3000130007D0802040002043040090434B8A8D
:105A40001A434A82CA88A3B293420CD113000AD0E7
:105A500080239B001C43A4B20500180028439043F8
:105A60004B8A1A434A820A89A3B293420BD113008C
:105A700009D08023DB001C43050018002843904315
:105A80004B8A1A434A824A89A4B2944209D113002C
:105A900007D0030080200001184390434B8A1A432B
:105AA0004A8280B270BD41494A8B821A92B24883C1
:105AB000CB8A002B04D0934201DB9B1A00E0002329
:105AC000CB820B8B002B04D0934201DB9B1A00E0AE
:105AD00000230B83704738B50024344D69780029C2
:105AE00004D0281D00F0FFF86C7031BDFFF7DBFF1C
:105AF000FFF789FFA9890A0042400DD0EC70AA780F
:105B0000521CAA70D2B2062A18DBAC704140E9815F
:105B1000A881288201200BE0AC7001000AD0E9784E
:105B2000491CE970C9B2062908DBEC702882022002
:105B3000287031BDEC702C826C82AC822C7031BD2F
:105B400070B41A4B5C8A04422CD1DC8904409D8AD3
:105B5000054210D01E8A3040002C03D00021D9818C
:105B600001001DD000281DD0D88A198B014319D1FE
:105B70001A83042017E0002C14D00022DA811E8A38
:105B800006420DD00A4CA14204D1864206D1DA82E7
:105B90001A8303E028439882D9821A83012002E005
:105BA000022000E0002070BC704700001C010020B3
:105BB000FFFF000010B5FBF7CFFD04003E20FFF70C
:105BC000C1F82000FFF7EFF800280AD0FBF7C2FD6C
:105BD000417FFB220A404277FBF76EFD2000FFF772
:105BE00002F910BD38B5FBF7B7FD0400164D287853
:105BF000012806D1687000202870FCF771FE6880CB
:105C00000DE002280BD12000FFF7CDF8002804D0CA
:105C1000FBF752FD2000FFF7E6F8002028706878B7
:105C200000280CD0FCF75CFE6988401A80B2074956
:105C3000884204DB002068702000FFF7D4F831BDF3
:105C400001200149087070476C090020E903000039
:105C500080B5102000F07CF801BD80B5FCF740FE57
:105C600000F07EF801BD00B583B0012069460870E0
:105C7000487088700020C8706A4604210AE000B5A8
:105C800083B0012069460870487088700020C87091
:105C90006A460521C020FDF7D3FA03B000BD00B568
:105CA00083B0012069460870487088700020C87071
:105CB0006A460221EFE700B583B00120694608700B
:105CC000487088700020C8706A460121E3E700B57B
:105CD00083B0012069460870487088700020C87041
:105CE0006A460021D7E710B50400FFF7BCFFFFF7B5
:105CF000C6FFFFF7D4FFFFF7DEFFFFF7E8FF0A203C
:105D00002080122060801120A0800020E08010BD43
:105D100010B50024002806D002280AD006D3042893
:105D20000DD009D312E00421C0200AE00521C020D3
:105D300007E00221002004E00121002001E0002111
:105D40000020FDF7D0FA002800D10124200010BD6A
:105D500080B5010001D01149488000F03BF801BD39
:105D600010B50E4C2178002902D0012905D010BDB4
:105D700000F016F80120207010BDA188411AFA2207
:105D80009200914209DBA0806088010005D0401E8E
