:1000000020050020A13F00007F1D00009125000079
:1000100000000000000000000000000000000000E0
:10002000000000000000000000000000D7260000D3
:100030000000000000000000732900001D1B0000EC
:10004000A1250000AB250000B5250000BF2500005C
:10005000C92500003726000083210000D3250000B9
:10006000DD250000E7250000F1250000FB2500004C
:10007000052600000F260000192600002326000098
:100080002D260000412600004B26000055260000CA
:100090005F26000069260000732600007D26000010
:1000A00087260000912600009B260000A526000060
:1000B000AF260000B9260000C3260000CD260000B0
:1000C000F2B505000024280001D5012445422DB2D7
:1000D000F9208000854200DB451E544E2800642133
:1000E00000F066FC00B2375C0098077028006421BD
:1000F00000F05EFC08000A2100B200F059FC00B2DA
:10010000305C0099487028000A2100F051FC09B2C7
:10011000705C00998870002C01D0402002E03F2FD5
:1001200002D1002000990870F1BD000080B500F0F8
:10013000E7FC817BCA071DD501223D4979230B705D
:1001400050234B70394B9B185B1E1B788B7080794A
:1001500040070ED5684600BF10A10B88038001211F
:100160008018401E007801F05DF80121262001F082
:1001700059F801BD02221142DFD12D490022805ED3
:10018000FFF79EFF0121222001F04CF801211F20E2
:1001900001F048F801211E20E9E7000007100000E7
:1001A000D0B582B000F0ACFC0400A07E062805D0DB
:1001B000A07C002838D0E07B022835D1607C312833
:1001C00032DA68461BA10A88028001211C2001F056
:1001D00029F801216846227C805C01F023F8E07B4D
:1001E000002802D1A07940071ED4104E607C400840
:1001F0000A2100F0DDFB305C0D4FF8703F2801D183
:100200000020F870607C40080A2100F0D1FB705C8F
:100210003871607CC00701D56D2000E03F20787107
:100220000121152000F0FEFFD3BD00009C06000058
:100230007C070020010A10B500F062FC04000121D7
:100240000B2000F0EFFFA079C00702D501210C20A0
:100250000AE0607F800705D5E07C022802D10121F9
:10026000032001E00121172000F0DCFF10BD10B5D4
:1002700000F046FC0400A079C00703D50121182036
:1002800000F0D0FF607F800709D5E07C022806D10E
:10029000A079400703D501210F2000F0C3FF10BD56
:1002A00070B500F02DFC040001211A2000F0BAFF07
:1002B000A0794007C60FE57E0121132000F0B2FFB0
:1002C000022D05D1002E03D00021132000F0AAFF3B
:1002D0000121242000F0A6FF0121252000F0A2FF2B
:1002E000A07D002802D10121122001E00121082077
:1002F00000F098FF70BD10B500F002FC0400322041
:10030000205E2E280CDB01210D2000F08BFFA07950
:10031000C10705D5400703D500210D2000F082FF5D
:1003200010BD10B500F0ECFB0400FFF7FFFEFFF777
:1003300037FFFFF7E0FFA07C002809D10121012051
:1003400000F070FF15483F21C170712101714171AA
:1003500010BD000010B500F0D3FB0400FFF7E6FE6F
:10036000A07C002810D1CB490220205EFFF7A8FE18
:100370000121152000F056FF0121092000F052FF55
:100380000121162000F04EFFFFF70AFFFFF753FF91
:10039000FFF786FFFFF76BFF10BD00007C07002012
:1003A000B0B584B000F0ACFB0400207A0190622864
:1003B00014DA451C28000A2100F0FAFAC0B20090B5
:1003C00028000A2100F0F4FAB94DBA4F009800282D
:1003D00001D0385CE870C9B2785C28710121232013
:1003E00000F020FF0025207A0D2832D801A140001E
:1003F000095A8F441A00A400B200C000CE00F200D7
:100400004201580166017401740110023202600257
:100410000121002000F006FF3420205CE179C907AB
:1004200023D522002032012800D1921CA0490020AF
:10043000105EFFF745FE0121222000F0F3FE0121AE
:100440001F2000F0EFFE002D03D001211E2000F040
:10045000E9FEA079400706D5E079800703D50121A0
:10046000252000F0DFFE04B0B0BDA17B012803D140
:10047000022001420ED002E0C8070BD501208C4DAE
:10048000792129705021697084A10818401E0078D4
:10049000A870DEE722000125C8E70121022000F054
:1004A000C1FE22002432C1E701211D2000F0BAFE66
:1004B00022002632BAE701211B2000F0B3FE220001
:1004C0002832B3E70121212000F0ACFE01210120F8
:1004D00000F0A8FE607FC00700D49CE0744D3F2070
:1004E000287037206870B4E70121112000F09AFECF
:1004F0000121072000F096FE0121102000F092FE5D
:100500000121192000F08EFEA0794007ABD53420E0
:10051000205C002803D0022807D003D399E70021EC
:10052000072094E70021102091E70021072000F028
:1005300079FE002119208AE70121192000F072FEBE
:100540000121272000F06EFE220030326EE70121EB
:10055000122000F067FE22002A3267E701210820FE
:1005600000F060FE22002C3260E702A84AA10A884F
:1005700002800121202000F055FE0121032000F01F
:1005800051FE0198092800DA63E7012102A8019AC7
:1005900080180938007800F045FE20002E300090C9
:1005A000607F800737D501980A2802D10098401C47
:1005B000009000980078F12800DB4AE737A73C4D0F
:1005C000642100F0F5F9385C287000980078642107
:1005D00000F0EEF908000A2100F0EAF9385C6870D2
:1005E000009800780A2100F0E3F9785CA870287878
:1005F0003F2800D02DE70020287068783F2800D0E1
:1006000027E700206EE701210D2000F00BFE3220CD
:10061000205E2D2805D1264D3F202870712068705E
:1006200036E72200323201E70121282000F0FAFDEE
:100630001F4D00BF19A72000343080780A2100F038
:10064000B7F9385C28702000343080780A2100F037
:10065000AFF9785C46E70121142000F0E3FD607AF1
:10066000010007D1A079400700D4FCE640201049E2
:100670000870EEE60128F9D0022803D140200C4D85
:1006800028702FE7032800D0E3E64020084D2870AB
:100690006870FDE67F070020060F00003F065B4FF5
:1006A000666D7D077F6F004061383777000000007E
:1006B0007C0700209C06000010B500F021FA040021
:1006C000012000F0C5FD607F40075FD50021232099
:1006D00000F0A8FD0021002000F0A4FD0021022070
:1006E00000F0A0FD00211D2000F09CFD00211B203A
:1006F00000F098FD0021212000F094FD0021012050
:1007000000F090FD0021112000F08CFD0021072059
:1007100000F088FD0021102000F084FD0021192048
:1007200000F080FD0021202000F07CFD002106204B
:1007300000F078FD00210F2000F074FD002114204E
:1007400000F070FD00211C2000F06CFD00210A204B
:1007500000F068FD0021272000F064FD0021282022
:1007600000F060FD0021262000F05CFD00210D203E
:1007700000F058FD0021162000F054FD0021042057
:1007800000F050FD0021052000F04CFD10BD0000E0
:1007900030B587B000F0B4F9817A0A000DD1724902
:1007A00039200870092048700F2088700420C87014
:1007B0005E2008713820487123E0012910D16A4970
:1007C00039220A7009224A700F228A708079400704
:1007D00017D55E20C870792008713820487110E064
:1007E000042913D1604900220A703F224A7037223F
:1007F0008A703823CB7004230B714A71407B002828
:100800006AD001210E2000F00DFD65E0022912D111
:1008100003A900BF55A238CA38C1694656A238CAD2
:1008200038C1C17A03AA525C4F4B6C46615C5918BF
:10083000491E0A7008E0032906D14B4971220A704B
:1008400077224A7038228A708079400703D50121C7
:100850000E2000F0E7FC00F05AFD00280CD0012823
:1008600011D0022816D003281BD0042820D0052838
:1008700024D0FF2829D02FE03B496D20C870772075
:100880000871502027E038497720C870732008711C
:10089000002020E034493720C8703F200871312003
:1008A00019E031493920C8703F200871792012E0E1
:1008B0002D493920C8703F220A710CE02A4938209E
:1008C000C8703F200871732005E027493E20C8709A
:1008D000702008713720487107B030BD38B500F07E
:1008E0000FF9050000F09AFCA87981073AD5FD219F
:1008F0000140A9711C4C0721200000F045FD00209B
:1009000000F0A6FCA87E062827D801A1095C8F4428
:10091000443E38201A1406000121162000F082FC03
:10092000FFF73EFC19E0FFF733FF16E0FFF7C4FEC8
:1009300013E0062020704F2161700021A170E0704B
:100940003F2020716620607107E0FFF729FD04E079
:10095000FFF700FD01E0FFF7E4FC200000F0AEFB34
:1009600000F084FB31BD00007C0700200101010282
:100970000408080810200000010203030303020119
:1009800001010000F446002804D4494200F013F8A5
:10099000404260474042002905D45FD000F00BF888
:1009A000404249426047494200F005F849426047E9
:1009B00003460B43E6D40022030A8B420BD2030901
:1009C0008B4219D243088B422ED2411A00D20146E3
:1009D000524110467047FF2209023FD012068B4257
:1009E00005D3121209028B4201D312120902030924
:1009F0008B4219D300E0090AC3098B4201D3CB0112
:100A0000C01A524183098B4201D38B01C01A524153
:100A100043098B4201D34B01C01A524103098B4257
:100A200001D30B01C01A5241C3088B4201D3CB0042
:100A3000C01A524183088B4201D38B00C01A524125
:100A400043088B4201D34B00C01A5241884200D365
:100A5000401A5241CFD201461046704708B5C046F1
:100A6000C04608BDF0B49E4A130016330020197921
:100A7000072900DB1871188001219971D979FC24AC
:100A80000C40DC71DC211981AF246400DC8164241A
:100A90001C820A245C829982A024DC8205241C76B4
:100AA0005C76D22464005C832D249C83D883363208
:100AB00010700223537006239370D070C823938064
:100AC00008249471D071962515810B2696721E26E6
:100AD000D67295810C279773D073AA271782112796
:100AE0009774D074918216219175D675158394767A
:100AF000D076938317219177D0771584F0BC704717
:100B0000A1487047A14870477548C17E427FD2070F
:100B100004D4827E130001D0022A02D10021817602
:100B20000AE09B4A00231370FA239B00538004229F
:100B30008276022900D10121C1767047F0B5040008
:100B40000020205E934D04E0F0B504000020205EFC
:100B5000914D0021695E0E00814210DA871B3FB281
:100B600038000A21FFF724FF09B2781A042904DBB0
:100B7000092901DB0A3000E0401D361812E08842E6
:100B800010DA371A3FB238000A21FFF711FF09B215
:100B9000781A00B2361A042904DB092901DB0A3E5F
:100BA00000E0761F2E8028882080F0BD70B50020E0
:100BB00000F030FC0400012000F02CFC060000F0E6
:100BC00026FC474D3421695C002903D002291BD043
:100BD0000DD332E09349C00702D501200A0002E09C
:100BE000288C22180020A8732A80A98025E00221E1
:100BF000084201D08B4802E0688C30180021A973AC
:100C000028802888A88018E0032802D185492980F7
:100C100011E0C10701D583490AE0810704D5298C79
:100C2000611829807F4906E0002805D1298C6118C8
:100C30002980698C7118A980A8730020285E0100A2
:100C4000F9229200904201DB511E04E05E22D24361
:100C5000904200DA114629802800FFF76FFF281D17
:100C6000FFF772FF70BD0023D35E984203DB1800CC
:100C7000884200DA08001080704738B5424CE07DA9
:100C8000002802D0012802D007E0E08B04E000F049
:100C9000E7FC80002018408F60802620205E242101
:100CA000615E0B000225655FAB4203DB2B008342D4
:100CB00000DA030063800B002A25655FAB4203DB8B
:100CC0002B00834200DA030063852C22A25E91424E
:100CD00003DB1100814200DA0100A18531BD000073
:100CE0000000002010B500F0EBFC724C6188401A47
:100CF00080B2FA214900884226DB00F0E1FC6080E6
:100D00002148817912220A438271C17A491CC9B2F1
:100D10000A2900DB0021C1722178491CC9B20229CD
:100D200008DB0021130702D5F723134001E0082355
:100D300013438371217081794A0702D5FB220A404F
:100D400001E004220A43827110BD10B50E4881797A
:100D5000CA0607D5EF220A408271FFF727FFFFF787
:100D60008CFF10BD827EA34B1C78944203D01A7076
:100D700012220A43827110BDA84A80001018002276
:100D80000270418070470000000000201A0000201F
:100D9000D8060020180100201A01002070B5002498
:100DA0009F4D9E4E3078002804D03470287A002859
:100DB00000D0AC763079002814D03471687F4007B9
:100DC00010D4287A00280DD1287E401C2876C0B285
:100DD0000A2805DB687F042101436977FFF742FE9B
:100DE0009C48F080307A002812D03472287A0100B2
:100DF00004D1E879FE210140E97109E00D2807D10D
:100E0000687A032804DA401C6872FA204000708176
:100E1000307F002804D03477E87902210143E9715A
:100E200070BD0000E303000070B500247C4D7B4ED4
:100E30003078002812D03470A87A022804D186486D
:100E400070800320A87205E0012805D10220A87255
:100E50008048708074841BE00120A876A87A01285D
:100E600011D1348400F053FA04280AD0708C401C4D
:100E7000708480B20B281CDB0220A8723470754885
:100E80007080748470BD7484022801D0032810D14E
:100E9000308C401C308480B20B280ADB00F037FA1B
:100EA000042806D134706D4870800420A872012097
:100EB000687370BD900700205948817E491E05293E
:100EC00000D9704710B501A2525C974404646A7A55
:100ED000929852490A7C002A06D000220A74C27EE7
:100EE000022A01D10122C276C27B022A0CD10A7BDE
:100EF000002A0BD000220A73594ACA81827C531EF1
:100F00009B41DB0F837401E000228274C27C002AC3
:100F100048D00A7D002A45D000220A75437D002B67
:100F200002D042754F4802E0012242754C48C88207
:100F300010BDFFF733FF10BD38490A78002A31D0C1
:100F400000220A70012109E034490A78002A29D0D8
:100F500000220A70FA2292004A800321817610BD95
:100F6000FFF762FF10BD2D490A78002A11D0002238
:100F70000A70437C002B04D00223C3730A73384BDE
:100F8000CB810123047C002C01D1837601E08276A1
:100F900083740A7B002A05D000220A73C17B0129D1
:100FA00000D1C27310BD38B500F08AFB1B4A918C8A
:100FB000884201DB411A01E0431E591A89B2002917
:100FC00014D09084901C08220123048825000AD0A4
:100FD0008C4204DB641A0480240404D101E0002460
:100FE0000480841E2370001D521EEED1FFF764FFA3
:100FF00031BD0000B00700200948817E002904D1DE
:10100000C17E002901D00021C176C17B002904D115
:10101000817C002901D0002181747047D80600200E
:101020000000002010B500F04BFB0F4C2188401A47
:10103000608080B2322804DB00F042FB208000F0A8
:10104000F2F9FFF782FEFFF7AEFFFFF74BFEFFF767
:10105000D3FF10BD60EA000030750000B80B00003F
:101060008813000050C300008C07002080B51021B9
:10107000874800F033FC01BD10B4049C20706170FF
:10108000A270E37001982071029860710398A071BA
:1010900010BC7047E0B4002301259D40284206D0D3
:1010A0007B4D0E78AD192E78177837432F705B1C67
:1010B000521C491C072BEFDBE0BC7047F0B589B030
:1010C000070004A80390072002900B20019007203E
:1010D0000090032303220B210F20FFF7CDFF06A86A
:1010E0000390102002900820019000900823102205
:1010F0001021FFF7C1FF06AA04A93878FFF7CAFF3D
:1011000004A80390072002900B2001900720009074
:10111000032303220B210F20FFF7AEFF06A8039045
:101120004020029020200190009020234022402166
:10113000FFF7A2FF06AA04A97878FFF7ABFF04A87F
:101140000390062002900B200190072000900323BB
:1011500002220A210F20FFF78FFF06A8039001202B
:101160000290802001900090802301220121FFF74E
:1011700083FF06AA04A9B878FFF78CFF04A80390A0
:101180000A200290062001900A2000900E230E22D1
:1011900006210220FFF770FF102006AC20702021EE
:1011A0006170A170E07020716071A17106AA04A93C
:1011B000F878FFF76FFF022604AD2E7006206870E6
:1011C0000E21A970E9700A2129716871A971402066
:1011D000207080216170A170E07020716071A17138
:1011E00006AA04A93879FFF755FF012028700521C8
:1011F00069700D22AA70EA7009222A716971AA71B8
:1012000020706670A670E07020716071A67106AAE9
:1012100004A97879FFF73EFF09B0F0BD80B500F072
:101220001FFB01BD292812DA1AA240001018184A23
:101230000378D318002905D00178515C4078084321
:1012400018707047197843789943007811547047A3
:1012500030B40100002400200D4A0D0000D0FF2012
:101260001070641C0D0000D0FF205070641C0D0035
:1012700000D0FF209070641C0D0000D0FF20D070C3
:10128000641C121DE4B2102CE7DB30BC7047000078
:101290005807002009080D080A0806080E040A026B
:1012A000030405100B0109040D10060402080220B6
:1012B0000602070405080B0207010302010402806D
:1012C0000102020402020B040F0109100D040E08B2
:1012D0000F100E01011001080F400E02070203015A
:1012E0000F020F040504000010B50400200000F0F8
:1012F00011FB0028FAD010BD80B500F013FB00F000
:101300000DFB962149000D4800F02CFA01BD0A485A
:10131000007A704710B5040000F00EFB601E80419B
:10132000C043C00F044A107202211000143000F0B4
:1013300019FA10BD000000006400002070000020B9
:10134000094205D0830705D00270401C491EF9D11F
:1013500070470000130030B414001500103902D398
:1013600010393CC0FCD2490700D30CC000D504C0E2
:10137000890002D30280801C002900D5027030BC95
:10138000704700000022DBE70022E3E7F8B5002702
:101390000024012902D100BF7AA100E042A10A88FD
:1013A000824202D25E20C0432FE0DA23CB5A984219
:1013B00001D23B4829E06300CB5A984202D2641C18
:1013C0006D2CF8DB002C1BD0620089188A1E128855
:1013D0000988401A83001D186D00561A2800310034
:1013E000FFF7E6FA0700F00F801940100090280080
:1013F0003100FFF7DDFA89B20098884200DA7F1CDD
:101400000A3CA00000194000C01B00B2F2BD2248F7
:10141000807870470100022904DA1F48490040180B
:101420000421405E704738B51B4C2078002802D05C
:10143000012805D031BD00F0A8FA0120207031BD8F
:101440002000083000F007FB002824D0A178208974
:10145000124D02001E3AAA4204D301200843A07094
:10146000104805E0FE220A40A2700021FFF78EFF1F
:10147000A080A178608902001E3AAA4204D302200B
:101480000843A070074805E0FD220A40A270617879
:10149000FFF77CFFE08031BDAC000020B50F0000FD
:1014A000E3030000E7030000F20CD50CB70C990C25
:1014B0007A0C5A0C3A0C1A0CF80BD70BB40B920B93
:1014C0006F0B4B0B270B020BDD0AB80A920A6D0A51
:1014D000460A200AF909D309AC0985095E093709CA
:1014E0000F09E808C1089A0873084D082608000883
:1014F000D907B3078D07680743071E07F906D50606
:10150000B2068E066B06470627060506E405C305E8
:10151000A30583056305450527050905EB04CF04ED
:10152000B30497047C04620448042E041504FD03EC
:10153000E503CD03B6039F03890373035E034A03E8
:10154000360322030F03FC02EA02D802C602B502E8
:10155000A5029502850275026602570249023B0206
:101560002E02200213020602FA01EF01E301D70165
:10157000CC01C101B701AC01A20199018F01850124
:101580007D017401E90BBC0B8E0B600B310B010B61
:10159000D00A9F0A6D0A3B0A080AD509A2096F09F9
:1015A0003C090809D508A2086E083C080908D707B5
:1015B000A507730742071207E206B306850657061A
:1015C0002A06FE05D305A8057E0555052D05060549
:1015D000E004BB049604730450042E040D04ED03D0
:1015E000CE03B003930376035A033F0325030C0392
:1015F000F302DB02C402AE02980283026F025B02B6
:1016000048023602240213020202F201E301D3016E
:10161000C501B701A9019C018F01830177016C010C
:10162000600156014B01410138012E0125011C01C9
:1016300014010C010401FC00F500ED00E700E000DE
:10164000D900D300CD00C700C100BC00B700B20074
:10165000AD00A800A3009F009A00960092008E00A3
:1016600003480178072901DB0721017000787047E2
:101670001C01002070B500F033FA3E490A78821A46
:1016800008704B880C890025FA20800013E0521E58
:101690005B1C641CA4B284420DDB00248E88761C83
:1016A0008E804E78761C4E70F6B23C2E03DB4D7069
:1016B000CE88761CCE801606E9D10C814B8070BD99
:1016C0002C4840887047F8B5040000F009FA294911
:1016D0000A78821A08704D880E890020FA239B0030
:1016E00013E0521E6D1C761CB6B29E420DDB002626
:1016F0008F887F1C8F804F787F1C4F70FFB23C2FEC
:1017000003DB4870CF887F1CCF801706E9D10E819C
:101710004D802278100009D18988A088081AA180FC
:10172000110008D180B204280EDB09E0012A01D1A2
:10173000C988F2E7FEE7012A06D180B2032803DB5D
:10174000002060800AE04018010409D0628811007E
:1017500004D00949521862801204F4D10120F2BD6C
:101760000020F2BD38B505000C00FFF7ACFF6C801F
:1017700031BD0000FE060020FFFF000080B500F034
:10178000B2F901BD80B50921002000F039FA0A2123
:10179000002000F035FA0B21002000F031FA0C2176
:1017A000002000F02DFA0821002000F029FA09217C
:1017B000802000F025FA0821802000F021FA07217E
:1017C000802000F01DFA0621802000F019FA0F2178
:1017D000402000F015FA0E21402000F011FA0D21F2
:1017E000402000F00DFA0C21402000F009FA0B21F6
:1017F000402000F005FA0A21402000F001FA022101
:10180000402000F0FDF90121402000F0F9F900210D
:10181000402000F0F5F90521802000F0F1F90421C5
:10182000802000F0EDF90721002000F0E9F9062101
:10183000002000F0E5F90521002000F0E1F9042185
:10184000002000F0DDF90321002000F0D9F91F4944
:10185000002000F009FA1E49012000F005FA01BD40
:1018600000B583B00821684600F080FA012102200B
:1018700000F086FA002000F011FC0121162000F093
:1018800027FC01211C2000F023FCFFF77BFF6846AA
:1018900001214171002181700622027081710321B2
:1018A0004170C170022101710A4801680A4A0A4068
:1018B000C021890111430160684600F0E7F9012168
:1018C000002000F0B7F903B000BD00000000E0FF09
:1018D000FFF0FFFF005C0040FF0FFFFF70B500242A
:1018E0008E08012E15DB050001E0082C0CDA2878A3
:1018F0000002697801430802A97801430802E978E7
:101900000143200000F0B8F9641C2D1DE4B2B4427C
:10191000EBDB70BD80B500F013FC02BD80B5C046A6
:10192000C04601BD01480068704700009C070020C8
:1019300080B500F055FC01BD80B50021054A11704D
:101940000100002000F076FCC1B2052000F083FC0D
:1019500001BD00005606002010B55D4C002120009E
:101960000C3000F0CBFD012120000E3000F0C6FD50
:1019700002212000103000F0C1FD032120001230B0
:1019800000F0BCFD0120207110BD10B58EB0052106
:10199000684600F0EBF9062102A800F0E7F91821EB
:1019A00008A800F0E3F906214A4800F0DFF9052114
:1019B00006A800F0DBF9052104A800F0D7F9012101
:1019C0001C2000F085FB0021802000F019F9012186
:1019D000802000F015F90121102000F079FB00288B
:1019E00037D100F022FD01243B480168214301600A
:1019F0006846047000214170022282700322C27086
:101A0000017100F0CDFC0A21002000F043FD0B2104
:101A1000012000F03FFD0A21022000F03BFD0B21D8
:101A2000032000F037FD01220321182000F07EFD85
:101A300000F0B2FC684604722848089008A902A881
:101A400000F079FC00220421684600F0F7FC00F069
:101A5000EAFC0EB010BDF0B583B0002100241C4A92
:101A60001379012B30D1117113000C336D46C0CBAB
:101A7000C0C56B46958A1E889F88F619AD19958258
:101A8000D58A5E88AD19DB88EB1815786D1C15704A
:101A9000EDB2082D15DB1470958A0F240F262E4009
:101AA0002D09082E00DB6D1C95821D042D0D1C4098
:101AB000082C00DB6D1C938A0380458091820023F3
:101AC0000124D38200F0AFFC200003B0F0BD000081
:101AD000400700204407002000240040591900005E
:101AE00011480078704780B500F0C7F9FA218900E5
:101AF000FEF761FF401E8021490488420DD20B4948
:101B000048600B4802681202120AC0231B061343E6
:101B10000360002088600720086001BD024801784A
:101B2000491C017070470000B307002010E000E07E
:101B300020ED00E070B4334BC51801238B40DC432B
:101B40002E6826402E600025890041182E4E8919E6
:101B50000D602E4941181578012D0D6801D11D43E6
:101B600000E025400D602A4941185578002D0D6888
:101B700001D1254000E01D430D6026494118264D46
:101B800045199678012E02D12E681E4308E0022ED8
:101B90002E6804D126402E600D681D4303E02640C8
:101BA0002E600D6825400D601C494018D178002931
:101BB000016802D10C40046001E00B430360184847
:101BC0000168184B0B401179C903802212021140A1
:101BD00019430160002070BC7047134AFFE780186A
:101BE0000268CA40D007C00F7047104A00E0104A90
:101BF0008018026801238B40134303600020704764
:101C0000004AF5E70C0D0240000C0240000D0240B6
:101C10001C0D0240240D0240200D02402C0D0240FC
:101C2000080F0240FF7FFFFF040D0240100D02402D
:101C3000140D0240002802D001280AD012E04548C5
:101C4000026801239A43CB07DB0F13430360002094
:101C500070474048426840239A4389011940114324
:101C60004160F4E7042070473E4A002801D111602A
:101C700000E0516000207047102801DB042070470D
:101C8000FFE7394A800011500020704710B50278F4
:101C90003049022A03D9131F01D09B1E08D10B68BB
:101CA0002D4C1C405202E0231B01134023430B60C8
:101CB0004278032A03D9531F01D09B1E08D10B6819
:101CC000264C1C409201E0235B00134023430B6031
:101CD0008278012A06D80B682024A34352012240AF
:101CE0001A430A60C278032A06D80B681824A34353
:101CF000D20014401C430C600279032A06D80B68FA
:101D00000624A343520014401C430C604279012A6C
:101D100007D84B68124C1C4012028B0D1A4022430C
:101D20004A604A6880239A438379DB0180242340F8
:101D300013434B60C079002805D048684A0D024320
:101D40004A60012200E0002203211D2000F0EEFB8A
:101D5000002010BD005C0040FFF1FFFF3FFEFFFFD1
:101D6000FFFEFFFF0C5C0040405C0040002800D1FB
:101D7000704780B5002901D0FFF704FB01BDFEE7E5
:101D800070B402000020754B754C9C60754C9C60D3
:101D90000C0000D00121002A06D0022A26D00FD341
:101DA000042A48D030D354E01A680124A2430A43DD
:101DB0001A6000294ED0D968C90A21404AD1FAE7F1
:101DC000694C0122256C15432564256C02262E439F
:101DD00026641C680225AC434D0025431D60002984
:101DE00038D019698909114034D1FAE71A680424F6
:101DF000A2438C0014431C60012200292AD0596997
:101E0000090B114026D1FAE7574C22681D0C1543E7
:101E100025602268DD0B154325601A680824A2435B
:101E2000CC0014431C600122002913D09969890950
:101E300011400FD1FAE71A681024A2430C01144391
:101E40001C600122002905D0D96B890C114001D1F9
:101E5000FAE7042070BC704780B54049404A8A6068
:101E6000404A8A600A68E0239A43400103401343D2
:101E70000B6000F031FC002002BDF8B40020804D62
:101E800029886A88AB88EC886E462D8C3580334E65
:101E9000376807257F092F4006D0022F24D021D391
:101EA000042F2DD02AD353E0F0684005400D88421E
:101EB00001D174484CE0F0684005400D904201D1DA
:101EC000714845E0F0684005400D984201D16F48E7
:101ED0003EE0F0684005400DA04201D16C4837E07B
:101EE0006C4835E06C4833E06846008871698905C4
:101EF000890D884202D19620000229E0F00B27E0EC
:101F0000F06B8007800F03281DD1F0684005400D5D
:101F1000814201D15B4817E0F0684005400D8242E4
:101F200001D1594810E0F0684005400D834201D1CD
:101F3000564809E0F0684005400D844201D15448FC
:101F400002E0544800E05448F16BC905090F4843CA
:101F50003168090A0D40E840F2BC7047002000409B
:101F60005A5A0000A5A500008C0D0240F8B50700E4
:101F7000002069460870387800282ED002280ED03C
:101F800003D3042820D011D325E0504C206903212D
:101F90000143216120693021014321611DE04B4C47
:101FA0006069C02109010143616116E0474CA069E5
:101FB0000C210143A161A06903210143A161A06932
:101FC00030210143A16108E0404CE06BE02189022F
:101FD0000143E16301E00420087001213878FFF734
:101FE000CFFE3978394C414DA560414EA66020683E
:101FF000E022904349010A400243226000F06CFB5A
:102000007978A560A66022683A4810400902E0226B
:10201000D2000A4002432260B878A560A660216819
:10202000354A0A40C002C0214901014011432160E4
:1020300068460078F2BD000001000020002906D0AB
:1020400002290AD006D304290DD009D316E00C4981
:102050000A890AE00A49CA8807E009498A8804E02F
:1020600007494A8801E006490A8824490B68DB0AC7
:10207000DB025205520D1A430A6070470420704774
:10208000000C100000366E01408651010024F4005F
:1020900000127A0000093D000048E801010000201C
:1020A000002902D0012903D00DE015494A8801E03A
:1020B00013490A8813490B689B0A9B029205920DEB
:1020C0001A430A6070470420704700000020004057
:1020D000012282400C480029016802D00A430260B4
:1020E00001E0914301600020704700005A5A00004F
:1020F000A5A50000FFF8FFFFFFE7FFFF0C20004051
:10210000200C1000142000402020004080B53148F1
:102110004178027891420ED001782F4A515C80229A
:10212000D20511600178491C01700178402906DB55
:102130000021017001BD0621002000F033FB01BD2C
:1021400080B524490A784B785B1CDBB2402B00DB5E
:102150000023934201D1002002BD4B781E4AD05487
:102160005B1CDBB2402B00DB00234B701B4800687C
:10217000C105C90F03D10621002000F0D9FA0120C2
:1021800002BD80B50621002000F04EFB002801D0E2
:10219000FFF7BCFF0121002000F046FB002812D011
:1021A0000121002000F071FB002000F096FB0749A0
:1021B000074A0B78D0540878401C0870087820280B
:1021C00001DB0020087001BD00000000AC0700200A
:1021D00008070020AE070020600600200400004031
:1021E00080B5002000F0D0FB0020FFF725FF002085
:1021F0006946088088706846FFF7B8FE0020FFF740
:102200004DFF01210220FFF7BBFD0220FFF724FE56
:102210000420FFF711FF0020FFF71EFE002102201F
:10222000FFF7AEFDFFF729FE0149086001BD000080
:102230009C070020194A12189171401C80B2704707
:10224000020000200B0005D01378C018C0B2521C49
:10225000491EF9D1704738B5104D55222A70AA226F
:102260006A700322AA70E870080A28716971CC1D8F
:10227000611E89B22800FFF7E3FFA4B22919491EA5
:102280000870200007D0FFF737F8287800F0A4FB8B
:102290006D1C641EF9D131BD00000000A0060020B5
:1022A00070B55C4C01255C4E3068C008284007D0F2
:1022B000A068010000D080477068082188437060E2
:1022C00030688008284007D0E068010000D08047CF
:1022D000706804218843706030684008284007D047
:1022E0002069010000D08047706802218843706037
:1022F0003068284006D06069010000D080477068CF
:10230000A843706030680009284007D06068010069
:1023100000D08047706810218843706030684009A1
:10232000054007D02068010000D080477068202158
:102330008843706070BD4279012A04D14A69130054
:1023400001D0344B5A610278012A04D10A68130083
:1023500001D0304B1A604278012A04D14A68130038
:1023600001D02C4B5A608278012A04D18A6813006C
:1023700001D0284B9A60C278012A04D1CA681300A0
:1023800001D0244BDA600079012804D108690100EA
:1023900001D020490861704725480168C20B3FE021
:1023A00010B4002801D1042032E0427820490B68A3
:1023B0000C24A343920014401C430C6082780B68E9
:1023C000314C1C401203C0239B01134023430B607C
:1023D000C2780B682D4C1C405202C023DB00134016
:1023E00023430B6000790A68294B1340C002CA0CD2
:1023F00010401843086048680E4A02404A60486826
:102400000D4A02404A6048681E4A02404A60002065
:1024100010BC704728070020B0240040016801224A
:102420000A43026070473348F8E70148F6E70000C6
:1024300004240040FFBFFFFFFFDFFFFF30B4002890
:1024400001D104201CE00378294804682A4D254066
:102450009B02040D23402B43036003680C4C1C407B
:10246000D202C30C1A4022430260426C294B134033
:10247000491E0905C02292030A401A434264002003
:1024800030BC7047FFEFFFFFFFCFFFFFFFF9FFFFFB
:10249000FFF7FFFF002805D0022814D00BD3032834
:1024A00019D022E01F4802681F239A43C906C90EAB
:1024B0001143016019E01B480268174B13404901A2
:1024C000F82292000EE017480268144B134089026C
:1024D000F822D20106E013480268114B1340C903E9
:1024E000F82212030A401A430260002070470000DD
:1024F00008240040C8240040FFFBFFFF002801D053
:10250000042901DB04207047074A890051580180E3
:1025100000207047FFFFCFFF1FFCFFFFFF83FFFF7F
:10252000FF7FF0FF4C2400409024004070B4012352
:10253000C406E40EA340114C2360C40018252540B6
:10254000FF26AE40F4438907090EA940002804D5B0
:102550000B4D0007000F083800E00A4D800880008E
:10256000281805682C4021430160012A01D1064842
:1025700000E00648036070BC7047000080E200E0A5
:102580001CED00E000E400E000E100E080E100E09C
:1025900081B00020009000980028FCD001B0704766
:1025A00080B50020C046C04601BD80B50120C046B0
:1025B000C04601BD80B50220C046C04601BD80B501
:1025C0000320C046C04601BD80B50020C046C046BD
:1025D00001BD80B5012000F08BF901BD80B5002060
:1025E000C046C04601BD80B50120C046C04601BD01
:1025F00080B50020C046C04601BD80B50120C04660
:10260000C04601BD80B50020C046C04601BD80B5B2
:102610000120C046C04601BD80B50020C046C0466E
:1026200001BD80B50120C046C04601BD80B5022075
:10263000C046C04601BD80B50020C046C04601BDB1
:1026400080B50020C046C04601BD80B50420C0460C
:10265000C04601BD80B50520C046C04601BD80B55D
:102660000620C046C04601BD80B50020C046C04619
:1026700001BD80B5002000F0E0F901BD80B500206B
:10268000C046C04601BD80B50020FFF709FE01BD70
:1026900080B50020C046C04601BD80B50020C046C0
:1026A000C04601BD80B50120C046C04601BD80B511
:1026B0000020C046C04601BD80B50020C046C046CF
:1026C00001BD80B5002000F055F901BD80B50020A6
:1026D000C046C04601BDFEE780B50AE080B50748A8
:1026E000008807490A68D20AD2024005400D10430B
:1026F0000860FFF7C2FB0349086001BD080C100029
:102700000C200040DC00002010B40100002000225A
:10271000404B1C68A14204D1D000801A80001818D8
:1027200003E00122DC69A142F6D010BC7047000032
:1027300010B40022374B1C68A04203D00122DC6990
:10274000A0422DD1D000801A80001A18062927D85F
:1027500001A0405C874400BF081848202A343E008E
:102760005068416802220A434260002010BC704752
:10277000506841680122F6E7506841688022920360
:10278000F1E75068416880225203ECE750684168E5
:1027900080229201E7E75068416880225200E2E718
:1027A0000420E3E710B400221A4B1C68A04203D0B7
:1027B0000122DC69A0422BD1D000801A80001A18B7
:1027C000062925D801A0405C874400BF0818442092
:1027D0002C343C0050684168022291434160002043
:1027E00010BC7047506841680122F6E750684168A4
:1027F000094A0A404260F2E750684168074AF8E730
:1028000050684168064AF4E750684168054AF0E7B5
:102810000420E5E7E0000020FFFFDFFFFFFFEFFF00
:10282000FFDFFFFFFFFEFFFF38B50C000025FFF7BD
:102830006BFF002801D1042032BD062C23D801A152
:10284000095D8F44060E1820283038004068006962
:10285000400617E040680069C507ED0F13E04068C7
:10286000006980070EE040680069C0060AE0406821
:102870000069400706E040680069800602E04068A1
:1028800000690007C50F280032BD10B50C00FFF726
:102890003BFF002801D1042010BD002C06D0022CE3
:1028A0000CD007D3042C11D00CD314E0406841693C
:1028B00020220EE04068416901220AE04068416937
:1028C000022206E040684169102202E04068416946
:1028D000042291434161002010BD80B5FFF714FF31
:1028E000002801D1042002BD40680068C0B202BDCA
:1028F00070B50600FFF708FF040039D060680125B5
:1029000001698908294005D004213000FFF7BDFF87
:10291000E0682AE001690909294005D00321300057
:10292000FFF7B3FFA06920E000694009284006D006
:102930003000FFF7AAFF6069010000D0804760689F
:102940000069284007D001213000FFF79EFF206971
:10295000010000D08047606800694008054007D04A
:1029600002213000FFF791FFA068010000D08047EE
:1029700070BDFEE703480068010000D1704780B5D4
:10298000804701BDA407002012490A6880231B0666
:1029900013430B600E490C4ACA600C4ACA600C22F1
:1029A000D243030003D1086802400A6009E001280D
:1029B000086802D10240042001E0024008201043D0
:1029C00008600020704700005A5A0000A5A50000CA
:1029D000200002402020004080B5FEF785FC01BDAC
:1029E00010B51F490A680F239A4303781B071B0F72
:1029F00013430B6042681B4B1A600A6820239A43FA
:102A000043785B012024234013430B604078002867
:102A100004D0012203211620FFF788FD002010BDFD
:102A200011481E210160E1210160002070470E481D
:102A30001E210160E121016070470B4841680A06D0
:102A4000D20F00D1704780B51E210160E1210160E5
:102A500004480068010000D0804701BD000000006C
:102A6000840F0040A8070020800F00403CB4040001
:102A70001800049D059B002C06D0834202DB002930
:102A800009D005E0981806E09D4203DB002902D139
:102A9000280000E0981A00B236BC704738B5FEF73F
:102AA0002FF804007B4D2A002900042000F04EFC82
:102AB000C0070AD50420A076FA2189000020FEF77D
:102AC0005BF9E07B022836D132E02A00724901200E
:102AD00000F03CFCC0070BD50620A0760120207436
:102AE0006E490020FEF748F90020E073607431BDA4
:102AF0002A002900102000F029FC800708D50020BA
:102B0000A0752A21615E6180E1830121A17610E038
:102B10002A002900022000F019FCC00706D42A0070
:102B20002900082000F012FCC00704D50120A0767F
:102B30000020E073A07431BDF0B583B0FDF7E0FF75
:102B40000400544F3A003900042000F0FFFBC00796
:102B500004D50025A576E573A57498E00525C8225F
:102B60004F49022000F0F2FB28420AD00120A17C4C
:102B7000002976D00020A07447490320FEF7FCF816
:102B800085E0C8224649082000F0E0FB284201D039
:102B90000020ECE73A004249012000F0D7FB062173
:102BA00008421CD0022809D1A176002525743B4992
:102BB0000020FEF7E1F8E573657468E0042866D14B
:102BC00000F0FEFB002806D0E07D012801DB00209C
:102BD00000E0401CE075012000F016FB57E00226E3
:102BE0003A003900102000F0B1FB304215D0A07D32
:102BF000012801DB002000E0401CA07520002A30E5
:102C0000A17D012901D120002C300021405E60808F
:102C1000E083E173A174E17539E004253A002049AD
:102C2000E80100F093FB284231D13A001A4928020A
:102C300000F08CFB28422AD0A67600252572E07988
:102C4000FE210140E1716572A9490020FEF794F868
:102C5000A8490120FEF790F82576E0790643E67151
:102C600015E00221615E01912621615E009124211F
:102C7000635E05220021FFF7F9FE6080E17D0A0016
:102C800001D1E08303E0012901D10220E07503B006
:102C9000F0BD0000FFFF00008813000010270000B7
:102CA000B80B00007CB50400FDF72AFFC51D6B784A
:102CB00019000D2900D919E101A24900525A97447F
:102CC0001A005A007C009C00BA002A022A02EE0078
:102CD0001C0152015201BE01E40108022978C90712
:102CE00015D50600203601002431097C012901D1C7
:102CF000060022360020305E01905E20C043009026
:102D00006423052200212000FFF7B0FE30802878E0
:102D1000012101432970B2490220E5E00500243574
:102D20000020285E01900220285E0090E1239B0095
:102D3000052200212000FFF799FE288073BD0500C1
:102D400024350220285E01903220009000202B5E66
:102D5000052200212000FFF789FE688073BD050071
:102D600024350420285E019005200090642305226C
:102D700000212000FFF77AFEA88073BDA87DC1075F
:102D8000C90F002C03D001290CDA491C02E00129EB
:102D900006DB491E0AB2521E9241D243D20F02E014
:102DA000012200E00022FE2101400A43AA7573BD02
:102DB0000500243506216A5E002C07D0AF214900AA
:102DC0008A4201DB0A0006E0521D04E0332A01DAE0
:102DD000322200E0521FEA8002002A3213E005008E
:102DE000243508216A5E002C05D0AF2149008A42B3
:102DF00006DA511D04E0332A01DA322100E0511FC6
:102E0000298102002C320220295E0020285EFDF775
:102E10002AFF73BD01002E3102002F320A2B03D18D
:102E200001002F3102002E32A87D83071FD50B78B9
:102E3000052B0BD1260009D1FD230340AB750520DE
:102E400010700B78062B09DA052308E0002CF9D066
:102E5000F02B01DBF02302E05B1D00E05B1F0B7039
:102E6000B0480078002841D00878107073BD002C5D
:102E70003CD002210143A9750120AA49087073BD05
:102E8000050024350E20285E002C05D0642801DBC7
:102E9000642006E0401D04E02E2801DA2D2000E029
:102EA000401FE88173BD05002435A87C002C05D0A7
:102EB000032801DB032006E0401C04E0012801DABE
:102EC000002000E0401EA87473BD0020A870FA2105
:102ED00049000220FDF750FFA87D04210143A97598
:102EE000FDF7C0FD3E490020FDF746FF73BD000021
:102EF0003075000060EA0000F8B5FDF701FE04003F
:102F000001269B490020FDF737FF9A490120FDF774
:102F100033FF00252576984A1146042000F016FA62
:102F2000C00701D5A576F1BD934A1146012000F0F6
:102F30000DFAC0070FD5207A401CC0B20E2800DB66
:102F400000202072774805706572207A05281FD10D
:102F500007202072F1BDC8228849022000F0F6F94E
:102F60000527384215D0217A0D2906D101280FD125
:102F7000607A010001D003280AD13000FFF792FEE9
:102F8000E079FD210140E1717D490720FDF7F4FE64
:102F9000F1BDC8227A49082000F0D8F938420BD098
:102FA000217A0D2906D10128F2D1607A010001D0E1
:102FB0000328EDD10026E0E76F4A1146102000F00B
:102FC000C5F9C007E4D5A5752A20205E6080E0839E
:102FD000A676E573A574102000F016F9F1BD000087
:102FE00088130000F8B5FDF78BFD0400624D2A0040
:102FF0002900042000F0AAF9C00702D50020A0761D
:10300000F1BDFA27FF0004262A003900022000F053
:103010009DF9304209D0002020730020E072012089
:10302000A072207BFEF776F9F1BD2A003900082056
:1030300000F08CF9304201D00120EDE72A00290090
:10304000102000F083F98007EED50020A0752A211A
:10305000615E6180E1830121A176E073A074F1BD1E
:10306000F8B5FDF74DFD040001250126424A114641
:10307000042000F06BF9C00719D5607C002801D04E
:10308000022000E0A074E073207C002808D1A5761F
:10309000E07B022844D13B490320FDF76DFEF1BDE2
:1030A0000020A076E07B02283AD1A574F1BD052767
:1030B000C8223349022000F049F9384207D1C8221A
:1030C0002F49082000F042F9384210D00026E5735D
:1030D0002D490020FDF750FE29490320FDF74CFE45
:1030E000607C002E16D0302812DB002017E0224A28
:1030F0001146102000F02AF9800711D50020A07594
:103100002A21615E6180E183A576E073A074F1BD40
:10311000401C04E0012801DA302000E0401E607409
:10312000F1BD0000B107002010B5FDF7E9FC040077
:10313000E07E012805D10220E07611490420FDF748
:103140001BFE0D4A0F498020400000F0FFF84007A9
:103150000BD5A07E012808D1E07E022801D10020F5
:1031600002E0002801D10120E07610BD000000003F
:103170003075000060EA0000FFFF0000DC05000081
:10318000B80B0000881300001027000010B5FEF7F0
:1031900097FA00F0A6F800F02DF8002828D0FDF7E7
:1031A000AFFC0400A07902210143A17100F058F99D
:1031B00000F05EF9FFF7B8FFE07E002818D1A07E8E
:1031C000002813D001280ED0022809D0052804D0E9
:1031D00006280DD1FFF744FF10BDFFF703FF10BD18
:1031E000FFF78AFE10BDFFF7A7FC10BDFFF756FCE6
:1031F00010BD000070480178002903D00021017043
:1032000001207047002070476B494A8A104348826A
:10321000704770B500260024300000F089F90028BE
:1032200004D020000124B4400443A4B2761C082E2C
:10323000F2DB200060498A88944209D1130007D04C
:10324000802040002043040090434B8A1A434A8266
:10325000CA88A3B293420CD113000AD080239B00EA
:103260001C43A4B205001800284390434B8A1A431C
:103270004A820A89A3B293420BD1130009D080235A
:10328000DB001C4305001800284390434B8A1A4377
:103290004A824A89A4B2944209D1130007D003009C
:1032A00080200001184390434B8A1A434A8280B21F
:1032B00070BD41494A8B821A92B24883CB8A002B57
:1032C00004D0934201DB9B1A00E00023CB820B8BDE
:1032D000002B04D0934201DB9B1A00E000230B83F8
:1032E000704738B50024344D6978002904D0281D72
:1032F00000F009F96C7031BDFFF7DBFFFFF789FFC4
:10330000A9890A0042400DD0EC70AA78521CAA701C
:10331000D2B2062A18DBAC704140E981A88128822C
:1033200001200BE0AC7001000AD0E978491CE9707B
:10333000C9B2062908DBEC7028820220287031BD52
:10334000EC702C826C82AC822C7031BD70B41A4B44
:103350005C8A04422CD1DC8904409D8A054210D04D
:103360001E8A3040002C03D00021D98101001DD0DD
:1033700000281DD0D88A198B014319D11A83042043
:1033800017E0002C14D00022DA811E8A06420DD0EC
:103390000A4CA14204D1864206D1DA821A8303E0A4
:1033A00028439882D9821A83012002E0022000E09B
:1033B000002070BC7047000090000020FFFF00005C
:1033C00003480079032801D101207047002070478D
:1033D0005800002010B5FDF795FB04003E2000F0DA
:1033E000C7F8200000F0F5F800280AD0FDF788FBA8
:1033F000417FFB220A404277FDF734FB200000F0BA
:1034000008F910BD38B5FDF77DFB0400164D28788E
:10341000012806D1687000202870FEF751F96880F5
:103420000DE002280BD1200000F0D3F8002804D0D2
:10343000FDF718FB200000F0ECF8002028706878F9
:1034400000280CD0FEF73CF96988401A80B2074981
:10345000884204DB00206870200000F0DAF831BDFB
:10346000012001490870704794070020E90300001B
:1034700080B5102000F026F901BD80B5FEF720F9D7
:1034800000F028F901BD00B583B00120694608703D
:10349000487088700020C8706A4604210AE000B5B0
:1034A00083B0012069460870487088700020C87099
:1034B0006A460521C020FEF73DFB03B000BD00B504
:1034C00083B0012069460870487088700020C87079
:1034D0006A460221EFE700B583B001206946087013
:1034E000487088700020C8706A460121E3E700B583
:1034F00083B0012069460870487088700020C87049
:103500006A460021D7E710B50400FFF7BCFFFFF7BC
:10351000C6FFFFF7D4FFFFF7DEFFFFF7E8FF0A2043
:103520002080122060801120A0800020E08010BD4B
:1035300010B50024002806D002280AD006D304289B
:103540000DD009D312E00421C0200AE00521C020DB
:1035500007E00221002004E00121002001E0002119
:103560000020FEF73AFB002800D10124200010BD06
:1035700080B553490870012000F0CCF801BDF8B5C2
:1035800007000E0000244E4D2A78921CD2B2FC2176
:10359000090200F091F939002878801CC0B200F0CF
:1035A000C1F9002800D101242A78921CD2B2FE2150
:1035B0000902300000F080F931002878801CC0B288
:1035C00000F0B0F9002802D12000022404432000BA
:1035D000F2BD10B5C0B00400694620A8FFF7CFFFC8
:1035E0008107890F032901D1012010E00021C207C2
:1035F00001D5684606E020A804E0421852786254DB
:10360000491CC9B22E4A12789142F6DB002040B024
:1036100010BDF0B5E1B006000024012521A941A8A4
:10362000FFF7ADFF81070DD0C10704D521A80478AD
:10363000641C651C0CE080070AD521A805786D1C68
:103640006C1C05E041A80478A41C21A80578AD1CD9
:1036500032001B480178E0B200F058F96946087062
:10366000320017480178E8B200F050F9070014481A
:103670000278100008D001A8401C110033780370B4
:10368000761C401C491EF9D101AE347068460078A2
:10369000B1184870921CD2B2FC21090201A800F0B6
:1036A000F5F8357006480278B0184770921CD2B20F
:1036B000FE21090201A800F0E9F861B0F0BD0000A8
:1036C000B407002080B5010001D01149488000F006
:1036D0005CF901BD10B50E4C2178002902D00129FA
:1036E00005D010BD00F037F90120207010BDA18871
:1036F000411AFA229200914209DBA0806088010001
:1037000005D0401E6080000401D100F044F910BDD6
:1037100076070020F0B591B0040009A86BA1202223
:1037200000F040F901A800BF70A1202200F03AF992
:103730000020012C01D009A900E001A9FF226B465D
:103740001A7082004B4B4C4C6F4605E04B4D256088
:103750004B4D25608D589D509D588E58B54207D0D1
:103760006D462D786E1E3E70002DEFD1002003E0D7
:10377000401C0828E2D3012011B0F0BDF8B4C10507
:1037800016D1FF2100913E4A3C4B03243D4D06E0FB
:10379000EB60EA602E68A643022737432F602E684D
:1037A0002640022E06D0009E771E0097002EEFD1F5
:1037B000002019E0EB60EA600024E4432C6100245F
:1037C00004600091012029680909014009D000998D
:1037D0004E1E00960029F6D1EB60EA602C610020B5
:1037E00002E0EB60EA602C61F2BC7047F8B50D00B6
:1037F000FF210091C401600A234A136898420ED049
:1038000010604002FFF7BAFF09E01C49C1601C4983
:10381000C16001680322914301220A4302601948F2
:1038200001688907890F012905D000994A1E009275
:103830000029EAD1F1BD1149C160114AC2600023DB
:10384000DB43036180232E782670FF2600960668EE
:10385000F706FF0F05D0009E771E0097002EF6D1C9
:10386000F1BD6D1C641C5B1EEDD1C160C260002106
:103870000161F1BD000002402C0002405A5A0000D4
:10388000A5A5000020000240A00700200B00812A0F
:1038900000DB704710B5A0B0110006D0694604786F
:1038A0000C70401C491C521EF9D169465802000C8C
:1038B000FFF79CFF20B010BD130005D00B780370FC
:1038C000491C401C521EF9D170470000B100000095
:1038D0007F00000095000000D484010038D00B0068
:1038E000850000002F0500009A1500002000000050
:1038F000170000001B00000050460000E0220200FC
:1039000018000000F0000000E803000003000800B9
:1039100005D010781B18DBB2521C491EF9D1452086
:103920005840704730B4421E0023140607D00C00E4
:10393000D2B225785B19DBB2641C521EF9D1452244
:103940005A400818401E0078824201D1012000E050
:10395000002030BC704700B583B001211C20FEF769
:10396000B7FB002069460860012008710D21802006
:10397000FEF73DF96A460D218020FEF7DBF80D21A8
:103980008020FEF734F903B000BD80B50D21802002
:10399000FEF72BF901BD80B50D218020FEF727F938
:1039A00001BD000070B4103A03D378C9103A78C052
:1039B000FBD2530701D318C918C001D508C908C0E4
:1039C000D20704D30B880380891C801C002A01D5F0
:1039D0000B78037070BC704780B5FDF791F8011D3E
:1039E0008A78D20717D53422805C022813D1887ACE
:1039F000002810D12C20085E00228A5E824207DB5C
:103A00000120754A10708878FE2202408A7001BD3C
:103A10001E38904202DB00206F49087001BD38B5A6
:103A200005000024FDF76CF81A30017F002D0FD03F
:103A300000291DD001291CD00021002000F00FF921
:103A4000002C1BD096218900012000F0F3F831BD35
:103A5000012904D0F0D3032903D009D3ECE70124D2
:103A6000EAE70178002903D11821405E2D28E3D030
:103A700001241421002000F0DDF8E1E700210120FD
:103A800000F0EDF831BD70B5FDF73AF80400534E83
:103A9000607F800735D5B078002832D0A079C00784
:103AA0002FD5E07C00280AD120750125E574FDF7AB
:103AB00007FEB0804A490520FDF75EF927E0FDF7D3
:103AC000FFFDB188401A80B24649884220DBFDF7ED
:103AD000F7FDB080207D401C207521002E31E27C56
:103AE000022A00D1491C0978C0B2884210D30020B4
:103AF0002075022A02D00220E0740CE00120E0745C
:103B000070BD00252575E574FDF7DAFDB08065759B
:103B1000E07C022803D1A079FE210140A17170BD93
:103B200038B5FDF7CDFD00F0B1F82C4D2878010037
:103B300004D1FDF7C5FDE88001200AE001280AD183
:103B4000FDF7BEFDE988401A80B22749884240DB74
:103B50000220287031BDFCF7D3FF0400FCF7D0FF32
:103B6000817E0A0006D0022904D0062915D1007CE6
:103B7000012815D10020A870FE25A1792940A17146
:103B8000A17E00291AD13221615E2E2916DBA17B8C
:103B9000002913D100F09AF810E0807B0028E9D1C9
:103BA0000120A87000F092F8A179FE220A4010438B
:103BB000A071FFF711FF0020687003E0A1790D40AC
:103BC0002843A071FFF75FFFA179C807C00FFFF777
:103BD00026FF31BD00000000B2070020840700204E
:103BE0008813000060EA0000B90B000010B5040063
:103BF000207A01280BD16089010002D0401E60812B
:103C00000FE0607A00280CD02068804709E0002887
:103C100007D1A089010002D0401EA08101E06068A8
:103C20008047E089010002D0401EE08110BD0120E4
:103C3000607210BD002802D0012808D070472248C9
:103C4000027A012A0AD001220272418170471E487D
:103C5000027E012A02D001220276418370470028A9
:103C600002D0012809D070471748027A002A0CD0E8
:103C70000022C2810281818170471348027E002A9E
:103C800003D00022C28302838183704710B50E4C9B
:103C90002021615C002902D0012906D010BD00F06E
:103CA0009BF801202021605410BD618C411A89B21B
:103CB000642907DB60842000FFF798FF20001030A4
:103CC000FFF794FF10BD0000B80000201E49087ADD
:103CD0000A884B88D21A12B20423CB5E9A4201DBC7
:103CE000012070470623C95E4B42934200DB00204F
:103CF000704710B5FDF7E4FC134CA189401A80B25F
:103D0000FA21490088421DDBFDF7DAFCA081FCF7AF
:103D1000F7FE817E002905D0018DA180018DE18013
:103D2000418808E03221415E2E2905DB0021A18077
:103D30001E21E180418E2180018861808079C10748
:103D4000C90F217210BD00006807002000B583B0C4
:103D500001211C20FEF7BCF9002069460860012003
:103D600008710A218020FDF742FF6A460A2180205F
:103D7000FDF7E0FE0A2114E000B583B001211C200C
:103D8000FEF7A6F9002069460860012008710B21A2
:103D90008020FDF72CFF6A460B218020FDF7CAFE2C
:103DA0000B218020FDF723FF03B000BD00B583B0D9
:103DB00001211C20FEF78CF90020694608600120D3
:103DC00008716A460F210020FDF7B4FE0F21002084
:103DD000FDF70BFF03B000BD80B5FFF7E7FFFFF76E
:103DE000B5FF0A218020FDF702FFFFF7C5FF0B2179
:103DF00007E080B50A218020FDF7F7FE01BD80B500
:103E00000A218020FDF7F3FE01BD80B50B21F2E70A
:103E100080B50B21F5E7000010B5FDF751FC1A4CF9
:103E20006188401A80B2194988420CDBFDF748FCD2
:103E300060802078401C2070C0B21E2803DB002068
:103E400020700120607010BD10B5FCF759FE040011
:103E5000E07B022814D1FFF7DFFF607C00280AD046
:103E60000948417800290ED000214170607C401E35
:103E70006074000607D10020E073207CA07610BD9E
:103E800000200149087010BD9807002060EA00007A
:103E900080B500F020F800F022F8FDF749FDFDF7AD
:103EA0006DFCFFF797FA62B6FCF72EFE00F017F8EC
:103EB000FDF7E0FBFFF7E1FAFDF7B4F8FFF719FFB4
:103EC000FFF7A0FAFCF70AFDFFF760F9FFF728FEFD
:103ED000FFF7BAFFEAE780B500F007F801BD80B54B
:103EE00000F01EF801BD0000704700B583B001214D
:103EF0000F20FEF7EDF808216846FDF737FF68460A
:103F00000B21017000214170044801906846FEF7C2
:103F100067FDFEF785FD03B000BD0000E93E00002F
:103F200080B5FEF784FD01BD70B40121002213E0CD
:103F30000468001D0C4202D04D466D1E64192260BB
:103F4000241D1B1F042BFAD225009E0701D52280B9
:103F5000AD1C0B4000D02A700368001D002BE7D178
:103F600070BC704730B501684118446862088A180F
:103F70008368E40701D54C461B19914201D10C30EE
:103F800030BD0C7864B2491C0D78491C1D705B1C57
:103F9000002C02D5641CF9D1EFE7641EF4D5ECE7E0
:103FA00005480022874500D90244044802600448BD
:103FB00080470448004700000000002008ED00E0B2
:103FC000DD2600004D40000010B507497944183146
:103FD000064C7C44163404E0081D0A68891888479A
:103FE0000100A142F8D110BD08000000240000002B
:103FF00039FFFFFF980200002005002000000000AC
:1040000065FFFFFF540000001E01000000000020BB
:104010000120C046002801D0FFF7D6FF0020C0468F
:10402000C046FFF735FF00F000F880B500F002F859
:1040300001BD00000746384600F002F8FBE700002B
:104040002021090326311820ABBEF9E7C046C0463F
:10405000C046C046FFF7DCFF04DC00DC00DCE90002
:10406000020100DCFB000E5E0164000A00DC00A01F
:10407000000505A4012DFC0023020600C80008006D
:1040800096000B1E96000C00AA001100DC00161E04
:1040900096000800C80017009600080004EF000111
:1040A000FF01E4000078FA000001E20002DC00DC1D
:1040B000FB0005F33D0000FF3DFD000001FA000597
:1040C0000B3E0000113EFD000001F50001093DF826
:1040D000000040EC000001FC0002010040EC000682
:0740E000DC00DC0000FF0022
:040000050000404D6A
:00000001FF
