:10000000C0040020C55B0000A73A0000633900006F
:1000100000000000000000000000000000000000E0
:10002000000000000000000000000000CF420000BF
:1000300000000000000000000B5B0000C93400005D
:10004000713900007B390000853900008F390000CC
:1000500099390000073A000029370000A339000051
:10006000AD390000B7390000C1390000CB390000BC
:10007000D5390000DF390000E9390000F33900000C
:10008000FD390000113A00001B3A0000253A00003B
:100090002F3A0000393A0000433A00004D3A000080
:1000A000573A0000613A00006B3A0000753A0000D0
:1000B0007F3A0000893A0000933A00009D3A000020
:1000C000F0B504000D00002624B2002C04D5012058
:1000D0000600200000B2444224B2F920800084428D
:1000E00001DB8F48040024B22000642100F00AFEE6
:1000F0008C49085C287024B22000642100F002FEC4
:1001000008000A2100F0FEFD8649085C6870854FF2
:1001100024B220000A2100F0F5FD785CA870F6B248
:10012000002E03D07F48C07A287007E07D48007811
:100130002978884202D17B48807A2870F0BD7A4BBA
:100140001870794B5970784B9A70704710B4764C90
:10015000E070754C2171744C627110BC704710B521
:1001600004007149200000B2FFF7AAFF01212220FC
:1001700000F020FF01211F2000F01CFF10BD10B572
:1001800004006A49200000B2FFF79AFF0121152000
:1001900000F010FF0121092000F00CFF10BD70B528
:1001A00082B000F0E3FF060000240125EDB2002D2F
:1001B0003BD0B07BC00702D5012004000DE0B07B2E
:1001C000800702D50220040007E00020305EFFF720
:1001D000C6FF01211E2000F0EDFEE4B2002C24D069
:1001E00079205149087050204F4948704D48E4B279
:1001F0000019401E00784C498870B079C0B2800860
:100200000100C907C90F00290FD06846B8490A88FC
:10021000028001216846E4B20019401E007800F017
:10022000C9FE0121262000F0C5FE73BD38B50400CB
:100230000D00EDB2002D07D0200000B2FFF79FFFA8
:100240000121162000F0B6FE31BD70B582B000F07D
:100250008DFF04000025A07E062802D101200500A4
:1002600007E0A07C002804D0E07B022801D1012017
:100270000500EDB2002D51D0607C31284EDA012608
:1002800068469C490A88028001211C2000F092FEE9
:1002900001216846227C805C00F08CFEE07B002817
:1002A00009D1A079C0B280080100C907C90F00298F
:1002B00001D000200600F6B2002E2FD0607C022173
:1002C00000F020FD0A2100F01DFD1649085C1649CA
:1002D000C8701548C07813490978884202D10020B7
:1002E0001149C870607C022100F00CFD0A2100F069
:1002F00009FD0C48405C0C490871607C022100F04B
:1003000001FD002903D06D200749487102E03F201C
:10031000054948710121152000F04CFE73BD000015
:10032000E3030000B05C0000AC050020AF05002036
:1003300038B504000D000121132000F03BFEE4B2AB
:10034000022C06D1EDB2002D03D00021132000F0C5
:1003500031FE31BD10B500F009FF040001210B2072
:1003600000F028FEA0790100C907C90F002904D0B8
:1003700001210C2000F01EFE18E0607FC0B2400892
:100380000100C907C90F00290CD0E07C022804D164
:100390000121032000F00EFE08E00121172000F0EB
:1003A00009FE03E00121172000F004FE10BD10B586
:1003B00000F0DCFE0400A0790100C907C90F002984
:1003C00004D00121182000F0F5FD17E001F0CAFB70
:1003D000002813D0A079C0B280080100C907C90F56
:1003E00000290BD00121182000F0E4FD0121192083
:1003F00000F0E0FD0121272000F0DCFD607FC0B2AD
:1004000040080100C907C90F00290ED0E07C02286E
:100410000BD1A079C0B280080100C907C90F00291B
:1004200003D001210F2000F0C5FD10BD10B500F074
:100430009DFE040001211A2000F0BCFDA079C0B28D
:1004400080080100C907C90FE07EFFF771FF012195
:10045000242000F0AFFD0121252000F0ABFDA07DA0
:10046000002804D10121122000F0A4FD03E00121A5
:10047000082000F09FFD10BD10B50400E4B2002C70
:1004800003D001210E2000F095FD10BD10B500F045
:100490006DFE04003220205E2E280DDB01210D2090
:1004A00000F088FDA079C00706D5A079400703D5E4
:1004B00000210D2000F07EFD10BD10B500F056FEAD
:1004C0000400FFF76CFEFFF7C0FEFFF7DFFFA07C24
:1004D00000280CD10121012000F06CFD3F200649CD
:1004E000C87071200449087171200349487110BD1A
:1004F0004A260000662B0000AC05002010B500F075
:1005000035FE0400FFF74BFEA07C01214140C9B23B
:100510000220205EFFF78AFEFFF797FEFFF71AFF23
:10052000FFF784FFFFF743FF10BD0000F0B585B073
:1005300000F01CFE04000025207A0500EDB2622DBB
:100540001FDAEDB22800401C0A2100F0DBFB6946EF
:1005500048716E46EDB22800401C0A2100F0D2FB23
:10056000B17168464079002805D0CF48694649797D
:10057000405C6949C870CC4869468979405C6649E5
:1005800008710121232000F015FD00270020694695
:100590000871207A00281DD0022862D057D3042881
:1005A00073D068D3062800D1CBE000D28CE00828B5
:1005B00000D1DEE000D2D2E00A2800D1E3E000D290
:1005C000E1E00C2800D160E100D246E10D2800D125
:1005D00077E1A7E10121002000F0ECFCE0790100C7
:1005E000C907C90F00290AD00120070020002030C8
:1005F00006003420205C012828D1B61C26E000200B
:100600003421615C012905D1A17B890707D502212D
:10061000080004E0A17BC90701D501210800C0B290
:1006200000280DD079213C4A117050213A4A51706E
:100630009D49C0B20818401E00783749887005E00F
:10064000260001210F0001216A4611716AE1012192
:10065000022000F0AFFC012007002000243006003B
:1006600060E101211D2000F0A5FC01200700200011
:100670002630060056E101211B2000F09BFC0120E2
:1006800007002000283006004CE10121212000F065
:1006900091FC0121012000F08DFC607F0100C90761
:1006A000C90F002906D03F201B49087037201A497E
:1006B000487008E03F2018490870712016494870BA
:1006C0007120154988702DE10121112000F072FC84
:1006D0006846B7490A68026001216846007800F060
:1006E00069FC01216846407800F064FC01216846FD
:1006F000807800F05FFCA079C0B280080100C907D3
:10070000C90F00291CD03420205C002806D0022804
:100710000ED008D314E000BFAC0500200021072054
:1007200000F048FC0CE00021102000F043FC07E042
:100730000021072000F03EFC0021192000F03AFCC7
:10074000F0E00121192000F035FC0121272000F004
:1007500031FC01200700200030300600E2E00121DA
:10076000122000F027FC0120070020002A3006009C
:10077000D8E00121082000F01DFC01200700200026
:100780002C300600CEE003A88A490A8802800121A5
:10079000202000F00FFC0121032000F00BFCEDB243
:1007A000092D59DB012103A8EDB240190938007861
:1007B00000F000FC20002E300290607FC0B24008A4
:1007C0000100C907C90F00293DD0EDB20A2D02D1A1
:1007D0000298401C029002980078F1283CDA0298B6
:1007E0000078642100F08EFA2F49085C7249087085
:1007F00002980078642100F085FA08000A2100F0D0
:1008000081FA2949085C6C49487027480090029891
:1008100000780A2100F076FA0098405C66498870FA
:100820006548007820490978884215D1002062493E
:100830000870614840781C49097888420CD1002032
:100840005D49487008E03F205B49087071205A49B3
:10085000487071205849887064E001210D2000F033
:10086000A9FB3220205E2D2809D13F205249087073
:1008700071205149487071204F49887004E001206F
:1008800007002000323006004CE00121282000F053
:1008900091FB3620205C0A2100F034FA0249085C02
:1008A00045490870004801E0B05C00000090362027
:1008B000205C0A2100F026FA0098405C3E4948700E
:1008C00030E00121142000F075FB607A00280BD184
:1008D000A079C0B280080100C907C90F002920D043
:1008E0004020354908701CE0607A012803D140207F
:1008F0003149087015E0607A022806D140202E495F
:10090000087040202C4948700BE0607A032808D119
:100910004020294908704020274948704020264936
:100920008870FFE7FFB2002F0BD00020305EFFF78A
:1009300016FC68460079002803D001211E2000F033
:1009400039FBA079C0B280080100C907C90F00298E
:100950000BD0E079C0B240080100C907C90F0029D7
:1009600003D00121252000F025FB05B0F0BD4F206C
:10097000114908707D201049487031200E49887057
:10098000BD48BE49027830239A43895C0A4AD17037
:10099000BA49827830239A43895C074A1171B74972
:1009A000027930239A43895C034A517170470000F1
:1009B000045D00001E360000AC05002010B500F0FC
:1009C000D5FB0400012000F028FB607FC0B2800846
:1009D0000100C907C90F00295FD00021232000F0C2
:1009E000E9FA0021002000F0E5FA0021022000F0E1
:1009F000E1FA00211D2000F0DDFA00211B2000F0AB
:100A0000D9FA0021212000F0D5FA0021012000F0C0
:100A1000D1FA0021112000F0CDFA0021072000F0CA
:100A2000C9FA0021102000F0C5FA0021192000F0B9
:100A3000C1FA0021202000F0BDFA0021062000F0BC
:100A4000B9FA00210F2000F0B5FA0021142000F0BF
:100A5000B1FA00211C2000F0ADFA00210A2000F0BC
:100A6000A9FA0021272000F0A5FA0021282000F093
:100A7000A1FA0021262000F09DFA00210D2000F0AF
:100A800099FA0021162000F095FA0021042000F0C8
:100A900091FA0021052000F08DFA10BD30B587B025
:100AA00000F064FB0400A07A00280ED10F22092177
:100AB0003920FFF744FB792338225E210420FFF719
:100AC00045FB0120FFF7D8FC97E0A07A012816D15A
:100AD0000F2209213920FFF732FBA079C0B280082C
:100AE0000100C907C90F002905D06E2338227921DA
:100AF0005E20FFF72BFB0120FFF7BEFC7DE0A07A14
:100B000004280ED137223F210020FFF718FB79235C
:100B1000372204213820FFF719FB607BFFF7ACFC7C
:100B20006BE0A07A022816D103A867492CC92CC013
:100B30000C390C38684665492CC92CC00C390C3866
:100B400063486946E27A895C4018401E03A9E27A4C
:100B5000895C017007E0A07A032804D1382277214C
:100B60007120FFF7ECFAA0790100C9B289080800EA
:100B7000C007C00FFFF780FC01F0C1F900280CD0BE
:100B8000012811D0022816D003281BD0042820D019
:100B9000052825D0FF282AD02FE0312350227721A5
:100BA0006D20FFF7D3FA28E000230022732177207D
:100BB000FFF7CCFA21E0392331223F213720FFF71C
:100BC000C5FA1AE05E2379223F213920FFF7BEFAE9
:100BD00013E05E2339223F213920FFF7B7FA0CE0FA
:100BE0003F2373223F213820FFF7B0FA05E03F236F
:100BF000372270213E20FFF7A9FA07B030BD80B53B
:100C00000121162000F0D6F9FFF71FFB01BD10B53A
:100C10000400E4B2002C09D0022C0DD009D3042C1E
:100C200010D00CD3062C13D00FD314E0FFF745FCE3
:100C300011E0FFF763FC0EE0FFF778FC0BE0FFF735
:100C400096FE08E0FFF7BAFE05E0FFF727FF02E097
:100C5000FFF7D5FFFFE710BD10B50024E4B2072C65
:100C600005DA00201A49E4B20855641CF6E70020B2
:100C700000F0D3F910BD0000FC5C0000B05C000087
:100C800010B500F073FA040012480078002804D16F
:100C900001201049087000F089F9A079C0B240081D
:100CA0000100C907C90F00290DD0A079FD2101401D
:100CB000A171FFF7D1FFA07EFFF7A9FF044800F064
:100CC000AAF800F079F810BDD85C0000E45C0000E0
:100CD000AC0500202A060020F446002804D449422E
:100CE00000F013F8404260474042002905D45FD02D
:100CF00000F00BF8404249426047494200F005F8D5
:100D00004942604703460B43E6D40022030A8B4264
:100D10000BD203098B4219D243088B422ED2411ABF
:100D200000D20146524110467047FF2209023FD0CF
:100D300012068B4205D3121209028B4201D3121202
:100D4000090203098B4219D300E0090AC3098B4247
:100D500001D3CB01C01A524183098B4201D38B01CD
:100D6000C01A524143098B4201D34B01C01A524170
:100D700003098B4201D30B01C01A5241C3088B42B5
:100D800001D3CB00C01A524183088B4201D38B00A0
:100D9000C01A524143088B4201D34B00C01A524142
:100DA000884200D3401A5241CFD2014610467047C4
:100DB00008B5C046C04608BD80B51021A04801F066
:100DC00089F901BDF0B4049C059D069E079F38700B
:100DD0007970BA70FB703C717D71BE71F0BC704768
:100DE000F0B500230124DBB2072B13DAE4B22500AF
:100DF0009D400600F6B22E420AD0914DDBB2CE5C89
:100E0000AE5DDBB2D55C35438D4FDBB2CE5CBD55FC
:100E10005B1CE8E7F0BD10B588B0040006A803909D
:100E2000072002900B20019007200090032303224B
:100E30000B210F20FFF7C6FF04A80390102002909B
:100E4000082001900820009008231022102108207B
:100E5000FFF7B8FF04AA06A92078FFF7C1FF06A88C
:100E60000390072002900B2001900720009003239D
:100E700003220B210F20FFF7A5FF04A803904020B9
:100E80000290202001902020009020234022402129
:100E90002020FFF797FF04AA06A96078FFF7A0FFBC
:100EA00006A80390062002900B20019007200090D6
:100EB000032302220A210F20FFF784FF04A80390D6
:100EC0000120029080200190802000908023012248
:100ED00001218020FFF776FF04AA06A9A078FFF77A
:100EE0007FFF06A803900A200290062001900A20A6
:100EF00000900E230E2206210220FFF763FF04A8B4
:100F000003902020029010200190102000901023C8
:100F1000202220211020FFF755FF04AA06A9E0781F
:100F2000FFF75EFF06A803900A20029006200190BA
:100F30000A2000900E230E2206210220FFF742FF16
:100F400004A803908020029040200190402000904F
:100F50004023802280214020FFF734FF04AA06A905
:100F60002079FFF73DFF06A8039009200290052095
:100F70000190092000900D230D2205210120FFF78B
:100F800021FF04A80390022002900120019001207B
:100F900000900123022202210120FFF713FF04AA7F
:100FA00006A96079FFF71CFF08B010BD80B501F0FD
:100FB0003AF801BD30B5C0B229282DDAC9B20029EE
:100FC00015D01F4A1F4BC0B2022444431B5DD25CA4
:100FD0001C4BC0B2022444431B195B781343184ACC
:100FE000184CC0B202254543645D135514E0144A01
:100FF000144BC0B2022444431B5DD25C114BC0B2FF
:10100000022444431B195B789A430D4B0D4CC0B22C
:1010100002254543645D1A5530BD00B5002100220C
:1010200000231900C9B2102909DAC0B2002801D082
:10103000FF231A00024BC9B25A54491CF2E700BD03
:1010400090050020605A000000B59648807E072871
:1010500002DB0020934988760020924988750020A1
:101060009049C87501208F4908778E48407FFE213E
:1010700001408C4841778B48407F022101438948D9
:101080004177DC208749C883AF20400085498884A8
:1010900064208449C8840A2082490885DC2081496B
:1010A0004885A0207F4988855A207F4908700A20FA
:1010B0007E490870D22040007A4908862D2079495F
:1010C000488602207A49087000207A49087000207A
:1010D000794908700220794908700620784908701B
:1010E000002078490870C8206E4948870820764952
:1010F000087000207549087096206A49C8870B203F
:10110000A84908701E20A84908709620A7490880A1
:101110000C20A74908700020A6490870AA20A649FB
:1011200008801120A54908700020A5490870DC201E
:10113000A44908801620A44908701E20A3490870FD
:101140009620A34908800820A24908700020A249DF
:101150000870C820A14908801720A1490870002004
:10116000A04908709620A049088000BD4D487047EE
:101170009E48704780B54B48407F0100C907C90FA2
:10118000002906D000204749887600204549C876C6
:1011900016E04448807E002803D04248807E022822
:1011A00006D100203F49887600203E49C87607E0F6
:1011B00004203C498876FA218900002000F0B1FA29
:1011C0003848C07E022802D101203649C87601BDC8
:1011D000F1B5002400250027002600980021405E7C
:1011E0000400CA480021405E210009B2884227DA83
:1011F000C6480088201A05002DB228000A21FFF7F2
:1012000081FD0E00A81B070036B2042E12DB36B299
:10121000092E07DBBD48018838000A300818BB4991
:10122000088039E0B94801883800401D0818B749DE
:10123000088031E0B5480088C019B44908802BE027
:101240002000B2490022895E00B2884224DAAF4809
:101250000088001B05002DB228000A21FFF752FD6F
:101260000E00A81B070036B2042E10DB36B2092E82
:1012700006DBA6480088C01B0A38A44908800BE09A
:10128000A2480088C01B401FA049088004E09F4876
:101290000088C01B9D4908809C48008800990880F0
:1012A000F1BD0000000000202E0000202F000020D3
:1012B00034000020350000203600002037000020D8
:1012C00038000020390000203C0000203D000020B4
:1012D000F1B5002400250027002600980021405E7B
:1012E0000400BA480021405E210009B2884227DA92
:1012F000B6480088201A05002DB228000A21FFF701
:1013000001FD0E00A81B070036B2042E12DB36B218
:10131000092E07DBAD48018838000A300818AB49B0
:10132000088039E0A94801883800401D0818A749FD
:10133000088031E0A5480088C019A44908802BE046
:101340002000A2490022895E00B2884224DA9F4828
:101350000088001B05002DB228000A21FFF7D2FCEF
:101360000E00A81B070036B2042E10DB36B2092E81
:1013700006DB96480088C01B0A38944908800BE0B9
:1013800092480088C01B401F9049088004E08F48A5
:101390000088C01B8D4908808C480088009908800F
:1013A000F1BD00004000002041000020420000206C
:1013B0004400002045000020460000204800002096
:1013C000490000204A0000204C0000204D00002071
:1013D0004E0000205000002051000020520000204C
:1013E0005400002055000020560000201A00002064
:1013F00070B50026002000F018FF0400012000F066
:1014000014FF050000F00EFF0600A3480078002836
:1014100003D002282CD015D35CE0F00706D50120BC
:10142000B4498873B448B349088007E0B148008CD8
:101430002018B04908800020AE498873AE48AD49F5
:10144000888047E0B00706D50220AA498873AA48D9
:10145000A849088007E0A748408C2818A5490880BB
:101460000020A4498873A3480088A249888031E0FD
:10147000F6B2032E09D1A0489E4908809E489D4996
:1014800088809D489B49888022E0F00708D59A48CB
:10149000984908809748408C28189649888017E01A
:1014A000B00708D59348008C2018924908809248CC
:1014B000904988800CE0F6B2002E09D18D48008C4E
:1014C00020188C4908808B48408C281889498880CE
:1014D0008848867387480021405EF9218900884248
:1014E00002DB85488349088082480021405E5E21F6
:1014F000C943884203DA5E20C0437E4908807D48A4
:10150000FFF766FEC048FFF7E3FE70BDB80000209D
:1015100080B500F036FFBD490988401A8849088027
:1015200087480088322805DB00F02BFFB749088088
:1015300000F088FE01BD30B500230024145F2300B5
:1015400004001D0024B22DB2AC4201DA030006E013
:101550001C000D0024B22DB2AC4200DA0B00138047
:1015600030BD80B56348C07D002802D0012805D079
:101570000FE06048C08B5F4948800AE000F05CFFE4
:101580005C49C0B2042250430818408F5949488032
:10159000FFE79F4A57482621415E56482423C05EF4
:1015A000FFF7C9FF9B4A53482621415E5148242337
:1015B000C05EFFF7C0FF984A4E482621415E4D4865
:1015C0002423C05EFFF7B7FF01BD0000BA00002072
:1015D00080B500F0D6FE91490988401A90490880EC
:1015E0008F480088FA214900884253DB00F0C9FE89
:1015F0008A4908803F488079022101433D48817132
:101600003C488079102101433A4881713948C07AB9
:10161000401C3849C8723748C07A0A2802DB0020CB
:101620003449C872B3480078401CB2490870B148C8
:101630000078022818DB0020AE4908702D48807918
:10164000C0B2C0080100C907C90F002906D0294847
:101650008079F72101402748817105E0254880798C
:10166000082101432348817122488079C0B2800853
:101670000100C907C90F002906D01E488079FB2147
:1016800001401C48817105E01A488079042101431A
:101690001848817101BD00003400002080B5154854
:1016A0008079C0B200090100C907C90F00290AD01A
:1016B00010488079EF2101400E488171FFF798FEB4
:1016C000FFF74FFF15E08C4800780A49897E884271
:1016D0000FD00848807E884908700648807902212A
:1016E0000143044881710348807910210143014876
:1016F000817101BD00000020E303000000B501007E
:101700007E48C9B204224A43805C002807D00020EA
:101710007A4AC9B204234B43D054012000E0002090
:1017200000BD10B40022754BC0B2042444431A55C6
:10173000724AC0B204234343D218518010BC704790
:10174000F205002080B50020FFF7D8FF002806D062
:10175000BA48007A002802D00020B84988760120D3
:10176000FFF7CCFF002821D0B448407FC0B28008EA
:101770000100C907C90F002918D1B048007A002814
:1017800014D1AE48007E401CAC490876AB48007EC0
:101790000A2807DBA948407F04210143A748417775
:1017A000FFF752FCA6490120FFF7BBFF0220FFF71D
:1017B000A5FF00281CD0A148007A002806D19F4828
:1017C000C079FE2101409D48C17111E09B48007A1B
:1017D0000D280DD19948407A032809DA9748407AB4
:1017E000401C96494872FA2149000220FFF799FFF0
:1017F0000720FFF783FF002805D09048C079022119
:1018000001438E48C17101BD04000020F005002095
:10181000020000202A0000202C000020F4050020F7
:10182000F605002080B50020FFF768FF00281AD0D9
:101830008248807A022807D182490020FFF771FF91
:1018400003207E4988720EE07C48807A012807D107
:1018500002207A4988727A490020FFF762FF02E08D
:101860000120764988767548807A01281ED10020AB
:10187000AE49088000F043FB042813D0AC48008830
:10188000401CAB490880AA4800880B2830DB0220A6
:101890006A4988726A490020FFF743FF0020A44983
:1018A000088025E00020A249088021E00020A0490E
:1018B00008806248807A022803D06048807A032832
:1018C00016D19A480088401C98490880974800889B
:1018D0000B280DDB00F013FB042809D195490020EB
:1018E000FFF71FFF042055498872012053494873B0
:1018F00001BD000028060020290600203805002030
:1019000080B54E48807E002809D002284DD007D3EC
:10191000042856D04CD3062864D060D38DE08CE0E8
:101920000420FFF7EBFE002806D04448C07E0228C2
:1019300002D101204149C8764048C07B022814D119
:101940000320FFF7DBFE002812D07B490320FFF7BE
:10195000E8FE3A48807C002803D00020374988748C
:1019600006E001203549887402E00020334988747C
:101970003248C07C002817D00520FFF7BFFE0028A2
:1019800012D02E48407D002807D000202B494875F2
:101990006A490520FFF7C5FE06E001202749487582
:1019A00065490520FFF7BDFE47E0FFF7CBFE44E0A9
:1019B0000020FFF7A3FE002802D001201F498876EF
:1019C0003BE00020FFF79AFE002807D0FA218900AB
:1019D0000020FFF7A6FE0320184988762DE0FFF7C8
:1019E00021FF2AE00020FFF789FE002818D01348C5
:1019F000407C002806D002201049C8734E490320BD
:101A0000FFF78FFE0D48007C002803D101200B4911
:101A1000887605E000200949887601200749887406
:101A20000320FFF76BFE002806D00448C07B012886
:101A300002D100200149C873FFE701BD000000206A
:101A400060EA00003075000070B50026002500F047
:101A500098FC060030003A49098880B2884204D3D5
:101A600037480088301A050004E0701E34490988A0
:101A7000401A0500ADB2002D3DD03148068000204F
:101A80000400E4B2082C36DA2E48E4B204216143A3
:101A90004018408800282CD02A48E4B20421614331
:101AA00040184088290089B288420DD32548E4B205
:101AB0000421614340184088401B2249E4B20422BB
:101AC00062438918488006E000201E49E4B20422DF
:101AD0006243891848801B48E4B2042161434018DE
:101AE0004088002805D101201649E4B2042262434F
:101AF0008854641CC5E7FFF703FF70BD00B51248AA
:101B0000807E002806D11048C07E002802D0002028
:101B10000D49C8760C48C07B002806D10A48807C55
:101B2000002802D000200849887400BDF805002074
:101B3000FA050020B80B00008813000050C3000015
:101B4000FC050020380500200000002080B5FFF7CC
:101B5000DFFCFFF7A3FDFFF777FFFFF739FDFFF786
:101B6000CDFF01BD9F480078704710B5FFF7FEFA22
:101B70000400A0790100C907C90F00292BD0342027
:101B8000205C022823D1A07B002803D000209549A7
:101B9000087013E00420205E3021615E884203DB80
:101BA00001209049087009E03020205E1E38042191
:101BB000615E884202DB00208A490870894800780B
:101BC00000280BD0A079FE210140A17106E0002081
:101BD0008449087002E000208249087010BD10B5E9
:101BE000FFF7C4FA0400A07E002804D10020B04909
:101BF000087000201EE0A07E022804D10020AC491D
:101C00000870002016E0A07E062807D1207C01285D
:101C10000CD10020A649087000200BE0A07B002812
:101C200004D00020A2490870002003E00120A04950
:101C30000870012010BDF8B5060000240025FFF74C
:101C400095FA0700F6B2002E1ED03620385C002828
:101C500005D002280DD007D303280FD013E00120B0
:101C60000400012005003EE00120040000200500E2
:101C700039E0002004000020050034E000200400CA
:101C8000002005002FE02EE03620385C002805D02B
:101C900002280DD007D303280FD024E00020040031
:101CA000002005001FE000200400012005001AE0CC
:101CB000012004000120050015E0B87E002804D0B2
:101CC00001200400012005000CE03220385E2D28A0
:101CD00004D1002004000020050003E001200400DE
:101CE00001200500FFE7E4B2002C04D014210020FD
:101CF00000F0ECFB03E00021002000F0FDFBEDB262
:101D0000002D05D096218900012000F0DFFB03E0C3
:101D10000021012000F0F0FBF1BD70B5FFF726FABD
:101D200004000025607F800745D5614800780028C1
:101D300041D0A0790100C907C90F002938D0E07C43
:101D400000280ED1002020750120E07400F019FB5E
:101D50005849088058490520FFF7E3FC01206075C9
:101D60002BE0002600F00DFB52490988401A0600BE
:101D7000B6B25248864220DB00F003FB4D49088092
:101D8000207D401C207520002E30E17C022900D1EE
:101D9000401C217D027891420FD300212175E17C06
:101DA000022902D10121E17407E00221E17404E07B
:101DB0000120050001E001200500EDB2002D09D051
:101DC000002020750020E07400F0DBFA394908801B
:101DD00000206075E07C022803D1A079FE2101403B
:101DE000A17170BD2F06002010B500F0CAFA80B2B4
:101DF00000F098FB32480078002807D100F0C1FAC3
:101E00003049088001202E4908704FE02C480078A6
:101E100001280ED1002400F0B4FA2A490988401A9A
:101E20000400A4B22848844240DB02202449087000
:101E30003CE0FFF79BF90400FFF7D1FE002810D02B
:101E400000F09AFBA179FE220A401043A071A0790C
:101E50000100C907C90FFFF788FE00201B49087061
:101E60001CE0A07E00280BD13220205E2E2807DB4C
:101E7000A07B002804D100F07FFB1449087002E029
:101E8000002012490870A079FE2101400F48007817
:101E90000843A071A0790100C907C90FFFF73DFFF2
:101EA000A1790800C007C00FFFF7C5FE10BD0000F4
:101EB00031060020FE0500208813000060EA0000C3
:101EC0002E06002000060020B90B0000300600207E
:101ED00038B504002000C0B200F0AAFB0500EDB246
:101EE000002DF7D031BD80B500F0B0FB00F0A7FBAE
:101EF00096214900104800F086FA01BD00000D4807
:101F00000078704710B504002000C0B200F0A8FBB4
:101F1000E4B2002C03D100200649087002E0012041
:101F2000044908700221024800F06DFA10BD00005B
:101F3000BC050020BC000020B405002010B509211C
:101F4000002000F085FC0A21002000F081FC0B211C
:101F5000002000F07DFC0C21002000F079FC08211D
:101F6000002000F075FC0921802000F071FC0821A0
:101F7000802000F06DFC0721802000F069FC062124
:101F8000802000F065FC0F21402000F061FC0E2154
:101F9000402000F05DFC0D21402000F059FC0C2198
:101FA000402000F055FC0B21402000F051FC0A219C
:101FB000402000F04DFC0221402000F049FC0121AE
:101FC000402000F045FC0021402000F041FC0521AC
:101FD000802000F03DFC0421802000F039FC072126
:101FE000002000F035FC0621002000F031FC052126
:101FF000002000F02DFC0421002000F029FC03212A
:10200000002000F025FC00242548040021000020C9
:1020100000F026FD002004002248040021000120D9
:1020200000F01EFD10BD00B583B00821684600F029
:102030008DFD0121022000F09EFD002001F040F8FE
:102040000121162001F08BF801211C2001F087F8F6
:10205000FFF774FF012069464871002069468870C7
:102060000620694608700020694688710320694689
:10207000487003206946C8700220694608710A4802
:1020800000680A490140C0208001084306490860F1
:10209000684600F013FD0121002000F09EFC07BD02
:1020A0000000E0FFFFF0FFFF005C0040FF0FFFFFBC
:1020B0000100002002000878104300020200487866
:1020C0001043000202008878104300020200C87822
:1020D00010437047F3B581B00198050000246846AD
:1020E000007A0421FEF70EFE070020003900C0B27E
:1020F000C9B2884213D2E4B2082C0EDA0026019845
:10210000E4B2042161434018FFF7D2FF060031001A
:102110002000C0B200F0B8FC6D1C641CE5E7F7BD00
:1021200000B5010089B27148814202DA89B21E29E4
:1021300001DA002000E0012000BDF2B582B0040009
:102140000020694608800025002700266846007A9E
:10215000012802D16648019001E06648019001988B
:102160000088210089B2884203D25E20C043070064
:1021700055E020000199DA22895A80B2884202D2C1
:102180005D4807004BE03FB26D2F0ADA200001994D
:102190003FB202227A43895A80B2884201D27F1C20
:1021A000F1E73FB2002F02D10020060033E068467D
:1021B00001993FB202227A438918891E0988018059
:1021C00001983FB202217943405A0500A4B2ADB252
:1021D000601B0A21484369460988ADB2491BFEF7D6
:1021E00091FD0600A4B2ADB2601B0A2148436946C6
:1021F0000988ADB2491BFEF785FD684641806846F7
:102200000088ADB2401B0221FEF77CFD694649887B
:10221000884200DA761C0A3F0A204743BF1B380079
:1022200000B2FEBD35480078704700B50100C9B264
:10223000022905DA324AC9B202234B43D25E1000AA
:1022400000B200BD80B52F480078002802D00128D8
:1022500006D046E000F0E0FF01202A49087040E087
:10226000294801F06BF800283AD027480088FFF78A
:1022700057FF00280DD021480078FE2101401F485B
:102280000170002120480088FFF757FF1C49088093
:1022900008E01A48007801210143184801701B48E2
:1022A0001749088018484088FFF73AFF00280ED0E9
:1022B00012480078FD210140104801700A48017859
:1022C00011484088FFF739FF0D49488008E00B4866
:1022D000007802210143094801700C4808494880F0
:1022E000FFE701BD0000000041060020D30F000001
:1022F000F058000014580000E303000042060020DC
:102300005800002040060020E8050020E7030000F8
:1023100038B501F06FF804003F480078201A050036
:102320003D480470EDB2002D2AD06D1E3B48008858
:10233000401C3A4908803A480088401C38490880C7
:1023400037480088FA2189008842EBDB00203449B5
:10235000088034480088401C3249088032480078A0
:10236000401C31490870304800783C28DADB0020F6
:102370002D4908702D480088401C2C490880D1E761
:1023800031BD26480088704770B50400FFF7C0FFD4
:102390002078002803D123480088050007E0207832
:1023A000012803D121480088050000E0FEE7A0884D
:1023B000281A0600A5802078002806D1B6B2042E7F
:1023C0000DDB0020608001201CE02078012806D170
:1023D000B6B2032E03DB00206080012012E0B6B20B
:1023E000002E0ED06088002809D06088401E6080D2
:1023F0006088002801D1012004E0761EEFE701206B
:1024000000E0002070BD38B505000C002800FFF783
:10241000BBFF6C8031BD0000450600202006002077
:102420002606002022060020460600202406002062
:1024300080B501F03FF801BD00B5054800780728D8
:1024400002DB0720024908700148007800BD000047
:102450002B06002000B5027A012A02D00122027266
:10246000418100BD00B5027A002A06D00022C28157
:102470000022427200220272818100BD10B5040068
:10248000207A01280CD16089002803D06089401E81
:10249000608111E0607A00280ED0206880470BE050
:1024A000207A002808D1A089002803D0A089401EE6
:1024B000A08101E060688047E089002803D0E089BE
:1024C000401EE08101E00120607210BD38B50500BA
:1024D0000C00EDB2002D02D0012D06D00BE0210042
:1024E00089B22148FFF7B6FF05E0210089B21F48F5
:1024F000FFF7B0FFFFE731BD38B505000C00EDB2C6
:10250000002D02D0012D06D00BE0210089B2164823
:10251000FFF7A8FF05E0210089B21448FFF7A2FFEA
:10252000FFE731BD38B504000025114800780028C8
:1025300002D0012806D015E001F055F801200C4921
:1025400008700FE00B480088201A0500ADB2642D1A
:1025500007DB084804800448FFF790FF0348FFF7B3
:102560008DFFFFE731BD00005C0000206C00002003
:10257000430600201E06002010B52B48007A0021DB
:10258000294A1288284B5B88D21A11000A00264B70
:1025900004241B5F12B29A4202DB0122100008E001
:1025A000214A0623D25E534209B28B4201DB00224C
:1025B0001000C0B210BD10B5FEF7D8FD04001B48D6
:1025C0000078A17E884209D0A07E002803D1A0799E
:1025D000FE210140A171A07E14490870A07E002850
:1025E00009D0208D10498880208D0F49C8806088CF
:1025F0000D4908800CE03220205E2E2808DB0020E8
:10260000094988801E200849C880608E06490880D4
:10261000208805494880A0790100C907C90F0248F0
:10262000017210BD00000000A00500202D06002052
:1026300010B504002000C0B201F03AF810BD10B58A
:1026400004002000C046C04610BD071001480068C5
:1026500070470000DC05002080B501F07BF801BD6B
:1026600038B5040000250020084908702100C9B2CF
:10267000EDB2280080B201F09BF80500EDB2290010
:1026800089B2052001F0C4F831BD000047060020E2
:1026900030B50300DBB275481818006801248C407F
:1026A000A043DBB2714C1C192060DBB2C9B28800B8
:1026B00018186F4C001900240460107801280BD101
:1026C000DBB26C481818006801248C400443DBB26C
:1026D0006848181804600AE0DBB2664818180068F9
:1026E00001248C40A043DBB2624C1C19206050785E
:1026F00000280BD1DBB260481818006801248C4018
:10270000A043DBB25C4C1C1920600AE0DBB25A48E3
:102710001818006801248C400443DBB2564818188E
:1027200004609078012816D1DBB25448181800686C
:1027300001248C400443DBB2504818180460DBB21B
:102740004F481818006801248C40A043DBB24C4C61
:102750001C1920602FE09078022816D1DBB2474880
:102760001818006801248C40A043DBB2434C1C19AC
:102770002060DBB242481818006801248C400443F2
:10278000DBB23F481818046015E0DBB23B4818186C
:10279000006801248C40A043DBB2384C1C19206037
:1027A000DBB237481818006801248C40A043DBB224
:1027B000334C1C192060D07800280BD1DBB2314893
:1027C0001818006801248C40A043DBB22D4C1C1962
:1027D00020600AE0DBB22B481818006801248C4006
:1027E0000443DBB22748181804601079274C24688A
:1027F000254D2540C0038024240220402843234C3B
:102800002060002030BDC0B2214A80180268CA4052
:102810001000C007C00F70470200D2B21D48101848
:10282000006801238B400343D2B21A48101803609A
:10283000002070470200D2B2174810180068012328
:102840008B400343D2B21448101803600020704735
:102850000200D2B205481018006801238B400343E0
:10286000D2B2024810180360002070470C0D0240DD
:10287000000C0240000D02401C0D0240200D0240E1
:10288000240D02402C0D0240FF7FFFFF080F024085
:10289000040D0240100D0240140D024010B401005E
:1028A0000120774A126880239A43C9B2CB01802461
:1028B00023401343724A136000221000C0B210BCC0
:1028C000704710B501000122C9B208000028022893
:1028D00003D9001F01D0801E10D176480068694BD3
:1028E0000340C9B24802E024240104401C4371485B
:1028F0000460002002001000C0B200E0042010BDFF
:1029000010B501000122C9B208000028032803D92C
:10291000401F01D0801E10D166480068664B0340FE
:10292000C9B28801E024640004401C43614804608B
:10293000002002001000C0B200E0042010BD10B55D
:1029400001000122C9B20800002801280FD8594807
:10295000006820239843C9B24B012024234003433D
:1029600054480360002002001000C0B200E00420C0
:1029700010BD10B501000122C9B2080000280328CB
:102980000FD86C48006818239843C9B2CB001824AC
:102990001C40044367480460002002001000C0B2DD
:1029A00000E0042010BD10B501000122C9B20800EA
:1029B000002803280FD85F48006806239843C9B24F
:1029C0004B0006241C4004435A48046000200200C7
:1029D0001000C0B200E0042010BD30B50200012399
:1029E000D2B2002A02D0012A0CD017E03148006888
:1029F0000124A043C9B20C00E407E40F04432D48AE
:102A000004600DE01E4800684024A043C9B28C0158
:102A100040252C4004431A48046001E0042003E0F0
:102A2000002003001800C0B230BD10B50100012223
:102A3000C9B208000028012810D8114800683E4B90
:102A40000340C9B2080280246400204018430C4BA4
:102A50001860002002001000C0B200E0042010BD89
:102A600000B502000120D2B2002A02D1334B196016
:102A700001E0334B196000231800C0B200BD000014
:102A8000045C0040FFF1FFFF10B5020001200023AD
:102A90002C4C2300D2B2102A03DB04242000C0B245
:102AA00007E0D2B2042454431B191960002420000B
:102AB000C0B210BD005C00403FFEFFFF38B505000E
:102AC00001242878FFF7FDFE04006878FFF718FF5F
:102AD0000400A878FFF733FF0400E878FFF749FF08
:102AE00004002879FFF75FFF04006879FFF79DFF76
:102AF0000400A879FFF7D2FE0400E4B2002C01D054
:102B0000042015E0E87900280CD00F4800688021E7
:102B1000890001430C480160012203211D2000F0BF
:102B200005FF04E0002203211D2000F0FFFE00202D
:102B300032BD0000005C0040FFFEFFFF0C5C004067
:102B4000105C0040405C0040045C004000B50200A6
:102B5000002A07D00B00591E002B03D0002313704E
:102B6000521CF7E700BD010A96489749086097484C
:102B700095490860704770B505000C000026FFF706
:102B8000F3FFE4B2002C01D0012400E00024EDB2F8
:102B9000002D06D0022D3CD019D3042D73D04ED376
:102BA00087E08B48006801218843E4B22100C9070F
:102BB000C90F014386480160E4B2002C06D0854865
:102BC000006801000905C90F0029F5D073E08248AB
:102BD000006801210143804801607F4800680221AC
:102BE00001437D4801607A48006802218843E4B2CD
:102BF000610002221140014375480160E4B2002CDB
:102C000006D07648006801004906C90F0029F5D0B2
:102C100051E06F48006804218843E4B2A100042217
:102C2000114001436A480160E4B2002C06D06C48B0
:102C300000680100C904C90F0029F5D03BE06948CC
:102C400000688021C9010143664801606548006849
:102C5000802109020143634801605D480068082142
:102C60008843E4B2E1000822114001435848016062
:102C7000E4B2002C06D05C48006801004906C90F88
:102C80000029F5D017E05248006810218843E4B2CB
:102C900021011022114001434D480160E4B2002C93
:102CA00006D0B448006801004903C90F0029F5D0D7
:102CB00001E0042006003000C0B270BD0100002019
:102CC000464A126803239A43C9B28B079B0F1343EA
:102CD000424A1360C0B2704730B402000020424B39
:102CE0001B680C24A343D2B294000C2525401D433D
:102CF0003D4B1D603C4B1B680324A343C9B28C07AA
:102D0000A40F1C43384B1C60C0B230BC704710B4D9
:102D100001000020314A126830239A43C9B20B01E6
:102D200030241C4014432D4A1460C0B210BC7047BC
:102D300010B4010000202A4A12688F4B1340C9B218
:102D40008A02C024240114401C43254A1460C0B2E6
:102D500010BC704710B401000020234A12683023D1
:102D60009A43C9B20B0130241C4014431E4A14601C
:102D7000C0B210BC704710B4010000207D4A126838
:102D80007E4B1340C9B2CA03E024A40214401C4382
:102D9000784A1460C0B210BC704738B504000025F2
:102DA000FFF7E2FE0A480068E0218843E4B26101CF
:102DB000E0220A4002430648026000F075FE280047
:102DC000C0B232BD5A5A000008200040A5A500003C
:102DD000002000400C200040CC0D0240102000409C
:102DE000142000408C0D02401820004030B589B0FE
:102DF000002404A86249142200F072FE03A861496D
:102E00000A68026068460C2100F09CFE5E4800885B
:102E1000694608815D4800886946C8805C4800882A
:102E2000694688805B480088694648805A4800881F
:102E3000694608809E48006840094007400F050029
:102E4000EDB2002D06D0022D36D032D3042D47D05E
:102E500042D383E0974800684005400D69460989E0
:102E6000884202D10898040022E092480068400598
:102E7000400D6946C988884202D10798040017E0CE
:102E80008C4800684005400D69468988884202D117
:102E9000069804000CE0874800684005400D69462C
:102EA0004988884202D10598040001E00498040092
:102EB00056E08148040053E0684600887F4909686D
:102EC0008905890D884203D103A84088040002E0E7
:102ED00068468089040043E08020000204003FE04F
:102EE000244800688007800F03282ED16846008997
:102EF000704909684905490D884202D108980400C3
:102F000025E06846C0886B4909684905490D884233
:102F100002D1079804001AE068468088654909686C
:102F20004905490D884202D1069804000FE0684621
:102F30004088604909684905490D884202D10598D1
:102F4000040004E00498040001E05B480400094820
:102F5000006840090007000F444301E0002004001E
:102F600053480068000A4007400FC440200009B0E1
:102F700030BD00003C200040FFF3FFFFFF7FFCFF5F
:102F8000C45C0000085D0000000C1000020C100082
:102F9000040C1000060C1000200C100038B50400C2
:102FA00000252078002806D002280CD004D304285D
:102FB00015D00CD317E018E00320FFF77FFE0320A5
:102FC000FFF7A5FE11E00320FFF7B2FE0DE003219D
:102FD0000320FFF781FE0320FFF7BCFE05E007207A
:102FE000FFF7C9FE01E00420050001212078FFF76A
:102FF000C2FD2078FFF7D1FE607800F088F8A07855
:1030000000F099F82800C0B232BD00B501000020E0
:10301000C9B2002906D002291ED010D3042935D008
:1030200027D340E05C4A128892B2224B1B68DB0A2D
:10303000DB025205520D1A431E4B1A6035E0574A07
:10304000128892B21B4B1B68DB0ADB025205520D41
:103050001A43184B1A6028E0514A128892B2154B55
:103060001B68DB0ADB025205520D1A43114B1A6032
:103070001BE04C4A128892B20E4B1B68DB0ADB0243
:103080005205520D1A430B4B1A600EE0464A128845
:1030900092B2084B1B68DB0ADB025205520D1A4341
:1030A000044B1A6001E004221000C0B200BD000011
:1030B000002000400C2000400048E801142000409F
:1030C00000B501000020C9B2002902D001290DD0AD
:1030D00019E0364A128892B2354B1B689B0A9B0254
:1030E0009205920D1A43324B1A600EE0314A128853
:1030F00092B22F4B1B689B0A9B029205920D1A43BA
:103100002B4B1A6001E004221000C0B200BD38B59C
:1031100004000025FFF728FD2748006827490140E3
:10312000E4B22002E022D20002400A4322480260B8
:103130002800C0B232BD38B504000025FFF714FDE9
:103140001D4800681E490140E4B2E002C02252015D
:1031500002400A43184802602800C0B232BD10B5D0
:1031600002000020C9B2002901D0012100E00021A5
:10317000C9B2002907D0134B1B68012494401C439B
:10318000104B1C6006E00F4B1B6801249440A343C6
:103190000C4C2360C0B210BD080C1000060C1000CF
:1031A000040C1000020C1000000C1000220C100087
:1031B00014200040200C100000200040FFF8FFFF0A
:1031C000FFE7FFFF2020004000B50021028811002A
:1031D00000220B071B0F1A0089B2090992B2082AB4
:1031E00000DB491C018000BD10B50024E4B2042CB2
:1031F0000ADA2100C9B27848E4B202226243801898
:1032000000F044FE641CF1E701207449087010BD11
:1032100080B500F0A3FD01BD10B58EB00521684654
:10322000FFF794FC062102A8FFF790FC182108A8DC
:10323000FFF78CFC06216948FFF788FC052106A8EA
:10324000FFF784FC052104A8FFF780FC01211C2066
:10325000FFF785FF00218020FFF7FAFA0121802087
:10326000FFF7F6FA01211020FFF779FF002846D179
:1032700000F07BFD5A480068012101435848016075
:103280000024E4B2C82C01DA641CFAE70120694684
:103290000870002069464870022069468870032043
:1032A0006946C870002069460871684600F00AFD4A
:1032B0000A21002000F0A6FD0B21012000F0A2FD54
:1032C0000A21022000F09EFD0B21032000F09AFD50
:1032D00001220321182000F029FB00F0E5FC012069
:1032E000694608723F48089008A902A800F0A4FCAB
:1032F00000220421684600F04FFDFFF789FF0EB061
:1033000010BD00B535480078012804D100203349AC
:103310000870012000E0002000BD00B50021C9B206
:1033200004290ADA2C4AC9B202234B43D25AC9B241
:1033300002234B43C252491CF1E700BD30B583B0B4
:1033400004000025FFF7DDFF002840D06846FFF7A6
:10335000E4FF25480088694609884018224908800A
:10336000214800886946898840181F4908801F48FD
:1033700000886946498840181C4908801B48008815
:103380006946C98840181949088019480078401CC6
:103390001749087016480078082816DB00201449E1
:1033A00008701148FFF710FF1048FFF70DFF0E4897
:1033B000008820800D480088608000200A4908802D
:1033C00000200A49088001200500FFF721FF28009E
:1033D000C0B23EBD00000000CC050020C4050020A6
:1033E00000240040E9310000060600200806002005
:1033F00037060020374909780800C0B27047F0B599
:1034000040B2002821D5344C40B20207120F083ACE
:10341000950804225543304A40B203071B0F083B6E
:103420009B0804267343D258FF238607B60F08274C
:103430007E43B3409A438B01DBB28607B60F082761
:103440007E43B340134363511AE0244A40B28308D9
:1034500004246343D258FF238407A40F08256C4338
:10346000A3409A438B01DBB28407A40F08256C4369
:10347000A3401343194A40B2840804256C431351F6
:10348000F0BD10B50400601E80214904884201D3BC
:1034900001200EE0601E1249086003210020C04395
:1034A000FFF7ADFF00200F49086007200E490860B4
:1034B000002010BD80B5FFF799FCFA218900FDF7C7
:1034C00024FCFFF7DEFF01BD02480078401C0149E3
:1034D00008707047380600201CED00E000E400E0B2
:1034E00014E000E018E000E010E000E000B583B078
:1034F00001211C20FFF733FE0020694608700020E0
:103500006946487000206946887000206946C87086
:103510000120694608710A218020FFF78BF96A466D
:103520000A218020FFF7B4F80A218020FFF782F9F2
:1035300007BD80B50A218020FFF76EF901BD80B577
:103540000A218020FFF776F901BD00B583B0012183
:103550001C20FFF704FE0020694608700020694621
:10356000487000206946887000206946C8700120B4
:10357000694608710B218020FFF75CF96A460B2130
:103580008020FFF785F80B218020FFF753F907BD56
:1035900080B50B218020FFF73FF901BD80B50B21DD
:1035A0008020FFF747F901BD00B583B001211C2041
:1035B000FFF7D5FD00206946087000206946487075
:1035C00000206946887000206946C870012069465D
:1035D00008716A460F210020FFF75AF80F210020DA
:1035E000FFF71AF907BD80B5FFF7DEFFFFF77EFF93
:1035F000FFF7A5FFFFF7A9FFFFF7D0FF01BD80B5DB
:10360000FFF797FF01BD80B5FFF799FF01BD80B5BA
:10361000FFF7BEFF01BD80B5FFF7C0FF01BD060F7C
:1036200010B50400E4B2012C04D10621002000F002
:1036300064FC03E00621002000F0ADFC10BD10B5D5
:10364000002000F088FD04003148324909784454D4
:1036500030480078401C2F4908702E4800782028F8
:1036600002DB00202B49087010BD10B52A480078F5
:103670000400200029490978C0B2884214D02748A4
:1036800000782749C0B2085C8021C905086023483A
:103690000078401C2149087020480078402806DB4B
:1036A00000201E49087002E00020FFF7B9FF10BD9E
:1036B00070B5040019480078050017480078060026
:1036C000761CF6B2402E01DB0020060030002900F7
:1036D000C0B2C9B2884201D1002018E00E4800787B
:1036E00006000F48F6B28455761CF6B2402E01DB78
:1036F00000200600084806700A4800680100C90555
:10370000C90F002902D10120FFF78AFF012070BDF7
:1037100058050020390600203B0600203A0600200C
:10372000C00400200400004080B50621002000F005
:1037300087FC002801D0FFF798FF0121002000F04E
:103740007FFC002805D00121002000F0C8FCFFF715
:1037500076FF01BD80B5002000F078FD0020FFF766
:1037600054FC00206946087000206946487000201B
:10377000694688706846FFF711FC0020FFF7A0FC3F
:1037800001210220FFF7F7F90220FFF706FB0420D2
:10379000FFF73BFC0020FFF700FB00210220FFF7B2
:1037A000EAF9FFF723FB0149086001BDDC050020B1
:1037B0002C4A80B21218921D1170401C80B27047C2
:1037C00038B505000C00002D02D0A4B2002C00D1A9
:1037D0000BE0FEF788FB2000441E80B2002804D0D6
:1037E000287800F06DFD6D1CF5E731BD30B50200A5
:1037F0000020002423001C000D00A4B2ADB2AC4296
:1038000004D214780019521C5B1CF4E7C0B230BD1E
:1038100070B506000C000025552012490870AA203A
:103820001049487003200F4988700E48C670200068
:1038300080B2000A0B49087120000A494871E41D52
:10384000611E89B20748FFF7D1FF05000548A4B201
:103850000019401E0570210089B20248FFF7B0FF31
:1038600070BD0000000500200121C206D20E91406B
:10387000294A116070470121C206D20E9140274AA1
:10388000116070470121C206D20E9140244A116096
:103890007047F0B540B2002821D5224C40B2020753
:1038A000120F083A9508042255431E4A40B20307F6
:1038B0001B0F083B9B0804267343D258FF2386073F
:1038C000B60F08277E43B3409A438B01DBB28607CD
:1038D000B60F08277E43B340134363511AE0124AE0
:1038E00040B2830804246343D258FF238407A40F03
:1038F00008256C43A3409A438B01DBB28407A40FD5
:1039000008256C43A3401343074A40B284080425AA
:103910006C431351F0BD000000E100E080E100E0E5
:1039200080E200E01CED00E000E400E070B504007F
:103930000E001500200040B2FFF7A4FFF6B23100E0
:10394000200040B2FFF7A5FFEDB2012D04D1200009
:1039500040B2FFF789FF03E0200040B2FFF78BFF82
:1039600070BD80B50020009000980028FCD001BDFB
:1039700080B50020C046C04601BD80B50120C046CC
:10398000C04601BD80B50220C046C04601BD80B51D
:103990000320C046C04601BD80B50020C046C046D9
:1039A00001BD80B5012000F0E6FB01BD80B500201F
:1039B000C046C04601BD80B50120C046C04601BD1D
:1039C00080B50020C046C04601BD80B50120C0467C
:1039D000C04601BD80B50020C046C04601BD80B5CF
:1039E0000120C046C04601BD80B50020C046C0468B
:1039F00001BD80B50120C046C04601BD80B5022092
:103A0000C046C04601BD80B50020C046C04601BDCD
:103A100080B50020C046C04601BD80B50420C04628
:103A2000C04601BD80B50520C046C04601BD80B579
:103A30000620C046C04601BD80B50020C046C04635
:103A400001BD80B5002000F081FC01BD80B50020E3
:103A5000C046C04601BD80B5002000F075F801BD2C
:103A600080B50020C046C04601BD80B50020C046DC
:103A7000C04601BD80B50120C046C04601BD80B52D
:103A80000020C046C04601BD80B50020C046C046EB
:103A900001BD80B5002000F0CDFB01BD80B5002048
:103AA000C046C04601BDFEE780B5FFF79FF9094952
:103AB000086001BD80B50848008880B207490968E0
:103AC000C90AC9024005400D084304490860FFF7D0
:103AD000EBFF01BD7C000020080C10000C20004012
:103AE00070B4103A03D378C9103A78C0FBD25307A8
:103AF00001D318C918C001D508C908C0D20704D31A
:103B00000B880380891C801C002A01D50B78037068
:103B100070BC7047130030B414001500103902D384
:103B200010393CC0FCD2490700D30CC000D504C0FA
:103B3000890002D30280801C002900D5027030BCAD
:103B4000704700000022E5E710B504005A480068FD
:103B500001000907C90F00290CD0584880680028C7
:103B600002D056488068804755480068082188433D
:103B7000534908605048006801004907C90F0029EF
:103B80000CD04E48C068002802D04C48C06880471E
:103B90004B4800680421884349490860464800684A
:103BA00001008907C90F00290CD04448006900288A
:103BB00002D042480069804741480068022188439A
:103BC0003F4908603C480068C0070CD53B48406945
:103BD000002802D0394840698047394800680121EF
:103BE000884337490860344800680100C906C90F96
:103BF00000290CD031484068002802D02F48406886
:103C000080472F480068102188432D4908602A48C2
:103C1000006801008906C90F00290CD027480068F8
:103C2000002802D0254800688047254800682021E8
:103C300088432349086010BD00B54279012A05D1A7
:103C40004A69002A02D04A691C4B5A610278012A4B
:103C500005D10A68002A02D00A68184B1A60427817
:103C6000012A05D14A68002A02D04A68134B5A60DB
:103C70008278012A05D18A68002A02D08A680F4B0F
:103C80009A60C278012A05D1CA68002A02D0CA689F
:103C90000A4BDA600279012A05D10A69002A02D0AA
:103CA0000A69064B1A6100BD354800688021090287
:103CB0000143334801607047B0240040780500207C
:103CC000B424004000B50100002901D1042041E0E6
:103CD00048782B4A12680C239A4380000C23034037
:103CE0001343274803608878254A1268264B1340FF
:103CF0000003C022920102401A4321480260C878A2
:103D00001F4A1268214B13404002C022D2000240D9
:103D10001A431B4802600879194A12681C4B134069
:103D2000C0028022120110401843154A1060314829
:103D30000068094A02402F4802602E4800680F4A76
:103D400002402C4802602B4800680E4A0240294875
:103D50000260002000BD0000FFBFFFFF2648006892
:103D6000012101432448016070470A48006801218D
:103D7000014308480160704700000000FFDFFFFFBB
:103D800004240040FFEFFFFFFFCFFFFFFFF9FFFF1D
:103D9000FFF7FFFF0424004030B50300002B01D1E2
:103DA000042025E01878134C2468144D2540800227
:103DB0008024E400204028430E4C20600D48006819
:103DC0000F4C0440D2B2D00280252D012840204360
:103DD000084C20602C4800682A4C0440C9B2481E98
:103DE0000005C025AD030540254327480560002098
:103DF00030BD000008240040C8240040FFFBFFFF46
:103E0000FFF7FFFF10B50200D2B2002A05D0022A48
:103E10001BD00DD3032A25D031E01B4800681F2397
:103E20009843C9B2CB06DB0E03431748036026E074
:103E3000154800681F4B0340C9B24801F824A4008C
:103E400004401C431048046019E00F4800681A4BF6
:103E50000340C9B28802F824E40104401C430A4824
:103E600004600CE008480068144B0340C9B2C80362
:103E7000F824240304401C4303480460FFE70020A7
:103E800010BD0000FFFFCFFF4C24004000B5020032
:103E90000B4B002A01D104200AE0C9B2042901DB3E
:103EA000042005E0C9B204204843185810800020BF
:103EB00000BD00001FFCFFFFFF83FFFFFF7FF0FF3F
:103EC0009024004010B501000020002200231A00B9
:103ED000D2B2022A10D2C9B2544BD2B21C245443DB
:103EE0001B59994206D1514BD2B21C2454431B1981
:103EF000180001E0521CEBE710BD70B505000C0086
:103F000000262800C0B2FFF7DDFF0600002E01D119
:103F100004203FE0E4B2200000280AD001280FD09E
:103F2000032814D004281AD0052820D0062826D02B
:103F30002DE070684068022101437068416028E00C
:103F400070684068012101437068416021E0706839
:103F500040688021890301437068416019E07068FE
:103F600040688021490301437068416011E0706836
:103F700040688021890101437068416009E07068F0
:103F800040688021490001437068416001E00420DD
:103F900000E0002070BD70B505000C000026280070
:103FA000C0B2FFF78FFF0600002E01D104203BE0D6
:103FB000E4B2200000280AD001280FD0032814D032
:103FC000042819D005281ED0062823D029E07068BF
:103FD0004068022188437168486024E07068406846
:103FE00001218843716848601DE07068406810498D
:103FF00001407068416016E0706840680D490140FA
:10400000706841600FE0706840680B49014070685B
:10401000416008E07068406808490140706841608C
:1040200001E0042000E0002070BD000080000020BE
:10403000FFFFDFFFFFFFEFFFFFDFFFFFFFFEFFFFE1
:10404000F8B504000F00002500262000C0B2FFF7DD
:1040500039FF0600002E01D104203FE0FFB2002FFF
:1040600009D0022F15D00DD3042F20D018D3062F3E
:104070002BD023D330E07068006901004906C90FD6
:104080000D0029E0706800690100C907C90F0D0023
:1040900022E07068006901008907C90F0D001BE06C
:1040A000706800690100C906C90F0D0014E070684E
:1040B000006901004907C90F0D000DE07068006933
:1040C00001008906C90F0D0006E070680069010053
:1040D0000907C90F0D00FFE72800C0B2F2BD70B597
:1040E00005000C0000262800C0B2FFF7EBFE06001A
:1040F000002E01D104202DE0E4B2002C06D0022CC9
:1041000012D00AD3042C1DD015D322E07068406968
:1041100020218843716848611BE070684069012173
:1041200088437168486114E07068406902218843DF
:10413000716848610DE070684069102188437168BA
:10414000486106E0706840690421884371684861ED
:10415000FFE7002070BD38B5040000252000C0B284
:10416000FFF7B0FE0500002D01D1042002E06868D1
:104170000068C0B232BD38B5040000252000C0B2CE
:10418000FFF7A0FE0500002D53D06868006901000C
:104190004907C90F00290AD004212000C0B2FFF747
:1041A0009EFFE868002801D0E868804741E0686821
:1041B00000690100C906C90F00290AD003212000A7
:1041C000C0B2FFF78CFFA869002801D0A86980471A
:1041D0002FE06868006901008906C90F002909D02D
:1041E00000212000C0B2FFF77AFF6869002801D0E3
:1041F0006869804768680069C00709D50121200007
:10420000C0B2FFF76CFF2869002801D028698047F9
:104210006868006901008907C90F002909D00221D7
:104220002000C0B2FFF75BFFA868002801D0A86893
:10423000804731BD10B5040003480068002802D053
:1042400001480068804710BDE405002000B501006A
:1042500000201A4A126880231B061343174A136072
:10426000154A134B1A60134A114B1A60C9B2002940
:1042700006D10E4A12680C239A430C4B1A6013E0C5
:10428000C9B2012908D1094A12680C239A430423B0
:104290001343064A136007E0044A12680C239A434A
:1042A00008231343014A1360C0B200BD200002403E
:1042B0002C000240A5A500005A5A00002020004012
:1042C00010B504002000C0B2FDF702FE10BDFEE7ED
:1042D000284909680F229143C0B20207120F0A430E
:1042E00024490A60704738B5040001252078FFF79B
:1042F000EFFF60682049086060781E490968202245
:10430000914340012022104008431A490860607818
:10431000002804D0012203211620FFF707FB00200C
:1043200005002800C0B232BD01201E21134A1160D1
:10433000E121124A116000210800C0B270471E201E
:104340000E490860E1200D490860704780B50948B2
:10435000006801000906C90F002908D0FFF7E4FF33
:1043600005480068002802D003480068804701BD66
:1043700000000000840F0040EC050020800F00408A
:10438000F2B50100069C079D2800C9B200290FD094
:1043900006001F0036B23FB2BE4207DB6E463678DB
:1043A000002E01D0200015E0180013E0801811E065
:1043B000C9B200290ED12600070036B23FB2BE4274
:1043C00007DB6E463678002E01D0180002E0200090
:1043D00000E0801A00B2F2BD38B5FCF7C7FE040059
:1043E0000025994A9849042000F090FDC0070ED599
:1043F0000420A076FA2189000020FDF792F9E07BE5
:1044000002283FD10020E0730020A0743AE08E4AD9
:104410008E49012000F07AFDC0070CD50620A07659
:10442000012020748A490020FDF77BF90020E07309
:104430000020607426E0844A8349102000F066FD65
:1044400080070CD50020A075608D60806088E083B7
:104450000120A0760020E0730020A07412E07A4AC8
:104460007949022000F052FDC00702D50120050065
:1044700008E0754A7449082000F048FDC00701D5DE
:1044800001200500EDB2002D05D00120A07600200E
:10449000E0730020A07431BDF0B583B0FCF766FE78
:1044A000040000260025684A6749042000F02EFD1C
:1044B000C00706D50020A0760020E0730020A0747D
:1044C0009AE0C8226349022000F020FD052108423D
:1044D00004D001200700012006008DE0C8225D49BC
:1044E000082000F013FD0521084204D00020070039
:1044F0000120060080E0544A5649012000F006FDE4
:1045000005000621084229D0EDB2022D0CD106206B
:10451000A076002020744E490020FDF702F900200B
:10452000E0730020607415E0EDB2042D12D100F0AC
:1045300065FD00280BD0E07D00B2019000200090C6
:104540000123012201210120FFF71AFFE07501205C
:1045500000F0B3FB608E401F60864DE03A4A3A4956
:10456000102000F0D3FC80071ED5A07D00B2019082
:10457000002000900123012201210120FFF700FF0C
:10458000A07520002A30A17D012902D121002C3103
:104590000800018861806188E1830021E1730021C6
:1045A000A1740021E17527E0274A2A498020800074
:1045B00000F0ACFC40071FD4234A24498020C000EF
:1045C00000F0A4FC400717D50220A076002020723E
:1045D000E079FE210140E17100206072C9490020AC
:1045E000FDF79FF8C8490120FDF79BF800202076D1
:1045F000E07902210143E171F6B2002E23D0A07CC4
:10460000002806D00020A07410490320FDF789F887
:1046100019E00220205E01902620205E00902420D8
:10462000235E052200213800C0B2FFF7A9FE60809A
:10463000E07D002802D16088E08304E0E07D01286D
:1046400001D10220E075F7BDFFFF000088130000D4
:1046500010270000B80B0000F0B583B00500FCF790
:1046600085FD0400207A00281DD0022851D040D3B7
:1046700004286BD05CD3062800D195E000D283E0FB
:10468000082800D1B6E000D29DE00A2800D1C8E099
:1046900000D2C6E00C2800D111E100D201E10D28C2
:1046A00000D11CE12DE1E0790100C907C90F002903
:1046B00016D0260020363420205C012802D12000AC
:1046C000223006000020305E01905E20C043009042
:1046D0006423052200212800C0B2FFF751FE30807C
:1046E000E07901210143E171D0490220FDF719F879
:1046F00007E12420205E01902620205E0090E12327
:104700009B00052200212800C0B2FFF739FEA084DB
:10471000F7E02620205E0190322000902420235EC6
:10472000052200212800C0B2FFF72AFEE084E8E05D
:104730002820205E0190052000906423052200219E
:104740002800C0B2FFF71CFE2085DAE0607F010080
:10475000C907C90F09B2019100200090012301226D
:1047600001212800C0B2FFF70BFE002801D0012074
:1047700000E00020617FFE220A4010436077607FE6
:104780000100C907C90FBCE03420205C00B20190D1
:10479000002000900223012201212800C0B2FFF76F
:1047A000EFFD34216054ACE03020205E0190A02069
:1047B000009096239B000A2200212800C0B2FFF738
:1047C000DFFD20869DE02A20205E019032200090AF
:1047D000AF235B00052200212800C0B2FFF7D0FD07
:1047E000608522002A322620215E2420205EFCF7EC
:1047F000A2FE86E02C20205E019032200090AF23A4
:104800005B00052200212800C0B2FFF7B9FDA0859A
:1048100022002C322620215E2420205EFCF78BFE15
:104820006FE026002E3627002F37207A0A2805D180
:1048300020002F30060020002E300700607FC0B21D
:1048400040080100C907C90F00291FD0307805288A
:1048500008D1EDB2002D05D1607FFD2101406177C7
:1048600005203870307800B2019005200090F023C8
:10487000052200212800C0B2FFF782FD3070904869
:10488000007800280CD03078387009E0EDB2002DA7
:1048900006D0607F022101436177012088490870BA
:1048A0002FE03220205E01902D200090642305220D
:1048B00000212800C0B2FFF763FD608621E03620AA
:1048C000205C00B20190002000900323012200210F
:1048D0002800C0B2FFF754FD3621605411E00020DB
:1048E0006072FA2149000220FCF71BFF607F04215F
:1048F00001436177FCF7A8FB4C490020FCF711FF4E
:10490000FFE7F7BD3075000060EA0000F8B5FCF77E
:104910002DFC0400002501270026A3490020FCF7F8
:1049200000FFA2490120FCF7FCFE00202076A04AEF
:104930009F49042000F0EAFAC00702D50020A076C3
:1049400064E09B4A9A49012000F0E0FAC0070DD5C7
:10495000207A401C2072207A0E2801DB0020207271
:10496000002057490870002060724FE0C82291492A
:10497000022000F0CBFA06000521084211D0207A6F
:104980000D2802D00120050040E0F6B2012E3DD1F5
:10499000607A002802D0607A032837D10120050010
:1049A00034E0C822A949082000F0B0FA0600052129
:1049B000084215D0207A0D2804D0012005000020DF
:1049C000070023E0F6B2012E20D1607A002802D041
:1049D000607A03281AD1012005000020070015E0A5
:1049E000734A7349102000F091FAC0070ED50020D9
:1049F000A075608D60806088E0830120A076002033
:104A0000E0730020A074102000F057F9EDB2002DE3
:104A10000BD03800C0B2FFF71FFEE079FD21014046
:104A2000E1718A490720FCF77CFEF1BD8813000084
:104A300038B5FCF79BFB04000025854A8449042017
:104A400000F064FAC00702D50020A0762CE0804A6E
:104A5000FA21C900022000F059FA400704D50120CC
:104A60000500002020731FE0794AFA21C9000820C0
:104A700000F04CFA400704D5012005000120207306
:104A800012E0734A7249102000F040FA80070BD5FB
:104A90000020A075608D60806088E0830120A07692
:104AA0000020E0730020A074EDB2002D06D000209D
:104AB000E0720120A072207BFDF724FA31BD0000D6
:104AC0002C0600207CB5FCF751FB040000250126D4
:104AD000374A3749042000F019FAC0071ED5607C18
:104AE000002802D00220E07303E00020E0730020E1
:104AF000A074207C002809D10120A076E07B022848
:104B000037D154490320FCF70CFE32E00020A07698
:104B1000E07B02282DD10120A0742AE0C8224B4955
:104B2000022000F0F3F90521084202D0012005001F
:104B30001FE0C8224549082000F0E8F90521084295
:104B400004D0012005000020060012E0184A184990
:104B5000102000F0DBF980070BD50020A075608DD8
:104B600060806088E0830120A0760020E073002050
:104B7000A074EDB2002D16D00120E073364900205C
:104B8000FCF7CFFD31490320FCF7CBFD607C00B280
:104B90000190002000903023012201213000C0B29A
:104BA000FFF7EEFB607473BD3075000060EA000033
:104BB000FFFF0000DC05000010B50400E4B2002C8B
:104BC00009D0022C0DD009D3042C10D00CD3062C04
:104BD00013D00FD314E0FFF7FFFB11E0FFF75CFCED
:104BE0000EE0FFF793FE0BE0C046C04608E0C0466B
:104BF000C04605E0FFF71CFF02E0FFF763FFFFE799
:104C000010BD10B5FCF7B2FA0400E07E012805D112
:104C10000220E0760D490420FCF783FD0C4A0D4983
:104C20008020400000F072F940070DD5A07E0128D9
:104C30000AD1E07E022802D10020E07604E0E07E86
:104C4000002801D10120E07610BD0000B80B000063
:104C5000FFFF0000881300001027000010B5FDF7CB
:104C600090FB80B200F0E7F800F01BF8002812D0AB
:104C7000FCF77CFA0400A07902210143A17100F045
:104C80001EFA00F029FAFFF7BCFFE07E002802D1EF
:104C9000A07EFFF791FF10BD80B5974800F098FA0D
:104CA00001BD00B595480078002804D00020934944
:104CB0000870012000E0002000BD914909880143EF
:104CC0008F4A1180704770B5002004000020050055
:104CD0000026F6B2082E0BDA3000C0B200F085FADA
:104CE000002803D020000124B4400443761CF0E7E0
:104CF000250020008049098880B2884215D17E486D
:104D00000088002811D0200080246400044328007B
:104D100080256D000543784800888543AC480088AD
:104D2000754909880143AA480180200072494988D1
:104D300080B2884215D170484088002811D02000E8
:104D40008024A400044328008025AD0005436A4860
:104D5000408885439E4800886749498801439C48AC
:104D6000018020006449898880B2884215D1624858
:104D70008088002811D020008024E400044328000B
:104D80008025ED0005435C48808885439048008875
:104D90005949898801438E48018020005649C988B5
:104DA00080B2884215D15448C088002811D0200014
:104DB000802424010443280080252D0105434E480A
:104DC000C0888543824800884B49C9880143804890
:104DD0000180280080B270BD00B500217D4A128894
:104DE000821A11007B4A10807B4A1288002A0ED05A
:104DF000794A12880B009BB29A4205D3764A1288F0
:104E0000521A754B1A8002E00022734B1A80734AC3
:104E10001288002A0ED0714A12880B009BB29A4267
:104E200005D36E4A1288521A6C4B1A8002E0002297
:104E30006A4B1A8000BD38B5040069480078002824
:104E400005D0FFF729FF00206549087052E02000D7
:104E500080B2FFF7C1FFFFF736FF0500ADB229486A
:104E60000088684000281BD000205E4908705E481A
:104E70000078401C5C4908705B480078062836DBE7
:104E80000020594908701F48008868405749088029
:104E90001C4805805648058001201849087029E003
:104EA000002051490870ADB2002D11D04D48007856
:104EB000401C4C4908704B480078062817DB00203E
:104EC000484908704A48058002200C49087011E0E2
:104ED00000204549087000204249087000204449DC
:104EE000088000200649088000200749088000202B
:104EF0000249087031BD0000D40500203D060020A5
:104F0000140600200E0600201606002010B503002F
:104F10002F480088184201D0002057E0354800880B
:104F200018421CD031480088184208D000202F4C6D
:104F300020802F480088184201D1022046E02C48EA
:104F40000088184241D02448008800283DD12348D9
:104F50000088002839D121480280042036E0234807
:104F60000088184231D00020204C2080184800884A
:104F7000184206D0164800889843154C208000201F
:104F800024E01B48008818421DD089B21A4881428B
:104F90000DD1174800881C00A4B2A04205D1002002
:104FA0000D4C208000200D4C208001200EE0114887
:104FB000008818430F4C2080074801800020074CD0
:104FC0002080012002E0022000E0002010BD00004F
:104FD000140600201C060020180600201A060020D7
:104FE000BD0000203F0600203E06002010060020E5
:104FF0001206002016060020FFFF000000B504483E
:105000000078032801D1012000E0002000BD00004D
:105010003206002038B50024FCF7AAF804003E2030
:1050200000F028F9200000F06DF900280BD0FCF703
:105030009DF80500687FFB2101406977FCF704F8C3
:10504000200000F08BF931BD38B50024FCF790F852
:1050500004001D48007801280AD101201B4908706E
:10506000002019490870FDF78CF91949088010E0F3
:105070001548007802280CD1200000F043F90028E0
:1050800004D0FBF7E1FF200000F068F900200E4992
:1050900008700E480078002810D00025FDF771F93F
:1050A0000B490988401A0500ADB20A48854205DB64
:1050B000002006490870200000F050F931BD0120A1
:1050C00001490870704700003306002034060020B4
:1050D00002060020E903000080B5102000F0B0F9BE
:1050E00001BD80B5FDF74DF980B200F0B3F901BD07
:1050F00000B583B0012069460870012069464870F8
:1051000001206946887000206946C8706A460421FB
:10511000C020FDF7BDFA07BD00B583B00120694688
:105120000870012069464870012069468870002097
:105130006946C8706A460521C020FDF7A9FA07BD77
:1051400000B583B0012069460870012069464870A7
:1051500001206946887000206946C8706A460221AD
:105160000020FDF795FA07BD00B583B00120694620
:105170000870012069464870012069468870002047
:105180006946C8706A4601210020FDF781FA07BD13
:1051900000B583B001206946087001206946487057
:1051A00001206946887000206946C8706A4600215F
:1051B0000020FDF76DFA07BD80B5FFF799FFFFF7F7
:1051C000ABFFFFF7BDFFFFF7CFFFFFF7E1FF01BD2B
:1051D00010B50400FFF7F0FF0A2020801220608045
:1051E0001120A0800020E08010BD38B5040000250B
:1051F000E4B2002C0BD0022C1BD011D3042C2AD0EB
:1052000020D3062C31D02FD3072C2FD02FE0042110
:10521000C020FDF7F8FA002801D10120050026E0A2
:105220000521C020FDF7EFFA002801D1012005007B
:105230001DE002210020FDF7E6FA002801D101203F
:10524000050014E001210020FDF7DDFA002801D15E
:10525000012005000BE000210020FDF7D4FA002812
:1052600001D10120050002E001E000E0FFE7280095
:10527000C0B232BD10B5040070480470012000F0C7
:1052800025F910BD70B504000E00E4B2002C02D068
:10529000E4B2012C1BD10025E4B2802080006043E1
:1052A000FC2109024018050064480278921CD2B221
:1052B0002900300000F037FA310060480078801C87
:1052C000C0B200F055FA002801D0012000E0002013
:1052D00070BD70B506000C00002531000020FFF7FE
:1052E000D1FF002802D1280001250543210001201B
:1052F000FFF7C8FF002802D1280002250543280037
:10530000C0B270BD30B5C1B004000025694620A808
:10531000FFF7DFFF0500A807800F032801D1012058
:105320001AE00022E80702D56846010006E0A80757
:1053300002D520A8010001E020A8010010003F4B89
:105340001B78C0B2984206D2D2B288184078D2B246
:10535000A054521CF2E7002041B030BDF1B5E2B0DC
:1053600000270026012521A941A8FFF7B2FF070069
:10537000B80713D0F80707D521A80078401C06000D
:105380003000401C050011E0B8070FD521A80078B7
:10539000401C05002800401C060007E041A80078DA
:1053A000801C060021A80078801C0500629A234812
:1053B00001783000C0B200F0C7F969464870629ABF
:1053C0001E4801782800C0B200F0BEF96946087096
:1053D0000024200019490978C0B2884208D2629896
:1053E000E4B2005D01A9E4B209194870641CF0E759
:1053F000684606716846407801A9104A12788918F3
:1054000048700E480278921CD2B2FC21090201A811
:1054100000F068F9684605716846007801A9074AF6
:1054200012788918487005480278921CD2B2FE2181
:10543000090201A800F056F963B0F0BD440600204F
:1054400010B50400A4B2002C01D01D48048000F067
:10545000D9F910BD38B504001A480078002802D0E8
:10546000012806D02BE000F0C9F901201549087089
:1054700025E0002514480088201A0500ADB2FA2066
:10548000800085421ADB104804800D4800880028FF
:1054900014D00B48008800280BD009480088401E13
:1054A0000749088006480088002807D100F0AEF9B7
:1054B00004E000200249088000F0A8F9FFE731BDB0
:1054C0000A0600203C0600200C06002070B592B0B1
:1054D000040009A87A492022FEF702FB01A87949B5
:1054E0002022FEF7FDFA784A0023012C02D101A800
:1054F000010001E009A8010000200300082B23D2CD
:10550000FF206D46287004205843105804255D4341
:105510004D59A84216D068460078451E6E46357033
:10552000C0B200280CD06948694D28606948684DB0
:10553000286004205843085804255D435051E2E791
:10554000002002E05B1CD9E7012012B070BD80B5DD
:1055500001000022C805C00D0200002A01D0002071
:105560004CE0FF2000905C4800688007800F022814
:1055700015D00098431E009300280ED05348544B7A
:1055800018605448524B18605348006803239843EE
:105590000223034350480360E5E700202EE04B4818
:1055A0004B4B18604B484A4B18600020C0434B4B94
:1055B000186000200860FF20009047480068030042
:1055C000DB06DB0F002B0FD00098431E0093002852
:1055D000F3D13E483E4B18603E483D4B18600020DA
:1055E0003E4B1860002009E03848394B18603948B4
:1055F000374B18600020394B1860012002BDF2B50E
:1056000082B00400FF200090A4B2802767430026E8
:10561000780A060032480068864208D030480660A2
:105620002F480068802189004843FFF790FF2A48EF
:1056300000688007800F012814D00098411E009157
:1056400000280ED0214822490860224820490860DD
:105650002148006803218843012101431E4801605D
:10566000E5E72BE019481A4908601A48184908600C
:105670000020C0431949086000200500802D14D285
:105680000298405D79190870FF2000901248006868
:105690000100C906C90F002905D00098411E0091DC
:1056A0000028F3D10AE06D1CE8E7084808490860C3
:1056B000084807490860002008490860F7BD000055
:1056C000345C0000545C0000000002405A5A0000A4
:1056D0002C000240A5A5000020000240300002403E
:1056E000E0050020F0B5A1B004000E001700FFB2E5
:1056F000812F16DA0020050028003900C0B2C9B297
:10570000884206D2EDB2605D01A9EDB248556D1C2C
:10571000F2E76846F109018001A968460088FFF7B1
:105720006EFF21B0F0BD30B5002423001C00150031
:10573000E4B2EDB2AC4206D2DBB2CC182478DBB2D4
:10574000C4545B1CF2E730BD70B503000025002493
:105750001D0020000E00C0B2F6B2B04204D2E4B286
:10576000105D2D18641CF4E745206840C0B270BD80
:1057700070B506000D0000242A00711EC9B2002079
:10578000FFF7E2FF04002000F6B2A919491E0978CC
:10579000C0B2884201D1012000E0002070BD00B5F8
:1057A00083B001211C20FDF7DAFC00206946087057
:1057B00000206946487000206946887000206946CC
:1057C000C8700120694608710D218020FDF732F86C
:1057D0006A460D218020FCF75BFF0D218020FDF73C
:1057E00029F807BD80B50D218020FDF715F801BD12
:1057F00080B50D218020FDF71DF801BD80B5FFF7B4
:10580000CEFF01BD80B5FFF7EDFF01BD80B5FFF70D
:10581000EFFF01BDF20CD50CB70C990C7A0C5A0CA9
:105820003A0C1A0CF80BD70BB40B920B6F0B4B0BFB
:10583000270B020BDD0AB80A920A6D0A460A200AF3
:10584000F909D309AC0985095E0937090F09E80888
:10585000C1089A0873084D0826080008D907B3073D
:105860008D07680743071E07F906D506B2068E06A0
:105870006B06470627060506E405C305A305830551
:105880006305450527050905EB04CF04B304970418
:105890007C04620448042E041504FD03E503CD03D3
:1058A000B6039F03890373035E034A03360322038F
:1058B0000F03FC02EA02D802C602B502A502950255
:1058C000850275026602570249023B022E0220023F
:1058D00013020602FA01EF01E301D701CC01C10175
:1058E000B701AC01A20199018F0185017D0174010D
:1058F000E90BBC0B8E0B600B310B010BD00A9F0A1E
:105900006D0A3B0A080AD509A2096F093C09080972
:10591000D508A2086E083C080908D707A507730731
:1059200042071207E206B306850657062A06FE0559
:10593000D305A8057E0555052D050605E004BB0425
:105940009604730450042E040D04ED03CE03B0033B
:10595000930376035A033F0325030C03F302DB0290
:10596000C402AE02980283026F025B024802360252
:10597000240213020202F201E301D301C501B701BF
:10598000A9019C018F01830177016C01600156011F
:105990004B01410138012E0125011C0114010C01AC
:1059A0000401FC00F500ED00E700E000D900D300A1
:1059B000CD00C700C100BC00B700B200AD00A80018
:1059C000A3009F009A00960092008E0010B500245C
:1059D000FCF7D7FC1E490988401A0400A4B21D48F0
:1059E000844212DBFCF7CDFC194908801A48007884
:1059F000401C19490870184800781E2805DB002053
:105A00001549087001201549087010BD10B5FBF745
:105A1000ADFB0400E07B022816D1FFF7D7FF607CC6
:105A2000002809D00D480078002805D000200B4937
:105A30000870607C401E6074607C002807D10020E4
:105A4000E073207CA07602E000200349087010BDBE
:105A50000406002060EA000035060020360600201B
:105A600009080D080A0806080E040A0203040510B6
:105A70000B0109040D1006040208022006020704A7
:105A800005080B020701030201040280010202045F
:105A900002020B040F0109100D040E080F100E0175
:105AA000011001080F400E02070203010F020F044C
:105AB0000504000080B500F020F800F022F8FCF7A3
:105AC000CBFDFCF7B5FCFFF7A5FA62B6FBF752FB7E
:105AD00000F017F8FCF71CFCFFF703FBFCF736F8A7
