:10000000200300209D3D0000FF1E0000DD270000B2
:1000100000000000000000000000000000000000E0
:100020000000000000000000000000005723000056
:100030000000000000000000232900009D1C0000BB
:10004000ED270000F7270000012800000B28000022
:100050001528000083280000CF2300001F2800007F
:1000600029280000332800003D2800004728000010
:10007000512800005B280000652800006F28000060
:10008000792800008D28000097280000A128000092
:10009000AB280000B5280000BF280000C9280000D8
:1000A000D3280000DD280000E7280000F128000028
:1000B000FB280000052900000F2900001929000075
:1000C000F2B505000024280001D5012445422DB2D7
:1000D000F9208000854200DB451E4A4E280064213D
:1000E00000F0E0FB00B2375C009807702800642144
:1000F00000F0D8FB08000A2100B200F0D3FB00B2E8
:10010000305C0099487028000A2100F0CBFB09B24E
:10011000705C00998870002C01D0402002E03F2FD5
:1001200002D1002000990870F1BD80B500F05CFCA0
:10013000827BD1070BD501217848792202705022A9
:100140004270304A5118491E0978817001BD022160
:100150000A42F1D171490022805EFFF7B1FF01210F
:10016000252000F09FFF0121212000F09BFF0121AD
:10017000202000F097FF01BDD0B582B000F034FC24
:100180000400A07E062805D0A079800638D5E07B43
:10019000022835D1607C312832DA68461AA10A88F3
:1001A000028001211D2000F07DFF01216846227C94
:1001B000805C00F077FFE07B002802D1A079400747
:1001C0001ED4104E607C40080A2100F06BFB305CAE
:1001D000524FF8703F2801D10020F870607C400831
:1001E0000A2100F05FFB705C3871607CC00701D5AC
:1001F0006D2000E03F2078710121142000F052FFB3
:10020000D3BD0000D8050000010A10B500F0ECFBDA
:1002100004000121172000F045FF01210B2000F010
:1002200041FFA079C00702D501210C200AE0607FC0
:10023000800705D5A07C022802D10121032001E01E
:100240000121162000F02EFF01211F2000F02AFFBF
:1002500010BD10B500F0C8FB0400A079C00702D59E
:10026000012118200CE000F07BFF00280AD0A079C3
:10027000400707D50121182000F014FF01211A20A2
:1002800000F010FF607F800709D5A07C022806D10E
:10029000A079400703D501210F2000F003FF10BD16
:1002A00070B500F0A1FB040001211B2000F0FAFE54
:1002B000A0794007C60FE57E0121122000F0F2FE72
:1002C000022D05D1002E03D00021122000F0EAFEFD
:1002D0000121242000F0E6FE607D002802D10121EA
:1002E000112001E00121082000F0DCFE70BD10B5F6
:1002F00000F07AFB0400FFF718FFFFF73DFFA0793D
:10030000800609D40121012000F0CCFE03483F21E2
:10031000C17071210171417110BD00007005002094
:1003200010B500F061FB0400FFF7FFFEA079800626
:1003300010D40D490220205EFFF7C2FE01211420D7
:1003400000F0B0FE0121092000F0ACFE01211520D3
:1003500000F0A8FEFFF710FFFFF757FFFFF7A0FF21
:10036000FFF777FF10BD00007305002070B584B063
:1003700000F03AFB0400207A0190622815DA451C4F
:1003800028000A2100F08EFAC0B2009028000A214D
:1003900000F088FA954D00BF8FA60098002801D084
:1003A000305CE870C9B2705C28710121262000F031
:1003B00079FE0025207A0B282AD802A1095C490081
:1003C0008F4400BF0640464C526482888E9494E766
:1003D0000121002000F066FE3220205CE179002936
:1003E00018D02034012800D1A41C80490020205EB0
:1003F000FFF766FE0121252000F054FE0121212097
:1004000000F050FE002D03D00121202000F04AFE14
:1004100004B070BDA17B012803D1022001420FD09E
:1004200002E0C8070CD50120704D792129705021B8
:10043000697000BF68A10818401E0078A870E7E73F
:100440000125D2E70121022000F02CFE2434CCE764
:1004500001211E2000F026FE2634C6E701211C20C3
:1004600000F020FE2834C0E70121232000F01AFE0E
:100470000121012000F016FE607FC00700D482E059
:100480005A4D3F20287037206870C1E7012119209C
:1004900000F008FE684600BF4DA10A6802606D4684
:1004A0000121287800F0FEFD0121687800F0FAFDB6
:1004B0000121A87800F0F6FDA0794007A8D5002119
:1004C0003220205C285CA1E701211A2000F0EAFD1F
:1004D00030348AE70121112000F0E4FD2A3484E75A
:1004E0000121082000F0DEFD2C347EE702A800BFC9
:1004F00038A10A8802800121222000F0D3FD0121C9
:10050000032000F0CFFD0198092800DA80E70121DF
:1005100002A8019A80180938007800F0C3FD200075
:100520002E300090607F80072DD501980A2802D1D7
:100530000098401C009000980078F12800DB67E7E5
:1005400025A62A4D642100F0ADF9305C2870009892
:100550000078642100F0A6F908000A2100F0A2F951
:10056000345C6C70009800780A2100F09BF9705C94
:10057000A87028783F2800D04AE7002028703F2C38
:1005800000D045E780E7194D3F2028707120687042
:1005900054E70121132000F085FD607A010007D1A6
:1005A000A079400700D433E74020104908702FE7B6
:1005B0000128F9D0022803D140200C4D287063E7B0
:1005C000032800D024E74020084D2870687035E7E4
:1005D00007101A00060F00003F065B4F666D7D078F
:1005E0007F6F004061383777000000007005002001
:1005F00080B5012000F06AFD0021262000F052FDA8
:100600000021002000F04EFD0021022000F04AFDF4
:1006100000211E2000F046FD00211C2000F042FDBC
:100620000021232000F03EFD0021012000F03AFDD2
:100630000021192000F036FD0021072000F032FDD6
:100640000021102000F02EFD00211A2000F02AFDCC
:100650000021222000F026FD0021062000F022FDCE
:1006600000210F2000F01EFD0021132000F01AFDD4
:1006700000211D2000F016FD00210A2000F012FDCF
:1006800001BD000030B587B000F0AEF9817A0A00F4
:100690000DD1724939200870092048700F208870E8
:1006A0000420C8705E2008713820487123E00129B9
:1006B00010D16A4939220A7009224A700F228A70C1
:1006C0008079400717D55E20C870792008713820DE
:1006D000487110E0042913D1604900220A703F22BA
:1006E0004A7037228A703823CB7004230B714A7109
:1006F000407B00286AD001210E2000F0D3FC65E089
:10070000022912D103A900BF55A238CA38C16946CF
:1007100056A238CA38C1C17A03AA525C4F4B6C4604
:10072000615C5918491E0A7008E0032906D14B493B
:1007300071220A7077224A7038228A7080794007C5
:1007400003D501210E2000F0ADFC00F0EEFD0028E5
:100750000CD0012811D0022816D003281BD0042861
:1007600020D0052824D0FF2829D02FE03B496D2038
:10077000C87077200871502027E038497720C8706A
:1007800073200871002020E034493720C8703F20D2
:100790000871312019E031493920C8703F200871B3
:1007A000792012E02D493920C8703F220A710CE0EF
:1007B0002A493820C8703F200871732005E0274976
:1007C0003E20C870702008713720487107B030BDD6
:1007D00038B500F009F9050000F060FCA879810740
:1007E0003AD5FD210140A9711C4C0721200000F0E1
:1007F000D9FD002000F06AFCA87E062827D801A1B8
:10080000095C8F44443E38201A140600012115204B
:1008100000F048FCFFF7B0FC19E0FFF733FF16E0EB
:10082000FFF7E6FE13E04F2020707D20607031203E
:10083000A0700620E0703F212171607107E0FFF792
:1008400095FD04E0FFF76CFD01E0FFF750FD20008F
:1008500000F06AFB00F040FB31BD00007005002095
:10086000010101020408080810200000010203032E
:100870000303020101010000F446002804D44942A8
:1008800000F013F8404260474042002905D45FD091
:1008900000F00BF8404249426047494200F005F839
:1008A0004942604703460B43E6D40022030A8B42C9
:1008B0000BD203098B4219D243088B422ED2411A24
:1008C00000D20146524110467047FF2209023FD034
:1008D00012068B4205D3121209028B4201D3121267
:1008E000090203098B4219D300E0090AC3098B42AC
:1008F00001D3CB01C01A524183098B4201D38B0132
:10090000C01A524143098B4201D34B01C01A5241D4
:1009100003098B4201D30B01C01A5241C3088B4219
:1009200001D3CB00C01A524183088B4201D38B0004
:10093000C01A524143088B4201D34B00C01A5241A6
:10094000884200D3401A5241CFD201461046704728
:1009500008B5C046C04608BD30B4994A13001533E7
:1009600000205979072900DB587118705870987069
:100970000121D97102211C7AFE2525400D431D72EB
:100980001E32DC231380AF246400D48064241481DD
:100990000A2454819381A025D5815A251574547455
:1009A000D2246400548211755075C020C000D082DA
:1009B000C82010838902518396249483A64DD58341
:1009C0001484E2355584AA25958488256D01D58443
:1009D0001385A64B53859485D1851086B820400198
:1009E0005086948630BC704775487047A048704761
:1009F0007348C17E427FD20704D4827E130001D0A7
:100A0000022A02D1002181760AE09A4A002313705B
:100A1000FA239B00538004228276022900D101210F
:100A2000C1767047F0B504000020205E924D002191
:100A3000695E0E00814210DA871B3FB238000A213E
:100A4000FFF730FF09B2781A042904DB092901DB1A
:100A50000A3000E0401D361812E0884210DA371ADA
:100A60003FB238000A21FFF71DFF09B2781A00B221
:100A7000361A042904DB092901DB0A3E00E0761F4F
:100A80002E8028882080F0BD38B5002000F0D0FCF2
:100A90000400012000F0CCFC050000F0C6FC0100C1
:100AA00047483222825C002A03D0022A16D00AD399
:100AB0002CE0C90702D50121817308E0018C61187F
:100AC0000180002121E00222114202D08273A1495B
:100AD00029E0418C69180180002116E0032902D128
:100AE0009C4A028009E0CA0701D59A4A0BE08A07AE
:100AF00005D5028CA2180280964A828005E0002962
:100B000003D1028CA2180280858081730021415E8E
:100B1000F9239B00994201DB591E04E05E23DB436D
:100B2000994200DA19460180FFF77CFF31BD10B50C
:100B300000F0CAFD884C2188401A80B2322804DBBC
:100B400000F0C2FD208000F07CFC10BD0023D35ECD
:100B5000984203DB1800884200DA080010807047D2
:100B600038B5174CA07D002802D0012802D007E03C
:100B7000E08B04E000F00AFE80002018C08E608048
:100B8000A21C2620215E2420205EFFF7DFFF262006
:100B9000205E2421615E0B002A25655FAB4203DBEA
:100BA0002B00834200DA030063852C22A25E91426F
:100BB00003DB1100814200DA0100A18531BD000094
:100BC0000000002010B500F07FFDA24C6188401AA3
:100BD00080B2FA214900884226DB00F075FD608072
:100BE0009D48817912220A438271C17A491CC9B297
:100BF0000A2900DB0021C1722178491CC9B20229EF
:100C000008DB0021130702D5F723134001E0082376
:100C100013438371217081794A0702D5FB220A4070
:100C200001E004220A43827110BD10B58A4881791F
:100C3000CA0607D5EF220A408271FFF725FFFFF7AA
:100C40008FFF10BD827E984B1C78944203D01A709F
:100C500012220A43827110BD1E0B0000934A8000CD
:100C60001018002202704180704700001E1600001C
:100C70001A000020F80400201401002038B5764C3A
:100C80008A4D2878002805D000202870217A002974
:100C900000D0A0762879002815D000202871607F28
:100CA000400710D4207A00280DD1207E401C2076E9
:100CB000C0B20A2805DB607F042101436177FFF79A
:100CC0004BFE7B48E880287A002810D0002028724C
:100CD000217A0A0001D1E07131BD0B2907D1607A78
:100CE000032804DA401C6072FA204000688131BD9C
:100CF00038B5594C6D4D287800280BD0002028704D
:100D0000A07A022804D16B4868800320A07213E007
:100D10000120A076A07A01280AD100F006FB042861
:100D200016D00220A072002028706148688031BD72
:100D3000022801D003280BD100F0F7FA042807D1CC
:100D4000002028705C4868800420A0720120607335
:100D500031BD0000E30300008E0500203E48817E87
:100D6000491E052900D9704780B501A2525C9744FD
:100D700004686E7E969C4D490A7C002A06D00022AB
:100D80000A74C27E022A01D10122C276C27B022AE3
:100D90000CD10A7B002A0DD000220A73474ACA816F
:100DA0008279930603D42023134302E08279DF2360
:100DB00013408371827C002A4BD00A7D002A48D0E0
:100DC00000220A75037D002B02D002753C4802E028
:100DD000012202753948C88201BDFFF74FFF01BDEE
:100DE00032490A78002A34D000220A70012109E031
:100DF0002E490A78002A2CD000220A70FA2292008A
:100E00004A800321817601BDFFF772FF01BD2749AA
:100E10000A78002A14D000220A70437C002B04D0E8
:100E20000223C3730A73254BCB81037C002B02D1B1
:100E30000122827604E08276827920231343837133
:100E40000A7B002A05D000220A73C17B012900D148
:100E5000C27301BD7E0500200000002038B500F0FF
:100E600033FC124A918B884201DB411A01E0431E98
:100E7000591A89B2002914D09083901C07220123AB
:100E8000048825000AD08C4204DB641A0480240400
:100E900004D101E000240480841E2370001D521E32
:100EA000EED1FFF75BFF31BDA6050020F80400205E
:100EB00060EA000030750000B80B000088130000E5
:100EC00050C3000080B5FFF732FEFFF7AEFEFFF71C
:100ED000C5FFFFF777FE01BD80B510218B4800F0FC
:100EE0000BFD01BD10B4049C20706170A270E37012
:100EF00001982071029860710398A07110BC70472E
:100F0000E0B4002301259D40284206D07F4D0E7895
:100F1000AD192E78177837432F705B1C521C491C73
:100F2000072BEFDBE0BC7047F1B588B004A8039055
:100F3000072002900B20019007200090032303223A
:100F40000B210F20FFF7CEFF06A803901020029080
:100F5000082001900090082310221021FFF7C2FF03
:100F600006AA04A908980078FFF7CAFF04A803900E
:100F7000072002900B2001900720009003230322FA
:100F80000B210F20FFF7AEFF06A803904020029030
:100F9000202001900090202340224021FFF7A2FF53
:100FA00006AA04A908984078FFF7AAFF04A80390AE
:100FB000062002900B2001900720009003230222BC
:100FC0000A210F20FFF78EFF06A803900120029050
:100FD000802001900090802301220121FFF782FFF1
:100FE00006AA04A908988078FFF78AFF04A803904E
:100FF0000A200290062001900A2000900E230E2263
:1010000006210220FFF76EFF202006AC2070402151
:101010006170A170E07020716071A17106AA04A9CD
:101020000898C078FFF76CFF022604AD2E700520EB
:1010300068700D20A8700E20E8700A202871062024
:1010400068710920A8718020207001276770A7703F
:10105000E07020716071A77106AA04A90898007950
:10106000FFF74EFF2F70052068700D20A870E87004
:1010700009202871052068710920A87126700420B4
:101080006070A070E67026716671A07106AA04A94E
:1010900008984079FFF734FF09B0F0BD80B500F043
:1010A000EDFB01BD1AA240001018184A0378D318AE
:1010B000002905D00178515C4078084318707047CA
:1010C00019784378994300781154704730B401007F
:1010D000002400200D4A0D0000D0FF201070641C79
:1010E0000D0000D0FF205070641C0D0000D0FF20C8
:1010F0009070641C0D0000D0FF20D070641C121D85
:10110000E4B2102CE7DB30BC704700006005002023
:10111000091009080A100A080A040A020B040B0243
:101120000B01051005080610060806040602070450
:101130000702070101100104010102400208020434
:1011400002020304030203010D100D080E100E0825
:101150000E040E010F040F020F010F400F100000CC
:1011600062480078704780B5FFF73EFC011D8A7821
:10117000D20717D53222805C022813D1887A002842
:1011800010D12C20085E00228A5E824207DB0120FB
:10119000564A10708878FE2202408A7001BD1E38BF
:1011A000904202DB00205149087001BD70B5FFF785
:1011B0001BFC0400607F800733D5A079C00730D5C1
:1011C0004B4EA07C00280AD1E0740125A57400F0E4
:1011D0007BFA308047490520FFF740FD28E000F00A
:1011E00073FA3188401A80B24349884221DB00F00B
:1011F0006BFA3080E07C401CE07421002E31A27C30
:10120000022A00D1491C0978C0B2884211D30020BB
:10121000E074022A02D00220A0740DE00120A07424
:1012200070BD0025E574A57400F04EFA30490880C1
:101230002575A07C022803D1A079FE210140A1716F
:1012400070BD10B500F040FA00F0C2FB2B4C2078C6
:10125000010004D100F038FA608001200AE0012882
:101260000AD100F031FA6188401A80B224498842DC
:1012700039DB0220207010BDFFF7B6FB0400FFF73A
:10128000B3FB817E0A0006D0022904D0062915D1BD
:10129000007C012815D1A079FE210140A171FFF742
:1012A00085FFA079C00716D51421002000F064FB4B
:1012B00096218900012000F05FFB10BD807B002893
:1012C000E9D100F0A5FBA179FE220A401043A071EC
:1012D000FFF749FFE3E70021002000F062FB002157
:1012E000012000F05EFB10BD00000000A8050020FA
:1012F000A00500208813000060EA0000820500209D
:10130000B90B000010B50400200000F0C3FB00285A
:10131000FAD010BD80B500F0C5FB00F0BFFB9621F0
:1013200049000D4800F022FA01BD0A48007A7047D2
:1013300010B5040000F0C0FB601E8041C043C00F28
:10134000044A107202211000143000F00FFA10BD90
:1013500000000000600000206C000020094205D061
:10136000830705D00270401C491EF9D17047000068
:10137000130030B414001500103902D310393CC0EA
:10138000FCD2490700D30CC000D504C0890002D3A9
:101390000280801C002900D5027030BC704700001C
:1013A0000022DBE70022E3E7F8B50027002401294B
:1013B00002D100BF7AA100E042A10A88824202D293
:1013C0005E20C0432FE0DA23CB5A984201D23B483B
:1013D00029E06300CB5A984202D2641C6D2CF8DBE2
:1013E000002C1BD0620089188A1E12880988401AB6
:1013F00083001D186D00561A28003100FFF752FABD
:101400000700F00F80194010009028003100FFF70E
:1014100049FA89B20098884200DA7F1C0A3CA00091
:1014200000194000C01B00B2F2BD2248807870470E
:101430000100022904DA1F48490040180421405ED7
:10144000704738B51B4C2078002802D0012805D001
:1014500031BD00F05AFB0120207031BD2000083062
:1014600000F0B9FB002824D0A1782089124D020099
:101470001E3AAA4204D301200843A070104805E098
:10148000FE220A40A2700021FFF78EFFA080A17803
:10149000608902001E3AAA4204D302200843A070C9
:1014A000074805E0FD220A40A2706178FFF77CFF43
:1014B000E08031BDA8000020B50F0000E30300006C
:1014C000E7030000F20CD50CB70C990C7A0C5A0CFF
:1014D0003A0C1A0CF80BD70BB40B920B6F0B4B0B8F
:1014E000270B020BDD0AB80A920A6D0A460A200A87
:1014F000F909D309AC0985095E0937090F09E8081C
:10150000C1089A0873084D0826080008D907B307D0
:101510008D07680743071E07F906D506B2068E0633
:101520006B06470627060506E405C305A3058305E4
:101530006305450527050905EB04CF04B3049704AB
:101540007C04620448042E041504FD03E503CD0366
:10155000B6039F03890373035E034A033603220322
:101560000F03FC02EA02D802C602B502A5029502E8
:10157000850275026602570249023B022E022002D2
:1015800013020602FA01EF01E301D701CC01C10108
:10159000B701AC01A20199018F0185017D017401A0
:1015A000E90BBC0B8E0B600B310B010BD00A9F0AB1
:1015B0006D0A3B0A080AD509A2096F093C09080906
:1015C000D508A2086E083C080908D707A5077307C5
:1015D00042071207E206B306850657062A06FE05ED
:1015E000D305A8057E0555052D050605E004BB04B9
:1015F0009604730450042E040D04ED03CE03B003CF
:10160000930376035A033F0325030C03F302DB0223
:10161000C402AE02980283026F025B0248023602E5
:10162000240213020202F201E301D301C501B70152
:10163000A9019C018F01830177016C0160015601B2
:101640004B01410138012E0125011C0114010C013F
:101650000401FC00F500ED00E700E000D900D30034
:10166000CD00C700C100BC00B700B200AD00A800AB
:10167000A3009F009A00960092008E0070B500F0C3
:10168000EFFA3E490A78821A08704B880C890025C7
:10169000FA20800013E0521E5B1C641CA4B284423A
:1016A0000DDB00248E88761C8E804E78761C4E7062
:1016B000F6B23C2E03DB4D70CE88761CCE8016062B
:1016C000E9D10C814B8070BD2C4840887047F8B53B
:1016D000040000F0C5FA29490A78821A08704D887A
:1016E0000E890020FA239B0013E0521E6D1C761C0D
:1016F000B6B29E420DDB00268F887F1C8F804F780C
:101700007F1C4F70FFB23C2F03DB4870CF887F1CDB
:10171000CF801706E9D10E814D802278100009D1C3
:101720008988A088081AA180110008D180B20428F5
:101730000EDB09E0012A01D1C988F2E7FEE7012AA0
:1017400006D180B2032803DB002060800AE0401845
:10175000010409D06288110004D00949521862803E
:101760001204F4D10120F2BD0020F2BD38B505000D
:101770000C00FFF7ACFF6C8031BD000016050020A7
:10178000FFFF000080B500F06EFA01BD034801784C
:10179000072901DB0721017000787047160100203E
:1017A00080B50921002000F0EBFA0A21002000F0AA
:1017B000E7FA0B21002000F0E3FA0C21002000F0F2
:1017C000DFFA0821002000F0DBFA0921802000F078
:1017D000D7FA0821802000F0D3FA0721802000F0FA
:1017E000CFFA0621802000F0CBFA0F21402000F034
:1017F000C7FA0E21402000F0C3FA0D21402000F06E
:10180000BFFA0C21402000F0BBFA0B21402000F071
:10181000B7FA0A21402000F0B3FA0221402000F07C
:10182000AFFA0121402000F0ABFA0021402000F087
:10183000A7FA0521802000F0A3FA0421802000F0FF
:101840009FFA0721002000F09BFA0621002000F0FB
:1018500097FA0521002000F093FA0421002000F0FF
:101860008FFA0321002000F08BFA1F49002000F0BE
:10187000BBFA1E49012000F0B7FA01BD00B583B0E4
:101880000821684600F032FB0121022000F038FBFD
:10189000002000F0C3FC0121162000F0D9FC01213A
:1018A0001C2000F0D5FCFFF77BFF68460121417149
:1018B0000021817006220270817103214170C17084
:1018C000022101710A4801680A4A0A40C0218901BF
:1018D00011430160684600F099FA0121002000F0F0
:1018E00069FA03B000BD00000000E0FFFFF0FFFF59
:1018F000005C0040FF0FFFFF70B500248E08012E32
:1019000015DB050001E0082C0CDA28780002697864
:1019100001430802A97801430802E9780143200045
:1019200000F06AFA641C2D1DE4B2B442EBDB70BD1A
:1019300010B50400207A01280BD16089010002D083
:10194000401E60810FE0607A00280CD0206880473C
:1019500009E0002807D1A089010002D0401EA08123
:1019600001E060688047E089010002D0401EE0810C
:1019700010BD0120607210BD002802D0012808D0DF
:1019800070472248027A012A0AD00122027241815C
:1019900070471E48027E012A02D00122027641834E
:1019A0007047002802D0012809D070471748027AF2
:1019B000002A0CD00022C281028181817047134825
:1019C000027E002A03D00022C283028381837047F3
:1019D00010B50E4C2021615C002902D0012906D0EF
:1019E00010BD00F099FC01202021605410BD618CD5
:1019F000411A89B2642907DB60842000FFF798FF51
:101A000020001030FFF794FF10BD0000B40000204C
:101A100010B41F49087A0A884B88D21A12B20423DC
:101A2000CB5E9A4204DB012000220A7310BC70478F
:101A30000623CC5E6342934204DB00209A42F3DB30
:101A40000122F2E7421E9241D20FEEE710B5FFF7F6
:101A50003BFE0F4CE189401A80B2FA2149008842CE
:101A600013DBFFF731FEE081FEF7BEFF817E002928
:101A700005D0018DA180018DE18041882180018800
:101A800061808079C107C90F217210BD000000007C
:101A90005005002080B500F079FC02BD80B5C0463D
:101AA000C04601BD01480068704700009005002055
:101AB00080B500F0BBFC01BD80B50021054A117066
:101AC0000100002000F0DCFCC1B2052000F0E9FCC0
:101AD00001BD00005604002010B55D4C002120001F
:101AE0000C3000F031FE012120000E3000F02CFE01
:101AF00002212000103000F027FE032120001230C8
:101B000000F022FE0120207110BD10B58EB005211D
:101B1000684600F0EBF9062102A800F0E7F9182169
:101B200008A800F0E3F906214A4800F0DFF9052192
:101B300006A800F0DBF9052104A800F0D7F901217F
:101B40001C2000F085FB0021802000F019F9012104
:101B5000802000F015F90121102000F079FB002809
:101B600037D100F088FD01243B4801682143016022
:101B70006846047000214170022282700322C27004
:101B8000017100F033FD0A21002000F0A9FD0B21B6
:101B9000012000F0A5FD0A21022000F0A1FD0B218B
:101BA000032000F09DFD01220321182000F0E4FD38
:101BB00000F018FD684604722848089008A902A899
:101BC00000F0DFFC00220421684600F05DFD00F01B
:101BD00050FD0EB010BDF0B583B0002100241C4AAA
:101BE0001379012B30D1117113000C336D46C0CB2A
:101BF000C0C56B46958A1E889F88F619AD199582D7
:101C0000D58A5E88AD19DB88EB1815786D1C1570C8
:101C1000EDB2082D15DB1470958A0F240F262E4087
:101C20002D09082E00DB6D1C95821D042D0D1C4016
:101C3000082C00DB6D1C938A038045809182002371
:101C40000124D38200F015FD200003B0F0BD000098
:101C5000380500203C05002000240040D91A00006F
:101C600011480078704780B500F0C7F9FA21890063
:101C7000FEF71BFE401E8021490488420DD20B490D
:101C800048600B4802681202120AC0231B06134365
:101C90000360002088600720086001BD02480178C9
:101CA000491C017070470000A905002010E000E009
:101CB00020ED00E070B4334BC51801238B40DC43AA
:101CC0002E6826402E600025890041182E4E891965
:101CD0000D602E4941181578012D0D6801D11D4365
:101CE00000E025400D602A4941185578002D0D6807
:101CF00001D1254000E01D430D6026494118264DC5
:101D000045199678012E02D12E681E4308E0022E56
:101D10002E6804D126402E600D681D4303E0264046
:101D20002E600D6825400D601C494018D1780029AF
:101D3000016802D10C40046001E00B4303601848C5
:101D40000168184B0B401179C9038022120211401F
:101D500019430160002070BC7047134AFFE78018E8
:101D60000268CA40D007C00F7047104A00E0104A0E
:101D70008018026801238B401343036000207047E2
:101D8000004AF5E70C0D0240000C0240000D024035
:101D90001C0D0240240D0240200D02402C0D02407B
:101DA000080F0240FF7FFFFF040D0240100D0240AC
:101DB000140D0240002802D001280AD012E0454844
:101DC000026801239A43CB07DB0F13430360002013
:101DD00070474048426840239A43890119401143A3
:101DE0004160F4E7042070473E4A002801D11160A9
:101DF00000E0516000207047102801DB042070478C
:101E0000FFE7394A800011500020704710B5027872
:101E10003049022A03D9131F01D09B1E08D10B6839
:101E20002D4C1C405202E0231B01134023430B6046
:101E30004278032A03D9531F01D09B1E08D10B6897
:101E4000264C1C409201E0235B00134023430B60AF
:101E50008278012A06D80B682024A343520122402D
:101E60001A430A60C278032A06D80B681824A343D1
:101E7000D20014401C430C600279032A06D80B6878
:101E80000624A343520014401C430C604279012AEB
:101E900007D84B68124C1C4012028B0D1A4022438B
:101EA0004A604A6880239A438379DB018024234077
:101EB00013434B60C079002805D048684A0D02439F
:101EC0004A60012200E0002203211D2000F054FCA2
:101ED000002010BD005C0040FFF1FFFF3FFEFFFF50
:101EE000FFFEFFFF0C5C0040405C0040002800D17A
:101EF000704780B5002901D0FFF752FA01BDFEE717
:101F000070B402000020754B754C9C60754C9C6051
:101F10000C0000D00121002A06D0022A26D00FD3BF
:101F2000042A48D030D354E01A680124A2430A435B
:101F30001A6000294ED0D968C90A21404AD1FAE76F
:101F4000694C0122256C15432564256C02262E431D
:101F500026641C680225AC434D0025431D60002902
:101F600038D019698909114034D1FAE71A68042474
:101F7000A2438C0014431C60012200292AD0596915
:101F8000090B114026D1FAE7574C22681D0C154366
:101F900025602268DD0B154325601A680824A243DA
:101FA000CC0014431C600122002913D099698909CF
:101FB00011400FD1FAE71A681024A2430C01144310
:101FC0001C600122002905D0D96B890C114001D178
:101FD000FAE7042070BC704780B54049404A8A60E7
:101FE000404A8A600A68E0239A4340010340134351
:101FF0000B6000F097FC002002BDF8B40020804D7B
:1020000029886A88AB88EC886E462D8C3580334EE3
:10201000376807257F092F4006D0022F24D021D30F
:10202000042F2DD02AD353E0F0684005400D88429C
:1020300001D174484CE0F0684005400D904201D158
:10204000714845E0F0684005400D984201D16F4865
:102050003EE0F0684005400DA04201D16C4837E0F9
:102060006C4835E06C4833E0684600887169890542
:10207000890D884202D19620000229E0F00B27E06A
:10208000F06B8007800F03281DD1F0684005400DDC
:10209000814201D15B4817E0F0684005400D824263
:1020A00001D1594810E0F0684005400D834201D14C
:1020B000564809E0F0684005400D844201D154487B
:1020C00002E0544800E05448F16BC905090F484349
:1020D0003168090A0D40E840F2BC7047002000401A
:1020E0005A5A0000A5A500008C0D0240F8B5070063
:1020F000002069460870387800282ED002280ED0BB
:1021000003D3042820D011D325E0504C20690321AB
:102110000143216120693021014321611DE04B4CC5
:102120006069C02109010143616116E0474CA06963
:102130000C210143A161A06903210143A161A069B0
:1021400030210143A16108E0404CE06BE0218902AD
:102150000143E16301E00420087001213878FFF7B2
:10216000CFFE3978394C414DA560414EA6602068BC
:10217000E022904349010A400243226000F0D2FB72
:102180007978A560A66022683A4810400902E022EA
:10219000D2000A4002432260B878A560A660216898
:1021A000354A0A40C002C021490101401143216063
:1021B00068460078F2BD000001000020002906D02A
:1021C00002290AD006D304290DD009D316E00C4900
:1021D0000A890AE00A49CA8807E009498A8804E0AE
:1021E00007494A8801E006490A8824490B68DB0A46
:1021F000DB025205520D1A430A60704704207047F3
:10220000000C100000366E01408651010024F400DD
:1022100000127A0000093D000048E801010000209A
:10222000002902D0012903D00DE015494A8801E0B8
:1022300013490A8813490B689B0A9B029205920D69
:102240001A430A60704704207047000000200040D5
:10225000012282400C480029016802D00A43026032
:1022600001E0914301600020704700005A5A0000CD
:10227000A5A50000FFF8FFFFFFE7FFFF0C200040CF
:10228000200C1000142000402020004000B583B036
:1022900001211C20FFF7DCFF0020694608600120B7
:1022A00008710A218020FFF762FD6A460A2180201A
:1022B000FFF700FD0A2114E000B583B001211C20C6
:1022C000FFF7C6FF002069460860012008710B2156
:1022D0008020FFF74CFD6A460B218020FFF7EAFCC7
:1022E0000B218020FFF743FD03B000BD00B583B094
:1022F00001211C20FFF7ACFF002069460860012087
:1023000008716A460F210020FFF7D4FC0F2100203E
:10231000FFF72BFD03B000BD80B5FFF7E7FFFFF728
:10232000B5FF0A218020FFF722FDFFF7C5FF0B2133
:1023300007E080B50A218020FFF717FD01BD80B5B9
:102340000A218020FFF713FD01BD80B50B21F2E7C4
:1023500080B50B21F5E7FEE780B53148417802787A
:1023600091420ED001782F4A515C8022D205116033
:102370000178491C01700178402906DB00210170B9
:1023800001BD0621002000F033FB01BD80B52449CA
:102390000A784B785B1CDBB2402B00DB00239342B6
:1023A00001D1002002BD4B781E4AD0545B1CDBB229
:1023B000402B00DB00234B701B480068C105C90F90
:1023C00003D10621002000F0D9FA012002BD80B51A
:1023D0000621002000F04EFB002801D0FFF7BCFFD3
:1023E0000121002000F046FB002812D0012100202E
:1023F00000F071FB002000F096FB0749074A0B78BC
:10240000D0540878401C08700878202801DB002090
:10241000087001BD00000000A2050020D8040020C3
:10242000A4050020600400200400004080B50020C6
:1024300000F0D0FB0020FFF7BFFE002069460880B7
:1024400088706846FFF752FE0020FFF7E7FE012183
:102450000220FFF755FD0220FFF7BEFD0420FFF725
:10246000ABFE0020FFF7B8FD00210220FFF748FD7A
:10247000FFF7C3FD0149086001BD00009005002081
:10248000194A12189171401C80B270470200002056
:102490000B0005D01378C018C0B2521C491EF9D1E8
:1024A000704738B5104D55222A70AA226A7003224F
:1024B000AA70E870080A28716971CC1D611E89B282
:1024C0002800FFF7E3FFA4B22919491E0870200075
:1024D00007D0FEF71FFF287800F0A4FB6D1C641ED8
:1024E000F9D131BD00000000A004002070B55C4CA3
:1024F00001255C4E3068C008284007D0A068010064
:1025000000D0804770680821884370603068800878
:10251000284007D0E068010000D08047706804219F
:102520008843706030684008284007D02069010067
:1025300000D080477068022188437060306828406E
:1025400006D06069010000D080477068A8437060C1
:1025500030680009284007D06068010000D080473B
:10256000706810218843706030684009054007D0CA
:102570002068010000D08047706820218843706087
:1025800070BD4279012A04D14A69130001D0344B4D
:102590005A610278012A04D10A68130001D0304B35
:1025A0001A604278012A04D14A68130001D02C4BEA
:1025B0005A608278012A04D18A68130001D0284B1E
:1025C0009A60C278012A04D1CA68130001D0244B52
:1025D000DA600079012804D10869010001D020499E
:1025E0000861704725480168C20B3FE010B400281D
:1025F00001D1042032E0427820490B680C24A34327
:10260000920014401C430C6082780B68314C1C40D3
:102610001203C0239B01134023430B60C2780B6855
:102620002D4C1C405202C023DB00134023430B609F
:1026300000790A68294B1340C002CA0C10401843A5
:10264000086048680E4A02404A6048680D4A0240E5
:102650004A6048681E4A02404A60002010BC704729
:1026600020050020B0240040016801220A430260D6
:1026700070473348F8E70148F6E7000004240040BB
:10268000FFBFFFFFFFDFFFFF30B4002801D10420B0
:102690001CE00378294804682A4D25409B02040D5C
:1026A00023402B43036003680C4C1C40D202C30C34
:1026B0001A4022430260426C294B1340491E09050F
:1026C000C02292030A401A434264002030BC704783
:1026D000FFEFFFFFFFCFFFFFFFF9FFFFFFF7FFFF58
:1026E000002805D0022814D00BD3032819D022E0EB
:1026F0001F4802681F239A43C906C90E114301608F
:1027000019E01B480268174B13404901F822920058
:102710000EE017480268144B13408902F822D201D8
:1027200006E013480268114B1340C903F822120354
:102730000A401A430260002070470000082400404D
:10274000C8240040FFFBFFFF002801D0042901DB63
:1027500004207047074A89005158018000207047C3
:10276000FFFFCFFF1FFCFFFFFF83FFFFFF7FF0FF97
:102770004C2400409024004070B40123C406E40EB1
:10278000A340114C2360C40018252540FF26AE400D
:10279000F4438907090EA940002804D50B4D000712
:1027A000000F083800E00A4D8008800028180568EE
:1027B0002C4021430160012A01D1064800E006486F
:1027C000036070BC7047000080E200E01CED00E098
:1027D00000E400E000E100E080E100E081B00020E2
:1027E000009000980028FCD001B0704780B5002010
:1027F000C046C04601BD80B50120C046C04601BDEF
:1028000080B50220C046C04601BD80B50320C04649
:10281000C04601BD80B50020C046C04601BD80B5A0
:10282000012000F08BF901BD80B50020C046C046F4
:1028300001BD80B50120C046C04601BD80B5002065
:10284000C046C04601BD80B50120C046C04601BD9E
:1028500080B50020C046C04601BD80B50120C046FD
:10286000C04601BD80B50020C046C04601BD80B550
:102870000120C046C04601BD80B50220C046C0460A
:1028800001BD80B50020C046C04601BD80B5002016
:10289000C046C04601BD80B50420C046C04601BD4B
:1028A00080B50520C046C04601BD80B50620C046A3
:1028B000C04601BD80B50020C046C04601BD80B500
:1028C000002000F0E0F901BD80B50020C046C04600
:1028D00001BD80B50020FFF709FE01BD80B50020D5
:1028E000C046C04601BD80B50020C046C04601BDFF
:1028F00080B50120C046C04601BD80B50020C0465D
:10290000C04601BD80B50020C046C04601BD80B5AF
:10291000002000F055F901BD80B50020C046C0463A
:1029200001BDFEE780B50AE080B507480088074989
:102930000A68D20AD2024005400D10430860FFF732
:102940005CFB0349086001BD080C10000C2000402E
:10295000D800002010B4010000200022404B1C6869
:10296000A14204D1D000801A8000181803E001228F
:10297000DC69A142F6D010BC7047000010B4002200
:10298000374B1C68A04203D00122DC69A0422DD144
:10299000D000801A80001A18062927D801A0405CB0
:1029A000874400BF081848202A343E005068416818
:1029B00002220A434260002010BC70475068416800
:1029C0000122F6E75068416880229203F1E75068DF
:1029D000416880225203ECE75068416880229201EE
:1029E000E7E75068416880225200E2E70420E3E70D
:1029F00010B400221A4B1C68A04203D00122DC69EB
:102A0000A0422BD1D000801A80001A18062925D8A0
:102A100001A0405C874400BF081844202C343C00CF
:102A200050684168022291434160002010BC704709
:102A3000506841680122F6E750684168094A0A4037
:102A40004260F2E750684168074AF8E75068416819
:102A5000064AF4E750684168054AF0E70420E5E7D4
:102A6000DC000020FFFFDFFFFFFFEFFFFFDFFFFFC6
:102A7000FFFEFFFF38B50C000025FFF76BFF0028B5
:102A800001D1042032BD062C23D801A1095D8F4459
:102A9000060E18202830380040680069400617E00C
:102AA00040680069C507ED0F13E0406800698007C2
:102AB0000EE040680069C0060AE04068006940070F
:102AC00006E040680069800602E04068006900078F
:102AD000C50F280032BD10B50C00FFF73BFF0028E2
:102AE00001D1042010BD002C06D0022C0CD007D33D
:102AF000042C11D00CD314E04068416920220EE070
:102B00004068416901220AE040684169022206E00A
:102B100040684169102202E0406841690422914303
:102B20004161002010BD80B5FFF714FF002801D1DE
:102B3000042002BD40680068C0B202BD70B5060046
:102B4000FFF708FF040039D0606801250169890892
:102B5000294005D004213000FFF7BDFFE0682AE0DE
:102B600001690909294005D003213000FFF7B3FFAF
:102B7000A06920E000694009284006D03000FFF736
:102B8000AAFF6069010000D08047606800692840A2
:102B900007D001213000FFF79EFF2069010000D01F
:102BA0008047606800694008054007D00221300076
:102BB000FFF791FFA068010000D0804770BD0000C2
:102BC00003480068010000D1704780B5804701BD0F
:102BD0009805002012490A6880231B0613430B60E6
:102BE0000E490C4ACA600C4ACA600C22D243030048
:102BF00003D1086802400A6009E00128086802D190
:102C00000240042001E00240082010430860002038
:102C1000704700005A5A0000A5A50000200002409D
:102C20002020004080B5FEF76DFB01BD10B51F49A7
:102C30000A680F239A4303781B071B0F13430B608B
:102C400042681B4B1A600A6820239A4343785B0151
:102C50002024234013430B604078002804D0012235
:102C600003211620FFF788FD002010BD11481E210A
:102C70000160E1210160002070470E481E210160C3
:102C8000E121016070470B4841680A06D20F00D16C
:102C9000704780B51E210160E12101600448006891
:102CA000010000D0804701BD00000000840F0040FB
:102CB0009C050020800F00403CB404001800049DD7
:102CC000059B002C06D0834202DB002909D005E0D9
:102CD000981806E09D4203DB002902D1280000E09D
:102CE000981A00B236BC704738B5FDF77DFE040077
:102CF000804D2A002900042000F04CFCC0070AD5B2
:102D00000420A076FA2189000020FDF7A7FFE07BD0
:102D1000022839D132E02A007749012000F03AFC3C
:102D2000C0070BD50620A07601202074734900202F
:102D3000FDF794FF0020E073607431BD2A00290084
:102D4000102000F027FC800708D5002060752A219C
:102D5000615E6180E1830121A17610E02A002900F3
:102D6000022000F017FCC00706D42A002900082022
:102D700000F010FCC00707D50120A0760020E0730A
:102D8000A079DF210140A17131BDF0B583B0FDF71D
:102D90002BFE0400574F3A003900042000F0FAFBE4
:102DA000C00707D50025A576E573A079DF2101408E
:102DB000A1719CE00525C8225149022000F0EAFBE0
:102DC00028420BD00120A1798A067AD5DF2008405D
:102DD000A07149490320FDF741FF88E0C822484916
:102DE000082000F0D7FB284201D00020EBE73A0092
:102DF0004349012000F0CEFB0621084221D00228E1
:102E000009D1A176002525743C490020FDF726FF55
:102E1000E57365746BE0042869D100F0F5FB0028C8
:102E20000BD0A07D012801DB002000E0401CA07534
:102E3000E07D002801D10120E075012000F008FBB1
:102E400055E002263A003900102000F0A3FB304282
:102E500019D0607D012801DB002000E0401C607576
:102E600020002A30617D012901D120002C30002171
:102E7000405E6080E0830025E573A079DF2101409A
:102E8000A171A57533E004253A001D49E80100F061
:102E900081FB28422BD13A001749280200F07AFB27
:102EA000284224D0A67600252572E5716572A549D1
:102EB0000020FDF7D3FEA4490120FDF7CFFE2576C3
:102EC00015E00221615E01912621615E00912421BD
:102ED000635E05220021FFF7EFFE6080A17D0A00FE
:102EE00001D1E08303E0012901D10220A07503B0E4
:102EF000F0BD0000FFFF0000881300001027000055
:102F0000B80B00007CB50400FDF76EFDC51D6B78A5
:102F100019000B2900D913E101A24900525A974424
:102F20001600520074009400B200E6000A01340159
:102F300062019801980104022978002915D0060041
:102F4000203601002431897B012901D10600223677
:102F50000020305E01905E20C04300906423052273
:102F600000212000FFF7A8FE308001202870A8492A
:102F70000220E3E0050024350020285E01900220B5
:102F8000285E0090E1239B00052200212000FFF72E
:102F900093FE288073BD050024350220285E019031
:102FA0003220009000202B5E052200212000FFF738
:102FB00083FE688073BD050024350420285E0190DF
:102FC000052000906423052200212000FFF774FEF5
:102FD000A88073BDA87DC107C90F002C03D00129AB
:102FE0000CDA491C02E0012906DB491E0AB2521E16
:102FF0009241D243D20F02E0012200E00022FE21E2
:1030000001400A43AA7573BD05002435A87B002C36
:1030100005D0022801DB002006E0401C04E0012866
:1030200001DA022000E0401EA87373BD05002435BC
:103030000C20285E002C07D096218900884201DBF5
:10304000080006E00A3004E0A12801DAA02000E030
:103050000A38A88173BD0500243506216A5E002C5C
:1030600007D0AF2149008A4201DB0A0006E0521D69
:1030700004E0332A01DA322200E0521FEA80020023
:103080002A3213E00500243508216A5E002C05D0A1
:10309000AF2149008A4206DA511D04E0332A01DAE1
:1030A000322100E0511F298102002C320220295ECA
:1030B0000020285EFDF74AFD73BD01002E3102009D
:1030C0002F320A2B03D101002F3102002E32A87DAE
:1030D00083071FD50B78052B0BD1260009D1FD23C3
:1030E0000340AB75052010700B78062B09DA052319
:1030F00008E0002CF9D0F02B01DBF02302E05B1D8F
:1031000000E05B1F0B7099480078002818D0087801
:10311000107073BD002C13D002210143A97501204A
:103120009249087073BD0020A870FA21490002205E
:10313000FDF794FDFDF710FC35490020FDF78EFDED
:1031400073BD00003075000060EA0000F8B5FDF7BF
:103150004BFC0400012698490020FDF77FFD9749AC
:103160000120FDF77BFD00252576954A11460420B8
:1031700000F010FAC00701D5A576F1BD904A1146BE
:10318000012000F007FAC0070AD5207A401CC0B21F
:103190000C2800DB00202072744805706572F1BDB8
:1031A000C8228849022000F0F5F9052738420DD0E1
:1031B000217A0B2906D1012807D1607A010001D0BC
:1031C000032802D13000FFF79DFEF1BDC8227E49E1
:1031D000082000F0DFF938420BD0217A0B2906D104
:1031E0000128F2D1607A010001D00328EDD1002638
:1031F000E8E7734A1146102000F0CCF9C007E4D587
:1032000065752A20205E6080E083A676E5733DE048
:1032100088130000F8B5FDF7E7FB0400684D2A00AD
:103220002900042000F0B6F9C00702D50020A076DE
:10323000F1BDFA27FF0004262A003900022000F021
:10324000A9F9304209D0002020730020E07201204B
:10325000A072207BFEF76CF8F1BD2A00390008202F
:1032600000F098F9304201D00120EDE72A00290052
:10327000102000F08FF98007EED5002060752A211C
:10328000615E6180E1830121A176E073A079DF2195
:103290000140A171F1BDF8B5FDF7A6FB04000125C1
:1032A0000126474A1146042000F074F9C0071FD5D3
:1032B000607C002802D00220E07304E0E073A07973
:1032C000DF210140A171207C002808D1A576E07B98
:1032D000022849D13D490320FDF7C0FCF1BD002083
:1032E000A076E07B02283FD1A0792021014331E084
:1032F0000527C8223449022000F04CF9384207D192
:10330000C8223149082000F045F9384210D0002683
:10331000E5732F490020FDF7A1FC2B490320FDF7A1
:103320009DFC607C002E19D0302815DB00201AE0AF
:10333000234A1146102000F02DF9800714D50020F3
:1033400060752A21615E6180E183A576E073A079D2
:10335000DF210140A171F1BD401C04E0012801DA28
:10336000302000E0401E6074F1BD0000A705002081
:1033700010B5FDF739FB0400E07E012805D10220DD
:10338000E07611490420FDF769FC0D4A0F498020C1
:10339000400000F0FFF840070BD5A07E012808D1BF
:1033A000E07E022801D1002002E0002801D10120A6
:1033B000E07610BD000000003075000060EA0000FB
:1033C000FFFF0000DC050000B80B000088130000C0
:1033D0001027000010B5FEF777F900F0A6F800F00E
:1033E0002DF8002828D0FDF7FFFA0400A07902216B
:1033F0000143A17100F052F900F058F9FFF7B8FF4E
:10340000E07E002818D1A07E002813D001280ED01D
:10341000022809D0052804D006280DD1FFF73BFF6C
:1034200010BDFFF7F7FE10BDFFF790FE10BDFFF7D0
:10343000ACFC10BDFFF758FC10BD000070480178CF
:10344000002903D00021017001207047002070473F
:103450006B494A8A10434882704770B500260024A1
:10346000300000F083F9002804D020000124B4408B
:103470000443A4B2761C082EF2DB200060498A883F
:10348000944209D1130007D080204000204304005B
:1034900090434B8A1A434A82CA88A3B293420CD102
:1034A00013000AD080239B001C43A4B2050018001F
:1034B000284390434B8A1A434A820A89A3B2934213
:1034C0000BD1130009D08023DB001C43050018003A
:1034D000284390434B8A1A434A824A89A4B29442B1
:1034E00009D1130007D00300802000011843904346
:1034F0004B8A1A434A8280B270BD41494A8B821A74
:1035000092B24883CB8A002B04D0934201DB9B1AF2
:1035100000E00023CB820B8B002B04D0934201DB15
:103520009B1A00E000230B83704738B50024344D0C
:103530006978002904D0281D00F003F96C7031BDB2
:10354000FFF7DBFFFFF789FFA9890A0042400DD092
:10355000EC70AA78521CAA70D2B2062A18DBAC70A2
:103560004140E981A881288201200BE0AC70010074
:103570000AD0E978491CE970C9B2062908DBEC7069
:1035800028820220287031BDEC702C826C82AC82C3
:103590002C7031BD70B41A4B5C8A04422CD1DC898A
:1035A00004409D8A054210D01E8A3040002C03D072
:1035B0000021D98101001DD000281DD0D88A198B87
:1035C000014319D11A83042017E0002C14D00022E3
:1035D000DA811E8A06420DD00A4CA14204D18642ED
:1035E00006D1DA821A8303E028439882D9821A83AB
:1035F000012002E0022000E0002070BC70470000C3
:103600008C000020FFFF000003480079032801D14F
:1036100001207047002070475400002010B5FDF7CE
:10362000E5F904003A2000F0C1F8200000F0EFF8BE
:10363000002804D0FDF790F9200000F008F910BD33
:1036400038B5FDF7D3F90400164D2878012806D1C6
:10365000687000202870FEF737F868800DE00228B7
:103660000BD1200000F0D3F8002804D0FDF774F946
:10367000200000F0ECF800202870687800280CD0BA
:10368000FEF722F86988401A80B20749884204DBB5
:1036900000206870200000F0DAF831BD01200149F7
:1036A0000870704786050020E903000080B51020EF
:1036B00000F026F901BD80B5FEF706F800F028F904
:1036C00001BD00B583B0012069460870487088705C
:1036D0000020C8706A4604210AE000B583B00120CA
:1036E00069460870487088700020C8706A460521D5
:1036F000C020FEF7DFFA03B000BD00B583B00120A3
:1037000069460870487088700020C8706A460221B7
:10371000EFE700B583B001206946087048708870F3
:103720000020C8706A460121E3E700B583B001209C
:1037300069460870487088700020C8706A46002189
:10374000D7E710B50400FFF7BCFFFFF7C6FFFFF790
:10375000D4FFFFF7DEFFFFF7E8FF0A2020801220EA
:1037600060801120A0800020E08010BD10B50024F2
:10377000002806D002280AD006D304280DD009D389
:1037800012E00421C0200AE00521C02007E0022148
:10379000002004E00121002001E000210020FEF7CC
:1037A000DCFA002800D10124200010BD80B5534967
:1037B0000870012000F0CCF801BDF8B507000E003C
:1037C00000244E4D2A78921CD2B2FC21090200F04E
:1037D00091F939002878801CC0B200F0C1F90028A6
:1037E00000D101242A78921CD2B2FE2109023000B5
:1037F00000F080F931002878801CC0B200F0B0F9E8
:10380000002802D12000022404432000F2BD10B59C
:10381000C0B00400694620A8FFF7CFFF8107890FD9
:10382000032901D1012010E00021C20701D568461B
:1038300006E020A804E0421852786254491CC9B23C
:103840002E4A12789142F6DB002040B010BDF0B550
:10385000E1B006000024012521A941A8FFF7ADFF32
:1038600081070DD0C10704D521A80478641C651C0C
:103870000CE080070AD521A805786D1C6C1C05E0BA
:1038800041A80478A41C21A80578AD1C32001B486F
:103890000178E0B200F058F9694608703200174824
:1038A0000178E8B200F050F90700144802781000DF
:1038B00008D001A8401C110033780370761C401C0E
:1038C000491EF9D101AE347068460078B1184870CD
:1038D000921CD2B2FC21090201A800F0F5F8357063
:1038E00006480278B0184770921CD2B2FE21090235
:1038F00001A800F0E9F861B0F0BD0000AA050020C1
:1039000080B5010001D01149488000F05CF901BD8B
:1039100010B50E4C2178002902D0012905D010BD28
:1039200000F037F90120207010BDA188411AFA2259
:103930009200914209DBA0806088010005D0401E02
:103940006080000401D100F044F910BD780500202A
:10395000F0B591B0040009A86BA1202200F040F955
:1039600001A800BF70A1202200F03AF90020012C2C
:1039700001D009A900E001A9FF226B461A7082005C
:103980004B4B4C4C6F4605E04B4D25604B4D256035
:103990008D589D509D588E58B54207D06D462D7854
:1039A0006E1E3E70002DEFD1002003E0401C082861
:1039B000E2D3012011B0F0BDF8B4C10516D1FF214A
:1039C00000913E4A3C4B03243D4D06E0EB60EA602B
:1039D0002E68A643022737432F602E682640022E0A
:1039E00006D0009E771E0097002EEFD1002019E030
:1039F000EB60EA600024E4432C6100240460009141
:103A0000012029680909014009D000994E1E00963D
:103A10000029F6D1EB60EA602C61002002E0EB6047
:103A2000EA602C61F2BC7047F8B50D00FF210091EF
:103A3000C401600A234A136898420ED01060400205
:103A4000FFF7BAFF09E01C49C1601C49C160016869
:103A50000322914301220A43026019480168890741
:103A6000890F012905D000994A1E00920029EAD148
:103A7000F1BD1149C160114AC2600023DB430361FB
:103A800080232E782670FF2600960668F706FF0F23
:103A900005D0009E771E0097002EF6D1F1BD6D1C5B
:103AA000641C5B1EEDD1C160C26000210161F1BDEB
:103AB000000002402C0002405A5A0000A5A5000058
:103AC00020000240940500200B00812A00DB704793
:103AD00010B5A0B0110006D0694604780C70401CE7
:103AE000491C521EF9D169465802000CFFF79CFF91
:103AF00020B010BD130005D00B780370491C401C8A
:103B0000521EF9D170470000B10000007F00000094
:103B100095000000D484010038D00B00850000001F
:103B20002F0500009A15000020000000170000007B
:103B30001B00000050460000E022020018000000B8
:103B4000F0000000E80300000300080005D0107832
:103B50001B18DBB2521C491EF9D145205840704752
:103B600030B4421E0023140607D00C00D2B22578D0
:103B70005B19DBB2641C521EF9D145225A40081869
:103B8000401E0078824201D1012000E0002030BCBC
:103B9000704700B583B001211C20FEF759FB0020BF
:103BA00069460860012008710D218020FEF7DFF8CA
:103BB0006A460D218020FEF77DF80D218020FEF75A
:103BC000D6F803B000BD80B50D218020FEF7CDF8FA
:103BD00001BD80B50D218020FEF7C9F801BD0000B0
:103BE00070B4103A03D378C9103A78C0FBD25307A7
:103BF00001D318C918C001D508C908C0D20704D319
:103C00000B880380891C801C002A01D50B78037067
:103C100070BC704710B5FDF757FD1A4C6188401A0B
:103C200080B2194988420CDBFDF74EFD6080207898
:103C3000401C2070C0B21E2803DB00202070012031
:103C4000607010BD10B5FCF7CFFE0400E07B0228C9
:103C500014D1FFF7DFFF607C00280AD009484178C3
:103C600000290ED000214170607C401E6074000667
:103C700007D10020E073207CA07610BD0020014910
:103C8000087010BD8A05002060EA000080B500F0D1
:103C900020F800F022F8FDF70BFFFDF773FDFFF7AA
:103CA000BDFC62B6FCF7A4FE00F017F8FDF7E6FCD9
:103CB000FFF701FDFDF706F9FDF7C8FEFFF7C0FCB1
:103CC000FCF786FDFFF786FBFDF7BBFAFFF7BAFFAF
:103CD000EAE780B500F007F801BD80B500F01EF8F6
:103CE00001BD0000704700B583B001210F20FEF731
:103CF000AFFA08216846FEF7F9F868460B21017013
:103D000000214170044801906846FEF78FFFFEF7DE
:103D1000ADFF03B000BD0000E53C000080B5FEF73C
:103D2000ACFF01BD70B40121002213E00468001D46
:103D30000C4202D04D466D1E64192260241D1B1FCB
:103D4000042BFAD225009E0701D52280AD1C0B4022
:103D500000D02A700368001D002BE7D170BC7047AB
:103D600030B501684118446862088A188368E4071E
:103D700001D54C461B19914201D10C3030BD0C7855
:103D800064B2491C0D78491C1D705B1C002C02D5C7
:103D9000641CF9D1EFE7641EF4D5ECE70548002276
:103DA000874500D90244044802600448804704481B
:103DB000004700000000002008ED00E02929000075
:103DC000493E000010B5074979441831064C7C443F
:103DD000163404E0081D0A68891888470100A142CA
:103DE000F8D110BD080000002400000039FFFFFFDB
:103DF0008C020000200300200000000065FFFFFF90
:103E00005400000014010000000000200120C04602
:103E1000002801D0FFF7D6FF0020C046C046FFF7BC
:103E200035FF00F000F880B500F002F801BD000099
:103E30000746384600F002F8FBE70000202109039E
:103E400026311820ABBEF9E7C046C046C046C04682
:103E5000FFF7DCFF04DC00DC00DCE900020102DC2F
:103E6000FB000E5E0164000A00DC00A0005A0AA4F8
:103E70000102FD0000C8FD000096FD000096FD0057
:103E800000AAFD0000DCFD000096FD0000C8FD005A
:103E9000049600080004EF0001FF01E4000078FA36
:103EA000000001E20002DC00DCFB0005332300001F
:103EB0003F23FD000001FA00054B2300005123FDC4
:103EC000000001F50001093DF8000040EC00000190
:0E3ED000FC0002010040EC0004DC0000FF00DA
:0400000500003E4970
:00000001FF
